{"abi":[{"type":"constructor","inputs":[],"stateMutability":"nonpayable"},{"type":"function","name":"getAPYReference","inputs":[],"outputs":[{"name":"","type":"uint256","internalType":"uint256"}],"stateMutability":"view"},{"type":"function","name":"getPrice","inputs":[{"name":"priceId","type":"bytes32","internalType":"bytes32"}],"outputs":[{"name":"price","type":"int64","internalType":"int64"},{"name":"conf","type":"uint64","internalType":"uint64"},{"name":"expo","type":"int32","internalType":"int32"},{"name":"publishTime","type":"uint256","internalType":"uint256"}],"stateMutability":"view"},{"type":"function","name":"prices","inputs":[{"name":"","type":"bytes32","internalType":"bytes32"}],"outputs":[{"name":"price","type":"int64","internalType":"int64"},{"name":"conf","type":"uint64","internalType":"uint64"},{"name":"expo","type":"int32","internalType":"int32"},{"name":"publishTime","type":"uint256","internalType":"uint256"}],"stateMutability":"view"},{"type":"function","name":"updatePrice","inputs":[{"name":"priceId","type":"bytes32","internalType":"bytes32"},{"name":"newPrice","type":"int64","internalType":"int64"}],"outputs":[],"stateMutability":"nonpayable"}],"bytecode":{"object":"0x60803460d057608081016001600160401b0381118282101760bc57604052620f42408152600160208201606481526040830190600519825260608401914283527feaa020c61cc479712813461ce153894a96a6c00b21ed0cfc2798d1f9a9e9c94a5f525f60205260405f20945191855490680100000000000000008660801b03905160401b16915160801b63ffffffff60801b1692858060401b031690858060a01b0319161717178355519101556040516102eb90816100d58239f35b634e487b7160e01b5f52604160045260245ffd5b5f80fdfe60806040526004361015610011575f80fd5b5f3560e01c80630262854c1461025a57806331d98b3f146101b157806360846bc6146101375763eb5a2c3514610045575f80fd5b34610133575f366003190112610133577feaa020c61cc479712813461ce153894a96a6c00b21ed0cfc2798d1f9a9e9c94a5f90815260205260405160808101907fb140b423ca91c2f04bfeb6815e7654980320cb267d161deb8b3828fc5beca5e09067ffffffffffffffff83118184101761011f57600a92604052606060018354938460070b845267ffffffffffffffff8560401c169485602086015260801c60030b604085015201549101520461016801806101681161010b57602090604051908152f35b634e487b7160e01b5f52601160045260245ffd5b634e487b7160e01b5f52604160045260245ffd5b5f80fd5b34610133576020366003190112610133576004355f525f60205260405f2060018154910154906101ad6040519282849360801c60030b9067ffffffffffffffff8160401c169060070b859094939267ffffffffffffffff606093608084019760070b845216602083015260030b60408201520152565b0390f35b34610133576020366003190112610133576004355f525f60205260405f206040516080810181811067ffffffffffffffff82111761011f576040526101ad60608354938460070b93848152600167ffffffffffffffff8760401c169687602084015260801c60030b9283604084015201549283910152604051948594859094939267ffffffffffffffff606093608084019760070b845216602083015260030b60408201520152565b34610133576040366003190112610133576004356024358060070b810361013357815f525f60205260405f209067ffffffffffffffff198254169067ffffffffffffffff161790555f525f60205242600160405f2001555f80f3fea26469706673582212208664e97bee8763693ce1eff996e50edcdbbdb717a8bc7d2e5fbdf2b48a946ae364736f6c634300081e0033","linkReferences":{}},"methodIdentifiers":{"getAPYReference()":"eb5a2c35","getPrice(bytes32)":"31d98b3f","prices(bytes32)":"60846bc6","updatePrice(bytes32,int64)":"0262854c"},"id":1}