{"abi":[{"type":"constructor","inputs":[{"name":"_usdcToken","type":"address","internalType":"address"},{"name":"_pythOracle","type":"address","internalType":"address"},{"name":"_walrusStorage","type":"address","internalType":"address"},{"name":"_walrusToken","type":"address","internalType":"address"},{"name":"_rootstockBridge","type":"address","internalType":"address"}],"stateMutability":"nonpayable"},{"type":"receive","stateMutability":"payable"},{"type":"function","name":"BASIS_POINTS","inputs":[],"outputs":[{"name":"","type":"uint256","internalType":"uint256"}],"stateMutability":"view"},{"type":"function","name":"BTC_COLLATERAL_RATIO","inputs":[],"outputs":[{"name":"","type":"uint256","internalType":"uint256"}],"stateMutability":"view"},{"type":"function","name":"BTC_PRICE_ID","inputs":[],"outputs":[{"name":"","type":"bytes32","internalType":"bytes32"}],"stateMutability":"view"},{"type":"function","name":"LOAN_DURATION","inputs":[],"outputs":[{"name":"","type":"uint256","internalType":"uint256"}],"stateMutability":"view"},{"type":"function","name":"USDC_PRICE_ID","inputs":[],"outputs":[{"name":"","type":"bytes32","internalType":"bytes32"}],"stateMutability":"view"},{"type":"function","name":"WALRUS_REWARD_RATE","inputs":[],"outputs":[{"name":"","type":"uint256","internalType":"uint256"}],"stateMutability":"view"},{"type":"function","name":"WHALE_THRESHOLD","inputs":[],"outputs":[{"name":"","type":"uint256","internalType":"uint256"}],"stateMutability":"view"},{"type":"function","name":"addLiquidity","inputs":[{"name":"amount","type":"uint256","internalType":"uint256"},{"name":"fixedAPY","type":"uint256","internalType":"uint256"},{"name":"useBitcoinCollateral","type":"bool","internalType":"bool"},{"name":"lenderMetadata","type":"bytes","internalType":"bytes"}],"outputs":[],"stateMutability":"payable"},{"type":"function","name":"borrowerList","inputs":[{"name":"","type":"uint256","internalType":"uint256"}],"outputs":[{"name":"","type":"address","internalType":"address"}],"stateMutability":"view"},{"type":"function","name":"borrowerLoans","inputs":[{"name":"","type":"address","internalType":"address"},{"name":"","type":"uint256","internalType":"uint256"}],"outputs":[{"name":"lender","type":"address","internalType":"address"},{"name":"amount","type":"uint256","internalType":"uint256"},{"name":"apy","type":"uint256","internalType":"uint256"},{"name":"chunkDataBlob","type":"bytes32","internalType":"bytes32"}],"stateMutability":"view"},{"type":"function","name":"borrowers","inputs":[{"name":"","type":"address","internalType":"address"}],"outputs":[{"name":"amount","type":"uint256","internalType":"uint256"},{"name":"weightedAPY","type":"uint256","internalType":"uint256"},{"name":"timestamp","type":"uint256","internalType":"uint256"},{"name":"dueDate","type":"uint256","internalType":"uint256"},{"name":"active","type":"bool","internalType":"bool"},{"name":"loanDocumentBlob","type":"bytes32","internalType":"bytes32"},{"name":"btcCollateralRatio","type":"uint256","internalType":"uint256"},{"name":"crossChainLoan","type":"bool","internalType":"bool"}],"stateMutability":"view"},{"type":"function","name":"btcCollaterals","inputs":[{"name":"","type":"address","internalType":"address"}],"outputs":[{"name":"","type":"uint256","internalType":"uint256"}],"stateMutability":"view"},{"type":"function","name":"claimInterest","inputs":[],"outputs":[],"stateMutability":"nonpayable"},{"type":"function","name":"claimWalrusRewards","inputs":[],"outputs":[],"stateMutability":"nonpayable"},{"type":"function","name":"emergencyWithdraw","inputs":[{"name":"token","type":"address","internalType":"address"},{"name":"amount","type":"uint256","internalType":"uint256"}],"outputs":[],"stateMutability":"nonpayable"},{"type":"function","name":"getBorrowerDetails","inputs":[{"name":"borrower","type":"address","internalType":"address"}],"outputs":[{"name":"amount","type":"uint256","internalType":"uint256"},{"name":"weightedAPY","type":"uint256","internalType":"uint256"},{"name":"timestamp","type":"uint256","internalType":"uint256"},{"name":"dueDate","type":"uint256","internalType":"uint256"},{"name":"active","type":"bool","internalType":"bool"},{"name":"loanDocumentBlob","type":"bytes32","internalType":"bytes32"},{"name":"btcCollateralRatio","type":"uint256","internalType":"uint256"},{"name":"crossChainLoan","type":"bool","internalType":"bool"},{"name":"currentRepaymentAmount","type":"uint256","internalType":"uint256"}],"stateMutability":"view"},{"type":"function","name":"getLenderDetails","inputs":[{"name":"lender","type":"address","internalType":"address"}],"outputs":[{"name":"totalDeposited","type":"uint256","internalType":"uint256"},{"name":"availableAmount","type":"uint256","internalType":"uint256"},{"name":"lentAmount","type":"uint256","internalType":"uint256"},{"name":"earnedInterest","type":"uint256","internalType":"uint256"},{"name":"fixedAPY","type":"uint256","internalType":"uint256"},{"name":"active","type":"bool","internalType":"bool"},{"name":"walrusRewards","type":"uint256","internalType":"uint256"},{"name":"btcCollateral","type":"uint256","internalType":"uint256"},{"name":"isBitcoinLender","type":"bool","internalType":"bool"},{"name":"lenderDataBlob","type":"bytes32","internalType":"bytes32"}],"stateMutability":"view"},{"type":"function","name":"getPoolStatus","inputs":[],"outputs":[{"name":"totalAvailable","type":"uint256","internalType":"uint256"},{"name":"totalLent","type":"uint256","internalType":"uint256"},{"name":"activeLenders","type":"uint256","internalType":"uint256"},{"name":"activeBorrowers","type":"uint256","internalType":"uint256"},{"name":"averageAPY","type":"uint256","internalType":"uint256"},{"name":"totalInterest","type":"uint256","internalType":"uint256"},{"name":"totalBTCLocked","type":"uint256","internalType":"uint256"},{"name":"totalWalrusRewardsPool","type":"uint256","internalType":"uint256"},{"name":"crossChainLoans","type":"uint256","internalType":"uint256"}],"stateMutability":"view"},{"type":"function","name":"getProtocolMetrics","inputs":[],"outputs":[{"name":"totalWalrusDataStored","type":"uint256","internalType":"uint256"},{"name":"totalBTCCollateralLocked","type":"uint256","internalType":"uint256"},{"name":"availableWalrusRewards","type":"uint256","internalType":"uint256"},{"name":"currentFees","type":"tuple","internalType":"struct LendingPoolIntegrated.ProtocolFees","components":[{"name":"walrusStorageFee","type":"uint256","internalType":"uint256"},{"name":"rootstockBridgeFee","type":"uint256","internalType":"uint256"},{"name":"pythUpdateFee","type":"uint256","internalType":"uint256"}]},{"name":"contractUSDCBalance","type":"uint256","internalType":"uint256"},{"name":"contractETHBalance","type":"uint256","internalType":"uint256"}],"stateMutability":"view"},{"type":"function","name":"lenderList","inputs":[{"name":"","type":"uint256","internalType":"uint256"}],"outputs":[{"name":"","type":"address","internalType":"address"}],"stateMutability":"view"},{"type":"function","name":"lenders","inputs":[{"name":"","type":"address","internalType":"address"}],"outputs":[{"name":"totalDeposited","type":"uint256","internalType":"uint256"},{"name":"availableAmount","type":"uint256","internalType":"uint256"},{"name":"lentAmount","type":"uint256","internalType":"uint256"},{"name":"earnedInterest","type":"uint256","internalType":"uint256"},{"name":"fixedAPY","type":"uint256","internalType":"uint256"},{"name":"active","type":"bool","internalType":"bool"},{"name":"timestamp","type":"uint256","internalType":"uint256"},{"name":"lenderDataBlob","type":"bytes32","internalType":"bytes32"},{"name":"walrusRewards","type":"uint256","internalType":"uint256"},{"name":"btcCollateral","type":"uint256","internalType":"uint256"},{"name":"isBitcoinLender","type":"bool","internalType":"bool"}],"stateMutability":"view"},{"type":"function","name":"liquidateLoan","inputs":[{"name":"borrowerAddr","type":"address","internalType":"address"}],"outputs":[],"stateMutability":"nonpayable"},{"type":"function","name":"maxAPY","inputs":[],"outputs":[{"name":"","type":"uint256","internalType":"uint256"}],"stateMutability":"view"},{"type":"function","name":"minAPY","inputs":[],"outputs":[{"name":"","type":"uint256","internalType":"uint256"}],"stateMutability":"view"},{"type":"function","name":"owner","inputs":[],"outputs":[{"name":"","type":"address","internalType":"address"}],"stateMutability":"view"},{"type":"function","name":"pause","inputs":[],"outputs":[],"stateMutability":"nonpayable"},{"type":"function","name":"paused","inputs":[],"outputs":[{"name":"","type":"bool","internalType":"bool"}],"stateMutability":"view"},{"type":"function","name":"protocolFees","inputs":[],"outputs":[{"name":"walrusStorageFee","type":"uint256","internalType":"uint256"},{"name":"rootstockBridgeFee","type":"uint256","internalType":"uint256"},{"name":"pythUpdateFee","type":"uint256","internalType":"uint256"}],"stateMutability":"view"},{"type":"function","name":"pythOracle","inputs":[],"outputs":[{"name":"","type":"address","internalType":"contract IPythOracle"}],"stateMutability":"view"},{"type":"function","name":"renounceOwnership","inputs":[],"outputs":[],"stateMutability":"nonpayable"},{"type":"function","name":"repayLoan","inputs":[],"outputs":[],"stateMutability":"nonpayable"},{"type":"function","name":"requestLoan","inputs":[{"name":"amount","type":"uint256","internalType":"uint256"},{"name":"loanDocument","type":"bytes","internalType":"bytes"},{"name":"requireBTCCollateral","type":"bool","internalType":"bool"},{"name":"targetChain","type":"string","internalType":"string"}],"outputs":[],"stateMutability":"payable"},{"type":"function","name":"retrieveLenderData","inputs":[{"name":"lender","type":"address","internalType":"address"}],"outputs":[{"name":"","type":"bytes","internalType":"bytes"}],"stateMutability":"view"},{"type":"function","name":"retrieveLoanDocument","inputs":[{"name":"borrower","type":"address","internalType":"address"}],"outputs":[{"name":"","type":"bytes","internalType":"bytes"}],"stateMutability":"view"},{"type":"function","name":"rootstockBridge","inputs":[],"outputs":[{"name":"","type":"address","internalType":"contract IRootstockBridge"}],"stateMutability":"view"},{"type":"function","name":"simulateLoan","inputs":[{"name":"amount","type":"uint256","internalType":"uint256"},{"name":"requireBTCCollateral","type":"bool","internalType":"bool"}],"outputs":[{"name":"chunks","type":"tuple[]","internalType":"struct LendingPoolIntegrated.LoanChunk[]","components":[{"name":"lender","type":"address","internalType":"address"},{"name":"amount","type":"uint256","internalType":"uint256"},{"name":"apy","type":"uint256","internalType":"uint256"},{"name":"chunkDataBlob","type":"bytes32","internalType":"bytes32"}]},{"name":"weightedAPY","type":"uint256","internalType":"uint256"},{"name":"requiredBTCCollateral","type":"uint256","internalType":"uint256"},{"name":"estimatedWalrusStorageCost","type":"uint256","internalType":"uint256"}],"stateMutability":"view"},{"type":"function","name":"storeDataWrapper","inputs":[{"name":"data","type":"bytes","internalType":"bytes"}],"outputs":[{"name":"","type":"bytes32","internalType":"bytes32"}],"stateMutability":"payable"},{"type":"function","name":"storedBlobs","inputs":[{"name":"","type":"bytes32","internalType":"bytes32"}],"outputs":[{"name":"","type":"bool","internalType":"bool"}],"stateMutability":"view"},{"type":"function","name":"totalAvailableLiquidity","inputs":[],"outputs":[{"name":"","type":"uint256","internalType":"uint256"}],"stateMutability":"view"},{"type":"function","name":"totalBTCCollateral","inputs":[],"outputs":[{"name":"","type":"uint256","internalType":"uint256"}],"stateMutability":"view"},{"type":"function","name":"totalInterestEarned","inputs":[],"outputs":[{"name":"","type":"uint256","internalType":"uint256"}],"stateMutability":"view"},{"type":"function","name":"totalLentAmount","inputs":[],"outputs":[{"name":"","type":"uint256","internalType":"uint256"}],"stateMutability":"view"},{"type":"function","name":"totalWalrusRewards","inputs":[],"outputs":[{"name":"","type":"uint256","internalType":"uint256"}],"stateMutability":"view"},{"type":"function","name":"transferOwnership","inputs":[{"name":"newOwner","type":"address","internalType":"address"}],"outputs":[],"stateMutability":"nonpayable"},{"type":"function","name":"unpause","inputs":[],"outputs":[],"stateMutability":"nonpayable"},{"type":"function","name":"updateAPYRange","inputs":[],"outputs":[],"stateMutability":"nonpayable"},{"type":"function","name":"updateProtocolContracts","inputs":[{"name":"_pythOracle","type":"address","internalType":"address"},{"name":"_walrusStorage","type":"address","internalType":"address"},{"name":"_walrusToken","type":"address","internalType":"address"},{"name":"_rootstockBridge","type":"address","internalType":"address"}],"outputs":[],"stateMutability":"nonpayable"},{"type":"function","name":"updateProtocolFees","inputs":[{"name":"_walrusStorageFee","type":"uint256","internalType":"uint256"},{"name":"_rootstockBridgeFee","type":"uint256","internalType":"uint256"},{"name":"_pythUpdateFee","type":"uint256","internalType":"uint256"}],"outputs":[],"stateMutability":"nonpayable"},{"type":"function","name":"usdcToken","inputs":[],"outputs":[{"name":"","type":"address","internalType":"contract IERC20"}],"stateMutability":"view"},{"type":"function","name":"walrusStorage","inputs":[],"outputs":[{"name":"","type":"address","internalType":"contract IWalrusStorage"}],"stateMutability":"view"},{"type":"function","name":"walrusToken","inputs":[],"outputs":[{"name":"","type":"address","internalType":"contract IWalrusToken"}],"stateMutability":"view"},{"type":"function","name":"withdrawLiquidity","inputs":[{"name":"amount","type":"uint256","internalType":"uint256"}],"outputs":[],"stateMutability":"nonpayable"},{"type":"event","name":"BTCCollateralAdded","inputs":[{"name":"user","type":"address","indexed":true,"internalType":"address"},{"name":"amount","type":"uint256","indexed":false,"internalType":"uint256"}],"anonymous":false},{"type":"event","name":"BorrowerMatched","inputs":[{"name":"borrower","type":"address","indexed":true,"internalType":"address"},{"name":"amount","type":"uint256","indexed":false,"internalType":"uint256"},{"name":"weightedAPY","type":"uint256","indexed":false,"internalType":"uint256"},{"name":"dueDate","type":"uint256","indexed":false,"internalType":"uint256"},{"name":"documentBlob","type":"bytes32","indexed":false,"internalType":"bytes32"}],"anonymous":false},{"type":"event","name":"CrossChainLoanExecuted","inputs":[{"name":"borrower","type":"address","indexed":true,"internalType":"address"},{"name":"amount","type":"uint256","indexed":false,"internalType":"uint256"},{"name":"targetChain","type":"string","indexed":false,"internalType":"string"}],"anonymous":false},{"type":"event","name":"InterestClaimed","inputs":[{"name":"lender","type":"address","indexed":true,"internalType":"address"},{"name":"interest","type":"uint256","indexed":false,"internalType":"uint256"}],"anonymous":false},{"type":"event","name":"LenderAdded","inputs":[{"name":"lender","type":"address","indexed":true,"internalType":"address"},{"name":"amount","type":"uint256","indexed":false,"internalType":"uint256"},{"name":"apy","type":"uint256","indexed":false,"internalType":"uint256"},{"name":"isBitcoinBacked","type":"bool","indexed":false,"internalType":"bool"}],"anonymous":false},{"type":"event","name":"LiquidityWithdrawn","inputs":[{"name":"lender","type":"address","indexed":true,"internalType":"address"},{"name":"amount","type":"uint256","indexed":false,"internalType":"uint256"}],"anonymous":false},{"type":"event","name":"LoanLiquidated","inputs":[{"name":"borrower","type":"address","indexed":true,"internalType":"address"},{"name":"amount","type":"uint256","indexed":false,"internalType":"uint256"}],"anonymous":false},{"type":"event","name":"LoanRepaid","inputs":[{"name":"borrower","type":"address","indexed":true,"internalType":"address"},{"name":"principal","type":"uint256","indexed":false,"internalType":"uint256"},{"name":"interest","type":"uint256","indexed":false,"internalType":"uint256"}],"anonymous":false},{"type":"event","name":"OwnershipTransferred","inputs":[{"name":"previousOwner","type":"address","indexed":true,"internalType":"address"},{"name":"newOwner","type":"address","indexed":true,"internalType":"address"}],"anonymous":false},{"type":"event","name":"Paused","inputs":[{"name":"account","type":"address","indexed":false,"internalType":"address"}],"anonymous":false},{"type":"event","name":"Unpaused","inputs":[{"name":"account","type":"address","indexed":false,"internalType":"address"}],"anonymous":false},{"type":"event","name":"WalrusDataStored","inputs":[{"name":"user","type":"address","indexed":true,"internalType":"address"},{"name":"blobId","type":"bytes32","indexed":false,"internalType":"bytes32"},{"name":"size","type":"uint256","indexed":false,"internalType":"uint256"}],"anonymous":false},{"type":"event","name":"WalrusRewardsClaimed","inputs":[{"name":"user","type":"address","indexed":true,"internalType":"address"},{"name":"amount","type":"uint256","indexed":false,"internalType":"uint256"}],"anonymous":false}],"bytecode":{"object":"0x60a0604052346101ca57604051601f6148d338819003918201601f19168301916001600160401b038311848410176101b65780849260a0946040528339810103126101ca5761004d816101ce565b9061005a602082016101ce565b610066604083016101ce565b9061007f6080610078606086016101ce565b94016101ce565b9360015f556001543360018060a01b0382167f8be0079c531659141344cd1fd0a4f28419497f9722a3daafe3b4186f6b6457e05f80a36001600160a81b0319163360ff60a01b19161760015560646015556107d06016556001600160a01b03908116608052600380546001600160a01b03199081169383169390931790556004805483169382169390931790925560028054821693831693909317909255600580549092169216919091179055604051606081016001600160401b038111828210176101b65760649160409182526103e88152611388602082015201526103e860125561138860135560646014556040516146f090816101e38239608051818181610364015281816108ce0152818161236a01528181612e4d01528181612ef50152818161384801528181613a110152613b1e0152f35b634e487b7160e01b5f52604160045260245ffd5b5f80fd5b51906001600160a01b03821682036101ca5756fe608080604052600436101561001c575b50361561001a575f80fd5b005b5f905f3560e01c908163074d34fd14613d325750806308319b9214613d055780630a861f2a14613a4057806311eac855146139fc5780631ad8b03b146139ce57806328fd10d71461391d5780632ddb0c4f1461390157806335981fd8146137b857806336e27116146128d25780633ce74f5f146122c55780633f4ba83a1461222857806343f7f7401461220a57806349e71742146121d15780635c975abb146121ab5780636085c7df146121805780636a31db1814612162578063715018a614612105578063735d80e3146120e75780637c1578d814611f1b5780637f79496c14611d6f57806381457f0f14611c69578063826755d214611c4b578063839ddb8b14611c225780638456cb5914611bbf57806389ff202914611ac65780638b03a16014611a9d5780638da5cb5b14611a7457806395ccea67146119a25780639f9fa71514611984578063ade9f5ab146118b5578063b383bde714611198578063b3a6652414611154578063b7d93f3414611136578063bbdfa00e14610f47578063bf5d50c414610eb6578063c715ad4514610e87578063cca5e1b014610cd1578063db78bf3214610ca8578063dd64759414610ba2578063e02a4dfd14610b84578063e1f1c4a714610b67578063e3ed190214610aeb578063e49eaee014610acd578063e52bdbe21461099f578063eb1d13b01461087a578063f2fde38b146107b1578063f3ca645014610789578063f47790d61461076a578063f5d6ac9014610741578063f6cb5bef1461064e578063f966ade71461029d5763fb0717580361000f573461029a578060031936011261029a5760206040517feaa020c61cc479712813461ce153894a96a6c00b21ed0cfc2798d1f9a9e9c94a8152f35b80fd5b503461029a578060031936011261029a576102b661422f565b33815260076020526102d160ff600460408420015416614144565b3381526007602052604081203382526008602052604082209080549061035f602061033161032a64496cebb800610323600187015461031e61031760028a015442613e6e565b918a613fca565b613fca565b0486613f82565b9485613e6e565b6040516323b872dd60e01b815233600482015230602482015260448101959095529391829081906064820190565b0381887f00000000000000000000000000000000000000000000000000000000000000006001600160a01b03165af1801561064357610616575b50835b835481101561048c576103af8185613e1a565b506001808060a01b03825416910180546103d46103cc8288613fca565b865490613fdd565b9083895260066020526103ef600160408b2001918254613f82565b90558154838952600660205261040d600260408b2001918254613e6e565b90558288526006602052610429600360408a2001918254613f82565b905554600a810290808204600a1490151715610478576001929161271061046f9204908852600660205260086040892001610465828254613f82565b9055601154613f82565b6011550161039c565b634e487b7160e01b87526011600452602487fd5b8483836006810154151580610601575b610565575b6104ae8154600d54613f82565b600d556104be8154600e54613e6e565b600e556104cd82600f54613f82565b600f55338352600760205261050e6040842060075f918281558260018201558260028201558260038201558260048201558260058201558260068201550155565b338352600860205261052260408420614181565b61052b336145ae565b549060405191825260208201527fc7ce0a35f17b490de2a317e7fecb2cae86b1abffb03800b2f49282352138269860403392a26001815580f35b3383526009602052826040812054338252600960205281604081205561058d81601054613e6e565b6010556005546001600160a01b0316803b156105f25760405163b4b8a65d60e01b8152600481019290925233602483015282908290604490829084905af180156105f6576105dd575b50506104a1565b816105e791613efd565b6105f25782846105d6565b8280fd5b6040513d84823e3d90fd5b5033835260096020526040832054151561049c565b6106379060203d60201161063c575b61062f8183613efd565b810190613f1e565b610399565b503d610625565b6040513d87823e3d90fd5b503461029a57608036600319011261029a57610668613d4b565b6024356001600160a01b038116908190036105f2576044356001600160a01b038116919082900361073d576064356001600160a01b0381169390849003610739576106b16141d7565b6001600160a01b031680610720575b5080610707575b50806106ee575b50806106d8575080f35b6001600160601b0360a01b600554161760055580f35b6001600160601b0360a01b60025416176002555f6106ce565b6001600160601b0360a01b60045416176004555f6106c7565b6001600160601b0360a01b60035416176003555f6106c0565b8480fd5b8380fd5b503461029a578060031936011261029a576003546040516001600160a01b039091168152602090f35b503461029a578060031936011261029a576020604051633b9aca008152f35b503461029a578060031936011261029a5760206040515f51602061469b5f395f51905f528152f35b503461029a57602036600319011261029a576107cb613d4b565b6107d36141d7565b6001600160a01b0316801561082657600180546001600160a01b0319811683179091556001600160a01b03167f8be0079c531659141344cd1fd0a4f28419497f9722a3daafe3b4186f6b6457e08380a380f35b60405162461bcd60e51b815260206004820152602660248201527f4f776e61626c653a206e6577206f776e657220697320746865207a65726f206160448201526564647265737360d01b6064820152608490fd5b503461029a578060031936011261029a57806040805161089981613ee2565b828152826020820152015260105490601154604051926370a0823160e01b845230600485015260208460248160018060a01b037f0000000000000000000000000000000000000000000000000000000000000000165afa90811561099457839161095a575b6101009450479260405161091181613ee2565b601254815260135491602082019283526014549360408301948552604051978852602088015260408701525160608601525160808501525160a084015260c083015260e0820152f35b90506020843d60201161098c575b8161097560209383613efd565b81010312610988576101009351906108fe565b5f80fd5b3d9150610968565b6040513d85823e3d90fd5b503461029a57602036600319011261029a57610120906001600160a01b036109c5613d4b565b1681526007602052604081206040516109dd81613eaa565b815492838252600183015492602083019484865260028201549060408501948286526003840154906060810191825260ff60048601541692608082019315159889855260058701549560a0840196875260ff600760068a01549960c087019a8b520154169860e085019915158a529a610a99575b5050505197519551905191511515925193519451151595604051988952602089015260408801526060870152608086015260a085015260c084015260e0830152610100820152f35b610ac4939a5064496cebb8009161031e610ab6610abd9342613e6e565b9185613fca565b0490613f82565b965f8080610a51565b503461029a578060031936011261029a576020601654604051908152f35b503461029a57604036600319011261029a57610b05613d4b565b6001600160a01b031681526008602052604081208054602435929083101561029a576080610b338484613e1a565b5060018060a01b03815416906001810154906003600282015491015491604051938452602084015260408301526060820152f35b503461029a578060031936011261029a5760206040516127108152f35b503461029a578060031936011261029a57602060405162278d008152f35b503461029a57602036600319011261029a576001600160a01b03610bc4613d4b565b168082526007602052600560408320015415610c63576004805491835260076020526040808420600501549051630a75ff4f60e31b815291820152908290829060249082906001600160a01b03165afa9081156105f65782610c3c9392610c40575b5050604051918291602083526020830190613df6565b0390f35b610c5c92503d8091833e610c548183613efd565b810190614050565b5f80610c26565b60405162461bcd60e51b815260206004820152601760248201527f4e6f206c6f616e20646f63756d656e742073746f7265640000000000000000006044820152606490fd5b503461029a578060031936011261029a576005546040516001600160a01b039091168152602090f35b503461029a578060031936011261029a57610cea61422f565b338152600660205260ff60056040832001541615610e4b573381526006602052600860408220015415610e10573380825260066020818152604080852060089081015485875293835281862001859055600254905163a9059cbb60e01b81526004810194909452602484018390529192918290604490829087906001600160a01b03165af1908115610994578391610df1575b5015610db6576040519081527ffda6303d371299a136db6966e135292a2ad70da46fa71a0eeccf6246714d2f8360203392a26001815580f35b60405162461bcd60e51b815260206004820152601360248201527215d053081d1c985b9cd9995c8819985a5b1959606a1b6044820152606490fd5b610e0a915060203d60201161063c5761062f8183613efd565b5f610d7d565b60405162461bcd60e51b81526020600482015260136024820152724e6f207265776172647320746f20636c61696d60681b6044820152606490fd5b60405162461bcd60e51b81526020600482015260146024820152732737ba1030b71030b1ba34bb32903632b73232b960611b6044820152606490fd5b503461029a57602036600319011261029a5760ff60406020926004358152600a84522054166040519015158152f35b503461029a57602036600319011261029a57610100906040906001600160a01b03610edf613d4b565b1681526007602052208054906001810154906002810154600382015460ff6004840154169060058401549260ff6007600687015496015416956040519788526020880152604087015260608601521515608085015260a084015260c0830152151560e0820152f35b503461029a57602036600319011261029a57610f61613d4b565b610f6961422f565b6001600160a01b03811680835260076020526040832060040154610f8f9060ff16614144565b808352600760205260036040842001544211156110fe578083526007602052604083209080845260086020526040842091845b83548110156110235780610fd860019286613e1a565b5082808060a01b0382541691018054828a526006602052611001600260408c2001918254613e6e565b905554908852600660205261101b60408920918254613e6e565b905501610fc2565b85837fd75168f1c9346a6c18eaeba0d3c95ea70b5dc2c0c280274a670c97cb8e4f415b6020856110c38a8587526009845260408720546110d2575b61106b8354600e54613e6e565b600e55858752600784526110ab6040882060075f918281558260018201558260028201558260038201558260048201558260058201558260068201550155565b858752600884526110be60408820614181565b6145ae565b54604051908152a26001815580f35b858752600984526110f6604088205487895260098652886040812055601054613e6e565b60105561105e565b60405162461bcd60e51b815260206004820152601060248201526f131bd85b881b9bdd08195e1c1a5c995960821b6044820152606490fd5b503461029a578060031936011261029a576020600f54604051908152f35b503461029a57602036600319011261029a5760043590600c5482101561029a57602061117f83613dc9565b905460405160039290921b1c6001600160a01b03168152f35b503461029a57604036600319011261029a5760243560043581151582036105f2578283600d548311611862576111cf600b546140c9565b600b549093869390928385633b9aca00821115815b8b8782106117dc5750506111f7826140b2565b956112056040519788613efd565b828752601f19611214846140b2565b013660208901378b8c5b828110611733575050508a5b8281106115bf57505050885b84518110806115b6575b15611386576001600160a01b036112578287614130565b5116808b52600660205260408b2090898c6040519361127585613ec6565b80548552600181015490816020870152600281015460408701526003810154606087015260048101549586608082015261014060ff600a816005860154161515948560a0860152600681015460c0860152600781015460e08601526008810154610100860152600981015461012086015201541615159101528061137d575b61130c575b505050505061130790614042565b611236565b926113538c61136a969484611307999f9e959761136498508087115f1461137557965b6040519561133c87613e7b565b865287602087015260408601526060850152614130565b5261135e8a8d614130565b50613e6e565b96614042565b96905f898c826112f9565b50859661132f565b508015156112f4565b5093909491969250611397826140c9565b95885b83811061158c57505081611521575b505061142e575b5060125490604051936080850195608086528451809752602060a08701950190965b8088106113f15750508495506020850152604084015260608301520390f35b90946020608060019260608951858060a01b03815116835284810151858401526040810151604084015201516060820152019601970196906113d2565b6003546040516331d98b3f60e01b81525f51602061469b5f395f51905f52600482015290608090829060249082906001600160a01b03165afa8691816114ed575b5061147f57505050825b5f6113b0565b60070b90858213611492575b5050611479565b909150613a98810290808204613a9814901517156114d95761271090046305f5e1008102908082046305f5e10014901517156114d957906114d291613fdd565b5f8061148b565b634e487b7160e01b85526011600452602485fd5b61151091925060803d60801161151a575b6115088183613efd565b810190613ffb565b505050905f61146f565b503d6114fe565b90919550869187905b80821061154f575050906115416115479284613e6e565b90613fdd565b935f806113a9565b909261158460019161157e6020611566888c614130565b5101516040611575898d614130565b51015190613fca565b90613f82565b93019061152a565b8061159960019284614130565b516115a4828b614130565b526115af818a614130565b500161139a565b50851515611240565b969199949097929598938b5b6115d5898d613e6e565b5f19810190811161171f578d9082101561170b576004906040908c156116b9578d6116078560018060a01b0392614130565b511681526006602052200154600182018083116116a55760408f8e61163560049460018060a01b0392614130565b511681526006602052200154105b611650575b6001016115cb565b6001600160a01b03611662828d614130565b5116600182018083116116a5579061169d8f928e60019594868060a01b0361168a8484614130565b51166116968784614130565b5250614130565b529050611648565b634e487b7160e01b8f52601160045260248ffd5b8d6116cb8560018060a01b0392614130565b511681526006602052200154600182018083116116a55760408f8e6116f960049460018060a01b0392614130565b51168152600660205220015411611643565b50509398959297909499919660010161122a565b634e487b7160e01b8e52601160045260248efd5b8d61173d82613d9d565b905460039190911b1c6001600160a01b03169052600660205260408e206005015460ff168e816117ac575b50611776575b60010161121e565b906117a460019161178684613d9d565b848060a01b0391549060031b1c1661179e828d614130565b52614042565b91905061176e565b600191506040906117bc84613d9d565b848060a01b0391549060031b1c168152600660205220015415158e611768565b6005604060ff926117ec85613d9d565b905460039190911b1c6001600160a01b0316815260066020522001541680611830575b61181c575b6001016111e4565b91611828600191614042565b929050611814565b5061183a81613d9d565b905460039190911b1c6001600160a01b03168c52600660205260408c2060010154151561180f565b60405162461bcd60e51b815260206004820152602560248201527f496e73756666696369656e74206c697175696469747920666f722073696d756c60448201526430ba34b7b760d91b6064820152608490fd5b503461029a57602036600319011261029a576001600160a01b036118d7613d4b565b16808252600660205260076040832001541561194e576004805491835260066020526040808420600701549051630a75ff4f60e31b815291820152908290829060249082906001600160a01b03165afa9081156105f65782610c3c9392610c40575050604051918291602083526020830190613df6565b60405162461bcd60e51b815260206004820152600e60248201526d139bc819185d18481cdd1bdc995960921b6044820152606490fd5b503461029a578060031936011261029a576020601154604051908152f35b503461029a57604036600319011261029a57806119bd613d4b565b602435906119c96141d7565b6001600160a01b031680611a115750600154829182918291906001600160a01b0316828215611a08575bf1156119fc5780f35b604051903d90823e3d90fd5b506108fc6119f3565b60015460405163a9059cbb60e01b81526001600160a01b03909116600482015260248101929092529091506020908290604490829086905af180156105f657611a58575080f35b611a709060203d60201161063c5761062f8183613efd565b5080f35b503461029a578060031936011261029a576001546040516001600160a01b039091168152602090f35b503461029a578060031936011261029a576002546040516001600160a01b039091168152602090f35b503461029a57602036600319011261029a57610140906040906001600160a01b03611aef613d4b565b168152600660205220604051611b0481613ec6565b828254928383526001810154928360208201526002820154806040830152600383015480606084015260048401549081608085015260ff6005860154161515928360a0860152600686015460c08601526007860154978860e08701526008870154958661010082015260ff600a60098a0154998a61012085015201541615159889910152604051998a5260208a015260408901526060880152608087015260a086015260c085015260e0840152610100830152610120820152f35b503461029a578060031936011261029a57611bd86141d7565b611be0614283565b6001805460ff60a01b1916600160a01b1790556040513381527f62e78cea01bee320cd4e420270b5ea74000d11b0c9f74754ebdbfc544b05a25890602090a180f35b503461029a578060031936011261029a576004546040516001600160a01b039091168152602090f35b503461029a578060031936011261029a576020601054604051908152f35b50602036600319011261029a576004356001600160401b038111611d6b57611c95903690600401613d61565b919091303303611d2657611cd59260209160018060a01b03600454169060405180968194829363bce2dad960e01b84528760048501526024840191613faa565b039134905af19081156119fc5790611cf3575b602090604051908152f35b506020813d602011611d1e575b81611d0d60209383613efd565b810103126109885760209051611ce8565b3d9150611d00565b60405162461bcd60e51b815260206004820152601760248201527f4f6e6c792073656c662063616c6c7320616c6c6f7765640000000000000000006044820152606490fd5b5080fd5b503461029a578060031936011261029a57600d54600e54600f546010546011549185938687958889600b54905b818110611e98575050600c548a5b818110611e0557506101209a918391508115611dfd57611dca9250613fdd565b925b604051988952602089015260408801526060870152608086015260a085015260c084015260e0830152610100820152f35b505092611dcc565b611e0e81613dc9565b905460039190911b1c6001600160a01b03168c52600760205260408c20600401548c9060ff16611e42575b50600101611daa565b9460076040611e5260ff93614042565b97611e5c85613dc9565b905460039190911b1c6001600160a01b03168152602083905220015416611e84575b8b611e39565b98611e90600191614042565b999050611e7e565b611ea181613d9d565b905460039190911b1c6001600160a01b03168c52600660205260408c20600501548c9060ff16611ed5575b50600101611d9c565b936001919360046040611eea611f1294614042565b97611ef488613d9d565b878060a01b0391549060031b1c168152600660205220015490613f82565b9290508b611ecc565b503461029a578060031936011261029a57611f346141d7565b6003546040516331d98b3f60e01b81527feaa020c61cc479712813461ce153894a96a6c00b21ed0cfc2798d1f9a9e9c94a6004820152906001600160a01b0316608082602481845afa8392816120c3575b50611f8e578280f35b6080602491604051928380926331d98b3f60e01b82525f51602061469b5f395f51905f5260048301525afa83918161209f575b5061200e575060070b6305f45a6081139081612000575b5015611ff05760646015556103e86016555b5f808280f35b60c86015556107d0601655611fea565b6305f767a09150125f611fd8565b9060070b906305f45a6082139182612091575b5060070b6502ba7def30008112908115612081575b508180612079575b1561205557505060646015556103e8601655611fea565b81612071575b5015611ff05760966015556105dc601655611fea565b90505f61205b565b50801561203e565b6509184e72a0009150135f612036565b6305f767a01391505f612021565b6120b991925060803d60801161151a576115088183613efd565b505050905f611fc1565b6120dd91935060803d60801161151a576115088183613efd565b505050915f611f85565b503461029a578060031936011261029a576020600d54604051908152f35b503461029a578060031936011261029a5761211e6141d7565b600180546001600160a01b0319811690915581906001600160a01b03167f8be0079c531659141344cd1fd0a4f28419497f9722a3daafe3b4186f6b6457e08280a380f35b503461029a578060031936011261029a576020601554604051908152f35b503461029a57602036600319011261029a5760043590600b5482101561029a57602061117f83613d9d565b503461029a578060031936011261029a57602060ff60015460a01c166040519015158152f35b503461029a57602036600319011261029a576020906040906001600160a01b036121f9613d4b565b168152600983522054604051908152f35b503461029a578060031936011261029a576020600e54604051908152f35b503461029a578060031936011261029a576122416141d7565b60015460ff8160a01c16156122895760ff60a01b19166001556040513381527f5db9ee0a495bf2e6ff9c91a7834c1ba4fdd244a5e8aa4e537bd38aeae4b073aa90602090a180f35b60405162461bcd60e51b815260206004820152601460248201527314185d5cd8589b194e881b9bdd081c185d5cd95960621b6044820152606490fd5b50608036600319011261029a576024356004356122e0613d8e565b906064356001600160401b03811161073957612300903690600401613d61565b92909361230b61422f565b612313614283565b8215946123208615613f36565b601554821015806128c6575b15612881576123396142ca565b6040516323b872dd60e01b8152336004820152306024820152604481018590526020816064818b6001600160a01b037f0000000000000000000000000000000000000000000000000000000000000000165af1801561285957612864575b50868584612688575b6123aa91926143de565b9560328502908582046032141715612674576127109004903388526006602052828488878b60ff6005604083200154165f146125385750505050509061248c91338952600660205260408920612401878254613f82565b90553389526006602052600160408a200161241d878254613f82565b9055338952600660205283600460408b2001553389526006602052600960408a200161244a828254613f82565b90553389526006602052600860408a2001612466838254613f82565b905587612522575b61247a86600d54613f82565b600d558061250d575b50601154613f82565b6011556040519283526020830152151560408201527fc1cbd57f280cec5d8cbf34eb6cf2c94f9110898989ebfcf165eb48feb5a70a1260603392a2816124d5575b826001815580f35b60405191825260208201527f55d00caaa005dba173909c0d58c06eaccc1042b1acbca72b95a2fba46427406660403392a25f806124cd565b61251990601054613f82565b6010555f612483565b338952600660205287600760408b20015561246e565b86600a936126149695936125e6899460405198899361255685613ec6565b8085526020850190815260408501838152606086019184835260808701938452604060a08801956001875261014060c08a0199428b5260e081019b8c5261010081019c8d5261012081019d8e52019c15158d523381526006602052209c518d555160018d01555160028c01555160038b01555160048a0155511515600589019060ff801983541691151516179055565b51600687015551600786015551600885015551600984015551151591019060ff801983541691151516179055565b600b54600160401b811015612660579061265b61263d83600161248c969501600b55600b613de1565b81546001600160a01b0360039290921b91821b19163390911b179055565b61246e565b634e487b7160e01b89526041600452602489fd5b634e487b7160e01b88526011600452602488fd5b50506003546040516331d98b3f60e01b81525f51602061469b5f395f51905f52600482015290608090829060249082906001600160a01b03165afa908115612859578891612837575b5060070b6126e0888213614496565b613a988502858104613a98148817156128235761271090046305f5e1008102908082046305f5e1001490151715612823579061271b91613fdd565b8034106127de576005546001600160a01b031688813b1561029a578083926024604051809581936304f7b68560e31b83528160048401525af19182156127d15788926127b4575b50506123aa91338a52600960205260408a2061277f828254613f82565b90556040518181527fc7c3686ffceb4f47f74b6b5907d35e0a235d925f32fcd0df55f3ab637c48abcd60203392a291506123a0565b819250906127c191613efd565b6127cd5785885f612762565b8780fd5b50604051903d90823e3d90fd5b60405162461bcd60e51b815260206004820152601b60248201527f496e73756666696369656e742042544320636f6c6c61746572616c00000000006044820152606490fd5b634e487b7160e01b89526011600452602489fd5b612850915060803d60801161151a576115088183613efd565b5050505f6126d1565b6040513d8a823e3d90fd5b61287c9060203d60201161063c5761062f8183613efd565b612397565b60405162461bcd60e51b815260206004820152601860248201527f415059206f7574206f6620616c6c6f7765642072616e676500000000000000006044820152606490fd5b5060165482111561232c565b50608036600319011261098857600435906024356001600160401b03811161098857612902903690600401613d61565b919061290c613d8e565b936064356001600160401b0381116109885761292c903690600401613d61565b9261293561422f565b61293d614283565b82159561294a8715613f36565b600d54841161377357335f52600760205260ff600460405f2001541661372f5761297b916129766142ca565b6143de565b945f96613572575b5033845260086020526040842092633b9aca0083116131c657600b5491839086805b85811061314057506129b6816140b2565b946129c46040519687613efd565b818652601f196129d3836140b2565b0136602088013788895b82811061309e57505050875b818110612f94575050865b8451811080612f8b575b15612b2457866001600160a01b03612a168388614130565b5116808a52600660205289604081209160ff60058401541680612b17575b612a4b575b50505050612a4690614042565b6129f4565b82612a46959a92612ae36002936001612b0398970192835490508087115f14612b0f57965b600485018054604080516001600160a01b03861660208201529081018b90526060810191909152426080820152612abd90612ab88160a081015b03601f198101835282613efd565b614640565b905460405193612acc85613e7b565b8452896020850152604084015260608301526144d6565b612aee858254613e6e565b905501612afc838254613f82565b9055613e6e565b959050865f8981612a39565b508596612a70565b5060018301541515612a34565b5094919692509496925b612f475784612b3c9161454b565b9062278d00420180421161267457612bf7886007891515809786612bd560405195612b6687613eaa565b8d8752602087018b81526040880142815260608901918b8352604060808b01946001865260a08c0197885260c08c0198895260e08c01998a523381528a6020522099518a555160018a0155516002890155516003880155511515600487019060ff801983541691151516179055565b51600585015551600684015551151591019060ff801983541691151516179055565b600c54600160401b8110156126605761263d816001612c1b9301600c55600c613de1565b612c2786600d54613e6e565b600d55612c3686600e54613f82565b600e55604051928684526020840152604083015260608201527f6bf587197d015e104308a9e8c9bb6d7aa5b56220889a16d07027bd4b74f2555e60803392a215612ec657612c8383613f8f565b612c906040519182613efd565b838152602081013685840111612ec257848382378560208684010152612cd56020604051809382820195518091875e810189838201520301601f198101835282613efd565b5190206040516020810190663134ba31b7b4b760c91b825260078152612cfc602782613efd565b51902003612e21576005546040516326afba0b60e11b81526004810184905285916020908290602490829086906001600160a01b03165af19081156105f6578291612dec575b506005546001600160a01b0316803b156105f25760405163b4b8a65d60e01b8152600481019290925233602483015282908290604490829084905af180156105f657612dd7575b50507f08d4a4d9f1604143d3ea4fc06f73cf77ce229b35454379643efb86a475d371e7915b612dcc60405192839283526040602084015233956040840191613faa565b0390a25b6001815580f35b81612de191613efd565b61073d57835f612d89565b9150506020813d602011612e19575b81612e0860209383613efd565b81010312610988578490515f612d42565b3d9150612dfb565b60405163a9059cbb60e01b81523360048201526024810183905291602083604481886001600160a01b037f0000000000000000000000000000000000000000000000000000000000000000165af1928315610643577f08d4a4d9f1604143d3ea4fc06f73cf77ce229b35454379643efb86a475d371e793612ea3575b50612dae565b612ebb9060203d60201161063c5761062f8183613efd565b505f612e9d565b8580fd5b5060405163a9059cbb60e01b815233600482015260248101919091529050602081604481856001600160a01b037f0000000000000000000000000000000000000000000000000000000000000000165af180156105f657612f28575b50612dd0565b612f409060203d60201161063c5761062f8183613efd565b505f612f22565b606460405162461bcd60e51b815260206004820152602060248201527f436f756c64206e6f74206d617463682066756c6c206c6f616e20616d6f756e746044820152fd5b508515156129fe565b9692889a9598999491999692965b612fac898c613e6e565b5f19810190811161308a57811015613073576001600160a01b03612fd0828c614130565b51168c526006602052600460408d200154600182019081831161171f57600460408f8e6130048660018060a01b0392614130565b5116815260066020522001541061301f575b50600101612fa2565b6001600160a01b03613031838d614130565b51169080831161171f57600192919061306c908f8e613064866001600160a01b0361305c8685614130565b511692614130565b52508d614130565b5290613016565b5092966001909a98959a99919499969296016129e9565b634e487b7160e01b8d52601160045260248dfd5b6130a781613d9d565b905460039190911b1c6001600160a01b03168b52600660205260408b206005015460ff168061310e575b6130de575b6001016129dd565b906131066001916130ee84613d9d565b848060a01b0391549060031b1c1661179e828c614130565b9190506130d6565b5061311881613d9d565b905460039190911b1c6001600160a01b03168b52600660205260408b206001015415156130d1565b61314981613d9d565b905460039190911b1c6001600160a01b031689526006602052604089206005015460ff1680613194575b613180575b6001016129a5565b9061318c600191614042565b919050613178565b5061319e81613d9d565b905460039190911b1c6001600160a01b03168952600660205260408920600101541515613173565b600b5491839086805b8581106134ec57506131e0816140b2565b946131ee6040519687613efd565b818652601f196131fd836140b2565b0136602088013788895b82811061346257505050875b818110613307575050865b84518110806132fe575b156132f057866001600160a01b036132408388614130565b5116808a52600660205289604081209160ff600584015416806132e3575b613275575b5050505061327090614042565b61321e565b82613270959a92612ae360029360016132d798970192835490508087115f14612b0f5796600485018054604080516001600160a01b03861660208201529081018b90526060810191909152426080820152612abd90612ab88160a08101612aaa565b959050865f8981613263565b506001830154151561325e565b509491969250949692612b2e565b50851515613228565b9692889a9598999491999692965b61331f898c613e6e565b5f19810190811161308a5781101561344b578b156133df576001600160a01b03613349828c614130565b51168c526006602052600460408d2001546001820180831161171f5760408e8d61337c60049460018060a01b0392614130565b511681526006602052200154105b613397575b600101613315565b6001600160a01b036133a9828c614130565b51166001820180831161171f5760019291906133d7908f8e613064866001600160a01b0361305c8685614130565b52905061338f565b6001600160a01b036133f1828c614130565b51165f526006602052600460405f20015460018201808311613437576001600160a01b0390613420908d614130565b51165f526006602052600460405f2001541161338a565b634e487b7160e01b5f52601160045260245ffd5b5092966001909a98959a9991949996929601613213565b61346b81613d9d565b905460039190911b1c6001600160a01b03168b52600660205260408b206005015460ff16806134ba575b6134a2575b600101613207565b906134b26001916130ee84613d9d565b91905061349a565b506134c481613d9d565b905460039190911b1c6001600160a01b03168b52600660205260408b20600101541515613495565b6134f581613d9d565b905460039190911b1c6001600160a01b031689526006602052604089206005015460ff1680613540575b61352c575b6001016131cf565b90613538600191614042565b919050613524565b5061354a81613d9d565b905460039190911b1c6001600160a01b0316895260066020526040892060010154151561351f565b6003546040516331d98b3f60e01b81525f51602061469b5f395f51905f526004820152929750909190608090829060249082906001600160a01b03165afa9081156136b1575f9161370d575b5060070b906135ce5f8313614496565b613a98830290838204613a98141715613437576127109004906305f5e1008202918083046305f5e10014901517156134375761360991613fdd565b8034106136bc576005546001600160a01b0316803b15610988575f82916024604051809481936304f7b68560e31b83528160048401525af180156136b15761369c575b50338452600960205260408420613664828254613f82565b90556040519081527fc7c3686ffceb4f47f74b6b5907d35e0a235d925f32fcd0df55f3ab637c48abcd60203392a2613a98945f612983565b6136a99194505f90613efd565b5f925f61364c565b6040513d5f823e3d90fd5b60405162461bcd60e51b8152602060048201526024808201527f496e73756666696369656e742042544320636f6c6c61746572616c20666f72206044820152633637b0b760e11b6064820152608490fd5b613726915060803d60801161151a576115088183613efd565b5050505f6135be565b606460405162461bcd60e51b815260206004820152602060248201527f426f72726f77657220616c72656164792068617320616374697665206c6f616e6044820152fd5b60405162461bcd60e51b815260206004820152601b60248201527f496e73756666696369656e7420706f6f6c206c697175696469747900000000006044820152606490fd5b34610988575f366003190112610988576137d061422f565b335f5260066020526137eb60ff600560405f20015416613e33565b335f526006602052600360405f200154156138c557335f818152600660209081526040808320600301805490849055905163a9059cbb60e01b81526004810194909452602484018190529291829060449082906001600160a01b037f0000000000000000000000000000000000000000000000000000000000000000165af180156136b1576138a8575b506040519081527ff9984c8173c4b4ff9cc454f76ed19c053f4490ccb224fd9ddffeb4ef4bea353060203392a260015f55005b6138c09060203d60201161063c5761062f8183613efd565b613875565b60405162461bcd60e51b81526020600482015260146024820152734e6f20696e74657265737420746f20636c61696d60601b6044820152606490fd5b34610988575f366003190112610988576020604051613a988152f35b34610988576020366003190112610988576001600160a01b0361393e613d4b565b165f52600660205261016060405f2080549060018101549060028101546003820154600483015460ff60058501541660068501549160078601549360088701549560ff600a60098a015499015416986040519a8b5260208b015260408a015260608901526080880152151560a087015260c086015260e08501526101008401526101208301521515610140820152f35b34610988575f3660031901126109885760606012546013546014549060405192835260208301526040820152f35b34610988575f366003190112610988576040517f00000000000000000000000000000000000000000000000000000000000000006001600160a01b03168152602090f35b3461098857602036600319011261098857600435613a5c61422f565b335f526006602052613a7760ff600560405f20015416613e33565b335f52600660205280600160405f20015410613cc157335f526006602052600160405f2001613aa7828254613e6e565b9055335f52600660205260405f20613ac0828254613e6e565b9055613ace81600d54613e6e565b600d55335f526006602052600160405f2001541580613caa575b80613c93575b613b9b575b60405163a9059cbb60e01b8152336004820152602481018290526020816044815f6001600160a01b037f0000000000000000000000000000000000000000000000000000000000000000165af180156136b157613b7e575b506040519081527fb1cce8684b4ffa8667b4577654e61ee3480d661ee9c27522ac80e211f6bd4d2560203392a260015f55005b613b969060203d60201161063c5761062f8183613efd565b613b4b565b335f526006602052600560405f200160ff1981541690555f5b600b549081811015613c8c57613bc981613d9d565b905460039190911b1c6001600160a01b03163314613beb576001915001613bb4565b5f19820191821161343757613c1d613c05613c4193613d9d565b905460039190911b1c6001600160a01b031691613d9d565b81546001600160a01b0393841660039290921b91821b9390911b1916919091179055565b600b548015613c78575f1901613c70613c5b82600b613de1565b81549060018060a01b039060031b1b19169055565b600b55613af3565b634e487b7160e01b5f52603160045260245ffd5b5050613af3565b50335f526006602052600360405f20015415613aee565b50335f526006602052600260405f20015415613ae8565b606460405162461bcd60e51b815260206004820152602060248201527f496e73756666696369656e7420617661696c61626c65206c69717569646974796044820152fd5b3461098857606036600319011261098857613d1e6141d7565b600435601255602435601355604435601455005b34610988575f3660031901126109885780603260209252f35b600435906001600160a01b038216820361098857565b9181601f84011215610988578235916001600160401b038311610988576020838186019501011161098857565b60443590811515820361098857565b600b54811015613db557600b5f5260205f2001905f90565b634e487b7160e01b5f52603260045260245ffd5b600c54811015613db557600c5f5260205f2001905f90565b8054821015613db5575f5260205f2001905f90565b805180835260209291819084018484015e5f828201840152601f01601f1916010190565b8054821015613db5575f5260205f209060021b01905f90565b15613e3a57565b60405162461bcd60e51b815260206004820152600c60248201526b2737ba1030903632b73232b960a11b6044820152606490fd5b9190820391821161343757565b608081019081106001600160401b03821117613e9657604052565b634e487b7160e01b5f52604160045260245ffd5b61010081019081106001600160401b03821117613e9657604052565b61016081019081106001600160401b03821117613e9657604052565b606081019081106001600160401b03821117613e9657604052565b90601f801991011681019081106001600160401b03821117613e9657604052565b90816020910312610988575180151581036109885790565b15613f3d57565b60405162461bcd60e51b815260206004820152601d60248201527f416d6f756e74206d7573742062652067726561746572207468616e20300000006044820152606490fd5b9190820180921161343757565b6001600160401b038111613e9657601f01601f191660200190565b908060209392818452848401375f828201840152601f01601f1916010190565b8181029291811591840414171561343757565b8115613fe7570490565b634e487b7160e01b5f52601260045260245ffd5b91908260809103126109885781518060070b8103610988579160208101516001600160401b0381168103610988579160408201518060030b81036109885760609092015190565b5f1981146134375760010190565b602081830312610988578051906001600160401b038211610988570181601f820112156109885780519061408382613f8f565b926140916040519485613efd565b8284526020838301011161098857815f9260208093018386015e8301015290565b6001600160401b038111613e965760051b60200190565b906140d3826140b2565b6140e06040519182613efd565b82815280926140f1601f19916140b2565b01905f5b82811061410157505050565b60209060405161411081613e7b565b5f81525f838201525f60408201525f6060820152828285010152016140f5565b8051821015613db55760209160051b010190565b1561414b57565b60405162461bcd60e51b815260206004820152600e60248201526d27379030b1ba34bb32903637b0b760911b6044820152606490fd5b8054905f815581614190575050565b6001600160fe1b0382168203613437575f5260205f209060021b8101905b8181106141b9575050565b805f600492555f60018201555f60028201555f6003820155016141ae565b6001546001600160a01b031633036141eb57565b606460405162461bcd60e51b815260206004820152602060248201527f4f776e61626c653a2063616c6c6572206973206e6f7420746865206f776e65726044820152fd5b60025f541461423e5760025f55565b60405162461bcd60e51b815260206004820152601f60248201527f5265656e7472616e637947756172643a207265656e7472616e742063616c6c006044820152606490fd5b60ff60015460a01c1661429257565b60405162461bcd60e51b815260206004820152601060248201526f14185d5cd8589b194e881c185d5cd95960821b6044820152606490fd5b6003546014546040516020926001600160a01b031691906142eb8482613efd565b5f8152823b15610988579290604051938492631df3cbc560e31b845260248401816004860152825180915260448501918060448360051b8801019401925f905b8382106143545750505050505f939183809203925af16143485750565b5f61435291613efd565b565b9180809597985061437360019395976043198d82030186528951613df6565b970192019201889695949293919361432b565b1561438d57565b60405162461bcd60e51b815260206004820152602360248201527f496e73756666696369656e742066656520666f722057616c7275732073746f7260448201526261676560e81b6064820152608490fd5b9080156144905761442c9160209147906143fd60125480931015614386565b60018060a01b03600454169160405180968195829463bce2dad960e01b84528860048501526024840191613faa565b03925af15f918161445c575b5061444257505f90565b805f52600a60205260405f20600160ff1982541617905590565b9091506020813d602011614488575b8161447860209383613efd565b810103126109885751905f614438565b3d915061446b565b50505f90565b1561449d57565b60405162461bcd60e51b8152602060048201526011602482015270496e76616c69642042544320707269636560781b6044820152606490fd5b8054600160401b811015613e96576144f391600182018155613e1a565b91909161453857805182546001600160a01b0319166001600160a01b039190911617825560208101516001830155604081015160028301556060015160039190910155565b634e487b7160e01b5f525f60045260245ffd5b9190825480156145a7575f905f905b80821061457157505061456e929350613fdd565b90565b909161459f60019161157e83614587878b613e1a565b5001546002614596888c613e1a565b50015490613fca565b92019061455a565b505f925050565b5f5b600c548082101561463b576145c482613dc9565b905460039190911b1c6001600160a01b03908116908416146145e957506001016145b0565b5f1981019250821161343757613c1d61460461461c93613dc9565b905460039190911b1c6001600160a01b031691613dc9565b600c548015613c78575f1901614636613c5b82600c613de1565b600c55565b505050565b80511561469557602061467f914761465d60125480921015614386565b60405180809581946381457f0f60e01b83528660048401526024830190613df6565b0391305af15f918161445c575061444257505f90565b505f9056fee62df6c8b4a85fe1a67db44dc12de5db330f7ac66b72dc658afedf0f4a415b43a26469706673582212201f588ff45646b7a4450c2076db7ff4ddc0bd94c7be33635333683bad100c4ffa64736f6c634300081e0033","linkReferences":{}},"methodIdentifiers":{"BASIS_POINTS()":"e1f1c4a7","BTC_COLLATERAL_RATIO()":"2ddb0c4f","BTC_PRICE_ID()":"f3ca6450","LOAN_DURATION()":"e02a4dfd","USDC_PRICE_ID()":"fb071758","WALRUS_REWARD_RATE()":"074d34fd","WHALE_THRESHOLD()":"f47790d6","addLiquidity(uint256,uint256,bool,bytes)":"3ce74f5f","borrowerList(uint256)":"b3a66524","borrowerLoans(address,uint256)":"e3ed1902","borrowers(address)":"bf5d50c4","btcCollaterals(address)":"49e71742","claimInterest()":"35981fd8","claimWalrusRewards()":"cca5e1b0","emergencyWithdraw(address,uint256)":"95ccea67","getBorrowerDetails(address)":"e52bdbe2","getLenderDetails(address)":"89ff2029","getPoolStatus()":"7f79496c","getProtocolMetrics()":"eb1d13b0","lenderList(uint256)":"6085c7df","lenders(address)":"28fd10d7","liquidateLoan(address)":"bbdfa00e","maxAPY()":"e49eaee0","minAPY()":"6a31db18","owner()":"8da5cb5b","pause()":"8456cb59","paused()":"5c975abb","protocolFees()":"1ad8b03b","pythOracle()":"f5d6ac90","renounceOwnership()":"715018a6","repayLoan()":"f966ade7","requestLoan(uint256,bytes,bool,string)":"36e27116","retrieveLenderData(address)":"ade9f5ab","retrieveLoanDocument(address)":"dd647594","rootstockBridge()":"db78bf32","simulateLoan(uint256,bool)":"b383bde7","storeDataWrapper(bytes)":"81457f0f","storedBlobs(bytes32)":"c715ad45","totalAvailableLiquidity()":"735d80e3","totalBTCCollateral()":"826755d2","totalInterestEarned()":"b7d93f34","totalLentAmount()":"43f7f740","totalWalrusRewards()":"9f9fa715","transferOwnership(address)":"f2fde38b","unpause()":"3f4ba83a","updateAPYRange()":"7c1578d8","updateProtocolContracts(address,address,address,address)":"f6cb5bef","updateProtocolFees(uint256,uint256,uint256)":"08319b92","usdcToken()":"11eac855","walrusStorage()":"839ddb8b","walrusToken()":"8b03a160","withdrawLiquidity(uint256)":"0a861f2a"},"id":0}