{"abi":[{"type":"constructor","inputs":[{"name":"_usdcToken","type":"address","internalType":"address"},{"name":"_pythOracle","type":"address","internalType":"address"},{"name":"_walrusStorage","type":"address","internalType":"address"},{"name":"_walrusToken","type":"address","internalType":"address"},{"name":"_rootstockBridge","type":"address","internalType":"address"},{"name":"_makerPot","type":"address","internalType":"address"},{"name":"_aavePool","type":"address","internalType":"address"}],"stateMutability":"nonpayable"},{"type":"receive","stateMutability":"payable"},{"type":"function","name":"BASIS_POINTS","inputs":[],"outputs":[{"name":"","type":"uint256","internalType":"uint256"}],"stateMutability":"view"},{"type":"function","name":"BTC_COLLATERAL_RATIO","inputs":[],"outputs":[{"name":"","type":"uint256","internalType":"uint256"}],"stateMutability":"view"},{"type":"function","name":"BTC_PRICE_ID","inputs":[],"outputs":[{"name":"","type":"bytes32","internalType":"bytes32"}],"stateMutability":"view"},{"type":"function","name":"EWMA_ALPHA","inputs":[],"outputs":[{"name":"","type":"uint256","internalType":"uint256"}],"stateMutability":"view"},{"type":"function","name":"LOAN_DURATION","inputs":[],"outputs":[{"name":"","type":"uint256","internalType":"uint256"}],"stateMutability":"view"},{"type":"function","name":"RAY","inputs":[],"outputs":[{"name":"","type":"uint256","internalType":"uint256"}],"stateMutability":"view"},{"type":"function","name":"SECONDS_PER_YEAR","inputs":[],"outputs":[{"name":"","type":"uint256","internalType":"uint256"}],"stateMutability":"view"},{"type":"function","name":"USDC_PRICE_ID","inputs":[],"outputs":[{"name":"","type":"bytes32","internalType":"bytes32"}],"stateMutability":"view"},{"type":"function","name":"WALRUS_REWARD_RATE","inputs":[],"outputs":[{"name":"","type":"uint256","internalType":"uint256"}],"stateMutability":"view"},{"type":"function","name":"WHALE_THRESHOLD","inputs":[],"outputs":[{"name":"","type":"uint256","internalType":"uint256"}],"stateMutability":"view"},{"type":"function","name":"aavePool","inputs":[],"outputs":[{"name":"","type":"address","internalType":"contract IAaveV3Pool"}],"stateMutability":"view"},{"type":"function","name":"addLiquidity","inputs":[{"name":"amount","type":"uint256","internalType":"uint256"},{"name":"fixedAPY","type":"uint256","internalType":"uint256"},{"name":"useBitcoinCollateral","type":"bool","internalType":"bool"},{"name":"lenderMetadata","type":"bytes","internalType":"bytes"}],"outputs":[],"stateMutability":"payable"},{"type":"function","name":"borrowerList","inputs":[{"name":"","type":"uint256","internalType":"uint256"}],"outputs":[{"name":"","type":"address","internalType":"address"}],"stateMutability":"view"},{"type":"function","name":"borrowerLoans","inputs":[{"name":"","type":"address","internalType":"address"},{"name":"","type":"uint256","internalType":"uint256"}],"outputs":[{"name":"lender","type":"address","internalType":"address"},{"name":"amount","type":"uint256","internalType":"uint256"},{"name":"apy","type":"uint256","internalType":"uint256"},{"name":"chunkDataBlob","type":"bytes32","internalType":"bytes32"}],"stateMutability":"view"},{"type":"function","name":"borrowers","inputs":[{"name":"","type":"address","internalType":"address"}],"outputs":[{"name":"amount","type":"uint256","internalType":"uint256"},{"name":"weightedAPY","type":"uint256","internalType":"uint256"},{"name":"timestamp","type":"uint256","internalType":"uint256"},{"name":"dueDate","type":"uint256","internalType":"uint256"},{"name":"active","type":"bool","internalType":"bool"},{"name":"loanDocumentBlob","type":"bytes32","internalType":"bytes32"},{"name":"btcCollateralRatio","type":"uint256","internalType":"uint256"},{"name":"crossChainLoan","type":"bool","internalType":"bool"}],"stateMutability":"view"},{"type":"function","name":"btcCollaterals","inputs":[{"name":"","type":"address","internalType":"address"}],"outputs":[{"name":"","type":"uint256","internalType":"uint256"}],"stateMutability":"view"},{"type":"function","name":"claimInterest","inputs":[],"outputs":[],"stateMutability":"nonpayable"},{"type":"function","name":"claimWalrusRewards","inputs":[],"outputs":[],"stateMutability":"nonpayable"},{"type":"function","name":"emergencyWithdraw","inputs":[{"name":"token","type":"address","internalType":"address"},{"name":"amount","type":"uint256","internalType":"uint256"}],"outputs":[],"stateMutability":"nonpayable"},{"type":"function","name":"getBorrowerDetails","inputs":[{"name":"borrower","type":"address","internalType":"address"}],"outputs":[{"name":"amount","type":"uint256","internalType":"uint256"},{"name":"weightedAPY","type":"uint256","internalType":"uint256"},{"name":"timestamp","type":"uint256","internalType":"uint256"},{"name":"dueDate","type":"uint256","internalType":"uint256"},{"name":"active","type":"bool","internalType":"bool"},{"name":"loanDocumentBlob","type":"bytes32","internalType":"bytes32"},{"name":"btcCollateralRatio","type":"uint256","internalType":"uint256"},{"name":"crossChainLoan","type":"bool","internalType":"bool"},{"name":"currentRepaymentAmount","type":"uint256","internalType":"uint256"}],"stateMutability":"view"},{"type":"function","name":"getBorrowerList","inputs":[],"outputs":[{"name":"","type":"address[]","internalType":"address[]"}],"stateMutability":"view"},{"type":"function","name":"getBorrowerLoanChunks","inputs":[{"name":"borrower","type":"address","internalType":"address"}],"outputs":[{"name":"","type":"tuple[]","internalType":"struct LendingPoolIntegrated.LoanChunk[]","components":[{"name":"lender","type":"address","internalType":"address"},{"name":"amount","type":"uint256","internalType":"uint256"},{"name":"apy","type":"uint256","internalType":"uint256"},{"name":"chunkDataBlob","type":"bytes32","internalType":"bytes32"}]}],"stateMutability":"view"},{"type":"function","name":"getLenderDetails","inputs":[{"name":"lender","type":"address","internalType":"address"}],"outputs":[{"name":"totalDeposited","type":"uint256","internalType":"uint256"},{"name":"availableAmount","type":"uint256","internalType":"uint256"},{"name":"lentAmount","type":"uint256","internalType":"uint256"},{"name":"earnedInterest","type":"uint256","internalType":"uint256"},{"name":"fixedAPY","type":"uint256","internalType":"uint256"},{"name":"active","type":"bool","internalType":"bool"},{"name":"walrusRewards","type":"uint256","internalType":"uint256"},{"name":"btcCollateral","type":"uint256","internalType":"uint256"},{"name":"isBitcoinLender","type":"bool","internalType":"bool"},{"name":"lenderDataBlob","type":"bytes32","internalType":"bytes32"}],"stateMutability":"view"},{"type":"function","name":"getPoolStatus","inputs":[],"outputs":[{"name":"totalAvailable","type":"uint256","internalType":"uint256"},{"name":"totalLent","type":"uint256","internalType":"uint256"},{"name":"activeLenders","type":"uint256","internalType":"uint256"},{"name":"activeBorrowers","type":"uint256","internalType":"uint256"},{"name":"averageAPY","type":"uint256","internalType":"uint256"},{"name":"totalInterest","type":"uint256","internalType":"uint256"},{"name":"totalBTCLocked","type":"uint256","internalType":"uint256"},{"name":"totalWalrusRewardsPool","type":"uint256","internalType":"uint256"},{"name":"crossChainLoans","type":"uint256","internalType":"uint256"}],"stateMutability":"view"},{"type":"function","name":"getProtocolMetrics","inputs":[],"outputs":[{"name":"totalWalrusDataStored","type":"uint256","internalType":"uint256"},{"name":"totalBTCCollateralLocked","type":"uint256","internalType":"uint256"},{"name":"availableWalrusRewards","type":"uint256","internalType":"uint256"},{"name":"currentFees","type":"tuple","internalType":"struct LendingPoolIntegrated.ProtocolFees","components":[{"name":"walrusStorageFee","type":"uint256","internalType":"uint256"},{"name":"rootstockBridgeFee","type":"uint256","internalType":"uint256"},{"name":"pythUpdateFee","type":"uint256","internalType":"uint256"}]},{"name":"contractUSDCBalance","type":"uint256","internalType":"uint256"},{"name":"contractETHBalance","type":"uint256","internalType":"uint256"}],"stateMutability":"view"},{"type":"function","name":"getStableAPY","inputs":[],"outputs":[{"name":"","type":"uint256","internalType":"uint256"}],"stateMutability":"view"},{"type":"function","name":"lastUpdateTime","inputs":[],"outputs":[{"name":"","type":"uint256","internalType":"uint256"}],"stateMutability":"view"},{"type":"function","name":"lenderList","inputs":[{"name":"","type":"uint256","internalType":"uint256"}],"outputs":[{"name":"","type":"address","internalType":"address"}],"stateMutability":"view"},{"type":"function","name":"lenders","inputs":[{"name":"","type":"address","internalType":"address"}],"outputs":[{"name":"totalDeposited","type":"uint256","internalType":"uint256"},{"name":"availableAmount","type":"uint256","internalType":"uint256"},{"name":"lentAmount","type":"uint256","internalType":"uint256"},{"name":"earnedInterest","type":"uint256","internalType":"uint256"},{"name":"fixedAPY","type":"uint256","internalType":"uint256"},{"name":"active","type":"bool","internalType":"bool"},{"name":"timestamp","type":"uint256","internalType":"uint256"},{"name":"lenderDataBlob","type":"bytes32","internalType":"bytes32"},{"name":"walrusRewards","type":"uint256","internalType":"uint256"},{"name":"btcCollateral","type":"uint256","internalType":"uint256"},{"name":"isBitcoinLender","type":"bool","internalType":"bool"}],"stateMutability":"view"},{"type":"function","name":"liquidateLoan","inputs":[{"name":"borrowerAddr","type":"address","internalType":"address"}],"outputs":[],"stateMutability":"nonpayable"},{"type":"function","name":"maxAPY","inputs":[],"outputs":[{"name":"","type":"uint256","internalType":"uint256"}],"stateMutability":"view"},{"type":"function","name":"minAPY","inputs":[],"outputs":[{"name":"","type":"uint256","internalType":"uint256"}],"stateMutability":"view"},{"type":"function","name":"owner","inputs":[],"outputs":[{"name":"","type":"address","internalType":"address"}],"stateMutability":"view"},{"type":"function","name":"pause","inputs":[],"outputs":[],"stateMutability":"nonpayable"},{"type":"function","name":"paused","inputs":[],"outputs":[{"name":"","type":"bool","internalType":"bool"}],"stateMutability":"view"},{"type":"function","name":"pot","inputs":[],"outputs":[{"name":"","type":"address","internalType":"contract IPot"}],"stateMutability":"view"},{"type":"function","name":"protocolFees","inputs":[],"outputs":[{"name":"walrusStorageFee","type":"uint256","internalType":"uint256"},{"name":"rootstockBridgeFee","type":"uint256","internalType":"uint256"},{"name":"pythUpdateFee","type":"uint256","internalType":"uint256"}],"stateMutability":"view"},{"type":"function","name":"pythOracle","inputs":[],"outputs":[{"name":"","type":"address","internalType":"contract IPythOracle"}],"stateMutability":"view"},{"type":"function","name":"renounceOwnership","inputs":[],"outputs":[],"stateMutability":"nonpayable"},{"type":"function","name":"repayLoan","inputs":[],"outputs":[],"stateMutability":"nonpayable"},{"type":"function","name":"requestLoan","inputs":[{"name":"amount","type":"uint256","internalType":"uint256"},{"name":"loanDocument","type":"bytes","internalType":"bytes"},{"name":"requireBTCCollateral","type":"bool","internalType":"bool"},{"name":"targetChain","type":"string","internalType":"string"}],"outputs":[],"stateMutability":"payable"},{"type":"function","name":"retrieveLenderData","inputs":[{"name":"lender","type":"address","internalType":"address"}],"outputs":[{"name":"","type":"bytes","internalType":"bytes"}],"stateMutability":"view"},{"type":"function","name":"retrieveLoanDocument","inputs":[{"name":"borrower","type":"address","internalType":"address"}],"outputs":[{"name":"","type":"bytes","internalType":"bytes"}],"stateMutability":"view"},{"type":"function","name":"rootstockBridge","inputs":[],"outputs":[{"name":"","type":"address","internalType":"contract IRootstockBridge"}],"stateMutability":"view"},{"type":"function","name":"simulateLoan","inputs":[{"name":"amount","type":"uint256","internalType":"uint256"},{"name":"requireBTCCollateral","type":"bool","internalType":"bool"}],"outputs":[{"name":"chunks","type":"tuple[]","internalType":"struct LendingPoolIntegrated.LoanChunk[]","components":[{"name":"lender","type":"address","internalType":"address"},{"name":"amount","type":"uint256","internalType":"uint256"},{"name":"apy","type":"uint256","internalType":"uint256"},{"name":"chunkDataBlob","type":"bytes32","internalType":"bytes32"}]},{"name":"weightedAPY","type":"uint256","internalType":"uint256"},{"name":"requiredBTCCollateral","type":"uint256","internalType":"uint256"},{"name":"estimatedWalrusStorageCost","type":"uint256","internalType":"uint256"}],"stateMutability":"view"},{"type":"function","name":"smoothedAPY","inputs":[],"outputs":[{"name":"","type":"uint256","internalType":"uint256"}],"stateMutability":"view"},{"type":"function","name":"storeDataWrapper","inputs":[{"name":"data","type":"bytes","internalType":"bytes"}],"outputs":[{"name":"","type":"bytes32","internalType":"bytes32"}],"stateMutability":"payable"},{"type":"function","name":"storedBlobs","inputs":[{"name":"","type":"bytes32","internalType":"bytes32"}],"outputs":[{"name":"","type":"bool","internalType":"bool"}],"stateMutability":"view"},{"type":"function","name":"totalAvailableLiquidity","inputs":[],"outputs":[{"name":"","type":"uint256","internalType":"uint256"}],"stateMutability":"view"},{"type":"function","name":"totalBTCCollateral","inputs":[],"outputs":[{"name":"","type":"uint256","internalType":"uint256"}],"stateMutability":"view"},{"type":"function","name":"totalInterestEarned","inputs":[],"outputs":[{"name":"","type":"uint256","internalType":"uint256"}],"stateMutability":"view"},{"type":"function","name":"totalLentAmount","inputs":[],"outputs":[{"name":"","type":"uint256","internalType":"uint256"}],"stateMutability":"view"},{"type":"function","name":"totalWalrusRewards","inputs":[],"outputs":[{"name":"","type":"uint256","internalType":"uint256"}],"stateMutability":"view"},{"type":"function","name":"transferOwnership","inputs":[{"name":"newOwner","type":"address","internalType":"address"}],"outputs":[],"stateMutability":"nonpayable"},{"type":"function","name":"unpause","inputs":[],"outputs":[],"stateMutability":"nonpayable"},{"type":"function","name":"updateAPYRange","inputs":[],"outputs":[],"stateMutability":"nonpayable"},{"type":"function","name":"updateProtocolContracts","inputs":[{"name":"_pythOracle","type":"address","internalType":"address"},{"name":"_walrusStorage","type":"address","internalType":"address"},{"name":"_walrusToken","type":"address","internalType":"address"},{"name":"_rootstockBridge","type":"address","internalType":"address"}],"outputs":[],"stateMutability":"nonpayable"},{"type":"function","name":"updateProtocolFees","inputs":[{"name":"_walrusStorageFee","type":"uint256","internalType":"uint256"},{"name":"_rootstockBridgeFee","type":"uint256","internalType":"uint256"},{"name":"_pythUpdateFee","type":"uint256","internalType":"uint256"}],"outputs":[],"stateMutability":"nonpayable"},{"type":"function","name":"updateStableAPY","inputs":[],"outputs":[{"name":"","type":"uint256","internalType":"uint256"}],"stateMutability":"nonpayable"},{"type":"function","name":"usdcToken","inputs":[],"outputs":[{"name":"","type":"address","internalType":"contract IERC20"}],"stateMutability":"view"},{"type":"function","name":"walrusStorage","inputs":[],"outputs":[{"name":"","type":"address","internalType":"contract IWalrusStorage"}],"stateMutability":"view"},{"type":"function","name":"walrusToken","inputs":[],"outputs":[{"name":"","type":"address","internalType":"contract IWalrusToken"}],"stateMutability":"view"},{"type":"function","name":"withdrawLiquidity","inputs":[{"name":"amount","type":"uint256","internalType":"uint256"}],"outputs":[],"stateMutability":"nonpayable"},{"type":"event","name":"BTCCollateralAdded","inputs":[{"name":"user","type":"address","indexed":true,"internalType":"address"},{"name":"amount","type":"uint256","indexed":false,"internalType":"uint256"}],"anonymous":false},{"type":"event","name":"BorrowerMatched","inputs":[{"name":"borrower","type":"address","indexed":true,"internalType":"address"},{"name":"amount","type":"uint256","indexed":false,"internalType":"uint256"},{"name":"weightedAPY","type":"uint256","indexed":false,"internalType":"uint256"},{"name":"dueDate","type":"uint256","indexed":false,"internalType":"uint256"},{"name":"documentBlob","type":"bytes32","indexed":false,"internalType":"bytes32"}],"anonymous":false},{"type":"event","name":"CrossChainLoanExecuted","inputs":[{"name":"borrower","type":"address","indexed":true,"internalType":"address"},{"name":"amount","type":"uint256","indexed":false,"internalType":"uint256"},{"name":"targetChain","type":"string","indexed":false,"internalType":"string"}],"anonymous":false},{"type":"event","name":"InterestClaimed","inputs":[{"name":"lender","type":"address","indexed":true,"internalType":"address"},{"name":"interest","type":"uint256","indexed":false,"internalType":"uint256"}],"anonymous":false},{"type":"event","name":"LenderAdded","inputs":[{"name":"lender","type":"address","indexed":true,"internalType":"address"},{"name":"amount","type":"uint256","indexed":false,"internalType":"uint256"},{"name":"apy","type":"uint256","indexed":false,"internalType":"uint256"},{"name":"isBitcoinBacked","type":"bool","indexed":false,"internalType":"bool"}],"anonymous":false},{"type":"event","name":"LiquidityWithdrawn","inputs":[{"name":"lender","type":"address","indexed":true,"internalType":"address"},{"name":"amount","type":"uint256","indexed":false,"internalType":"uint256"}],"anonymous":false},{"type":"event","name":"LoanLiquidated","inputs":[{"name":"borrower","type":"address","indexed":true,"internalType":"address"},{"name":"amount","type":"uint256","indexed":false,"internalType":"uint256"}],"anonymous":false},{"type":"event","name":"LoanRepaid","inputs":[{"name":"borrower","type":"address","indexed":true,"internalType":"address"},{"name":"principal","type":"uint256","indexed":false,"internalType":"uint256"},{"name":"interest","type":"uint256","indexed":false,"internalType":"uint256"}],"anonymous":false},{"type":"event","name":"OwnershipTransferred","inputs":[{"name":"previousOwner","type":"address","indexed":true,"internalType":"address"},{"name":"newOwner","type":"address","indexed":true,"internalType":"address"}],"anonymous":false},{"type":"event","name":"Paused","inputs":[{"name":"account","type":"address","indexed":false,"internalType":"address"}],"anonymous":false},{"type":"event","name":"Unpaused","inputs":[{"name":"account","type":"address","indexed":false,"internalType":"address"}],"anonymous":false},{"type":"event","name":"WalrusDataStored","inputs":[{"name":"user","type":"address","indexed":true,"internalType":"address"},{"name":"blobId","type":"bytes32","indexed":false,"internalType":"bytes32"},{"name":"size","type":"uint256","indexed":false,"internalType":"uint256"}],"anonymous":false},{"type":"event","name":"WalrusRewardsClaimed","inputs":[{"name":"user","type":"address","indexed":true,"internalType":"address"},{"name":"amount","type":"uint256","indexed":false,"internalType":"uint256"}],"anonymous":false}],"bytecode":{"object":"0x60a06040523461020a57604051601f61517b38819003918201601f19168301916001600160401b038311848410176101f65780849260e09460405283398101031261020a5761004d8161020e565b9061005a6020820161020e565b6100666040830161020e565b6100726060840161020e565b9061007f6080850161020e565b9261009860c061009160a0880161020e565b960161020e565b9560015f556001543360018060a01b0382167f8be0079c531659141344cd1fd0a4f28419497f9722a3daafe3b4186f6b6457e05f80a36001600160a81b0319163360ff60a01b19161760015560646019556107d0601a556001600160a01b03908116608052600380546001600160a01b031990811693831693909317905560048054831693821693909317909255600280548216938316939093179092556005805483169382169390931790925560068054821693831693909317909255600780549092169216919091179055604051606081016001600160401b038111828210176101f65760649160409182526103e88152611388602082015201526103e86016556113886017556064601855604051614f58908161022382396080518181816103dd015281816109470152818161263401528181613117015281816131bf01528181613b0f01528181613c680152818161403801526141450152f35b634e487b7160e01b5f52604160045260245ffd5b5f80fd5b51906001600160a01b038216820361020a5756fe608080604052600436101561001c575b50361561001a575f80fd5b005b5f905f3560e01c908163074d34fd146143595750806308319b921461432c5780630a861f2a1461406757806311eac855146140235780631ad8b03b14613ff55780631e14101114613fd857806328fd10d714613f275780632ddb0c4f14613f0b5780632f7fe90414613bc957806335981fd814613a7757806336e2711614612b9b5780633ce74f5f1461258f5780633f4ba83a146124f257806343f7f740146124d457806349e717421461249b5780634ba2363a14612472578063552033c41461244c5780635c975abb146124265780636085c7df146123fb5780636a31db18146123dd578063715018a61461238057806372f6b20b146122b8578063735d80e31461229a57806379deeceb146121de5780637c1578d8146120125780637f79496c14611e6657806381457f0f14611d60578063826755d214611d42578063839ddb8b14611d195780638456cb5914611cb657806389ff202914611bbd5780638b03a16014611b945780638d0904c314611b765780638da5cb5b14611b4d57806395ccea6714611a7b5780639f9fa71514611a5d578063a03e4bc314611a34578063ade9f5ab14611965578063b383bde714611271578063b3a665241461122d578063b7d93f341461120f578063bbdfa00e14611020578063bf5d50c414610f8f578063c152b97a14610f6c578063c715ad4514610f3d578063c8f33c9114610f1f578063cca5e1b014610d69578063db78bf3214610d40578063dd64759414610c3a578063e02a4dfd14610c1c578063e1f1c4a714610bff578063e3ed190214610b83578063e49eaee014610b65578063e52bdbe214610a37578063e6a69ab814610a18578063eb1d13b0146108f3578063f2fde38b1461082a578063f3ca645014610802578063f47790d6146107e3578063f5d6ac90146107ba578063f6cb5bef146106c7578063f966ade7146103165763fb0717580361000f573461031357806003193601126103135760206040517feaa020c61cc479712813461ce153894a96a6c00b21ed0cfc2798d1f9a9e9c94a8152f35b80fd5b503461031357806003193601126103135761032f6148b5565b338152600b60205261034a60ff6004604084200154166147ca565b338152600b60205260408120338252600c60205260408220908054906103d860206103aa6103a364496cebb80061039c600187015461039761039060028a0154426144f4565b918a614650565b614650565b0486614608565b94856144f4565b6040516323b872dd60e01b815233600482015230602482015260448101959095529391829081906064820190565b0381887f00000000000000000000000000000000000000000000000000000000000000006001600160a01b03165af180156106bc5761068f575b50835b83548110156105055761042881856144a0565b506001808060a01b038254169101805461044d6104458288614650565b865490614663565b90838952600a602052610468600160408b2001918254614608565b90558154838952600a602052610486600260408b20019182546144f4565b9055828852600a6020526104a2600360408a2001918254614608565b905554600a810290808204600a14901517156104f157600192916127106104e89204908852600a602052600860408920016104de828254614608565b9055601554614608565b60155501610415565b634e487b7160e01b87526011600452602487fd5b848383600681015415158061067a575b6105de575b6105278154601154614608565b60115561053781546012546144f4565b60125561054682601354614608565b601355338352600b6020526105876040842060075f918281558260018201558260028201558260038201558260048201558260058201558260068201550155565b338352600c60205261059b60408420614807565b6105a433614cfb565b549060405191825260208201527fc7ce0a35f17b490de2a317e7fecb2cae86b1abffb03800b2f49282352138269860403392a26001815580f35b338352600d602052826040812054338252600d602052816040812055610606816014546144f4565b6014556005546001600160a01b0316803b1561066b5760405163b4b8a65d60e01b8152600481019290925233602483015282908290604490829084905af1801561066f57610656575b505061051a565b8161066091614583565b61066b57828461064f565b8280fd5b6040513d84823e3d90fd5b50338352600d60205260408320541515610515565b6106b09060203d6020116106b5575b6106a88183614583565b8101906145a4565b610412565b503d61069e565b6040513d87823e3d90fd5b5034610313576080366003190112610313576106e1614372565b6024356001600160a01b0381169081900361066b576044356001600160a01b03811691908290036107b6576064356001600160a01b03811693908490036107b25761072a61485d565b6001600160a01b031680610799575b5080610780575b5080610767575b5080610751575080f35b6001600160601b0360a01b600554161760055580f35b6001600160601b0360a01b60025416176002555f610747565b6001600160601b0360a01b60045416176004555f610740565b6001600160601b0360a01b60035416176003555f610739565b8480fd5b8380fd5b50346103135780600319360112610313576003546040516001600160a01b039091168152602090f35b50346103135780600319360112610313576020604051633b9aca008152f35b503461031357806003193601126103135760206040515f516020614f035f395f51905f528152f35b503461031357602036600319011261031357610844614372565b61084c61485d565b6001600160a01b0316801561089f57600180546001600160a01b0319811683179091556001600160a01b03167f8be0079c531659141344cd1fd0a4f28419497f9722a3daafe3b4186f6b6457e08380a380f35b60405162461bcd60e51b815260206004820152602660248201527f4f776e61626c653a206e6577206f776e657220697320746865207a65726f206160448201526564647265737360d01b6064820152608490fd5b5034610313578060031936011261031357806040805161091281614568565b828152826020820152015260145490601554604051926370a0823160e01b845230600485015260208460248160018060a01b037f0000000000000000000000000000000000000000000000000000000000000000165afa908115610a0d5783916109d3575b6101009450479260405161098a81614568565b601654815260175491602082019283526018549360408301948552604051978852602088015260408701525160608601525160808501525160a084015260c083015260e0820152f35b90506020843d602011610a05575b816109ee60209383614583565b81010312610a0157610100935190610977565b5f80fd5b3d91506109e1565b6040513d85823e3d90fd5b503461031357806003193601126103135760206040516301e133808152f35b503461031357602036600319011261031357610120906001600160a01b03610a5d614372565b168152600b60205260408120604051610a7581614530565b815492838252600183015492602083019484865260028201549060408501948286526003840154906060810191825260ff60048601541692608082019315159889855260058701549560a0840196875260ff600760068a01549960c087019a8b520154169860e085019915158a529a610b31575b5050505197519551905191511515925193519451151595604051988952602089015260408801526060870152608086015260a085015260c084015260e0830152610100820152f35b610b5c939a5064496cebb80091610397610b4e610b5593426144f4565b9185614650565b0490614608565b965f8080610ae9565b50346103135780600319360112610313576020601a54604051908152f35b503461031357604036600319011261031357610b9d614372565b6001600160a01b03168152600c6020526040812080546024359290831015610313576080610bcb84846144a0565b5060018060a01b03815416906001810154906003600282015491015491604051938452602084015260408301526060820152f35b503461031357806003193601126103135760206040516127108152f35b5034610313578060031936011261031357602060405162278d008152f35b5034610313576020366003190112610313576001600160a01b03610c5c614372565b16808252600b602052600560408320015415610cfb5760048054918352600b6020526040808420600501549051630a75ff4f60e31b815291820152908290829060249082906001600160a01b03165afa90811561066f5782610cd49392610cd8575b505060405191829160208352602083019061447c565b0390f35b610cf492503d8091833e610cec8183614583565b8101906146ed565b5f80610cbe565b60405162461bcd60e51b815260206004820152601760248201527f4e6f206c6f616e20646f63756d656e742073746f7265640000000000000000006044820152606490fd5b50346103135780600319360112610313576005546040516001600160a01b039091168152602090f35b5034610313578060031936011261031357610d826148b5565b338152600a60205260ff60056040832001541615610ee357338152600a602052600860408220015415610ea85733808252600a6020818152604080852060089081015485875293835281862001859055600254905163a9059cbb60e01b81526004810194909452602484018390529192918290604490829087906001600160a01b03165af1908115610a0d578391610e89575b5015610e4e576040519081527ffda6303d371299a136db6966e135292a2ad70da46fa71a0eeccf6246714d2f8360203392a26001815580f35b60405162461bcd60e51b815260206004820152601360248201527215d053081d1c985b9cd9995c8819985a5b1959606a1b6044820152606490fd5b610ea2915060203d6020116106b5576106a88183614583565b5f610e15565b60405162461bcd60e51b81526020600482015260136024820152724e6f207265776172647320746f20636c61696d60681b6044820152606490fd5b60405162461bcd60e51b81526020600482015260146024820152732737ba1030b71030b1ba34bb32903632b73232b960611b6044820152606490fd5b50346103135780600319360112610313576020600954604051908152f35b50346103135760203660031901126103135760ff60406020926004358152600e84522054166040519015158152f35b5034610313578060031936011261031357602060405167016345785d8a00008152f35b503461031357602036600319011261031357610100906040906001600160a01b03610fb8614372565b168152600b602052208054906001810154906002810154600382015460ff6004840154169060058401549260ff6007600687015496015416956040519788526020880152604087015260608601521515608085015260a084015260c0830152151560e0820152f35b50346103135760203660031901126103135761103a614372565b6110426148b5565b6001600160a01b038116808352600b60205260408320600401546110689060ff166147ca565b808352600b60205260036040842001544211156111d757808352600b6020526040832090808452600c6020526040842091845b83548110156110fc57806110b1600192866144a0565b5082808060a01b0382541691018054828a52600a6020526110da600260408c20019182546144f4565b905554908852600a6020526110f4604089209182546144f4565b90550161109b565b85837fd75168f1c9346a6c18eaeba0d3c95ea70b5dc2c0c280274a670c97cb8e4f415b60208561119c8a858752600d845260408720546111ab575b61114483546012546144f4565b601255858752600b84526111846040882060075f918281558260018201558260028201558260038201558260048201558260058201558260068201550155565b858752600c845261119760408820614807565b614cfb565b54604051908152a26001815580f35b858752600d84526111cf6040882054878952600d86528860408120556014546144f4565b601455611137565b60405162461bcd60e51b815260206004820152601060248201526f131bd85b881b9bdd08195e1c1a5c995960821b6044820152606490fd5b50346103135780600319360112610313576020601354604051908152f35b50346103135760203660031901126103135760043590601054821015610313576020611258836143f0565b905460405160039290921b1c6001600160a01b03168152f35b50346103135760403660031901126103135760043590602435908115158203610313578081906011548511611912576112ab600f5461474f565b9280928692633b9aca0088111591838493600f54945b85811061188c57506112d282614681565b946112e06040519687614583565b828652601f196112ef84614681565b0136602088013786875b8281106117e457505050855b82811061167057505050835b8351811080611667575b1561145b576001600160a01b0361133282866147b6565b5116808652600a6020526040862090896040519261134f8461454c565b80548452600181015490816020860152600281015460408601526003810154606086015260048101549485608082015261014060ff600a816005860154161515948560a0860152600681015460c0860152600781015460e086015260088101546101008601526009810154610120860152015416151591015280611452575b6113e5575b505050506113e0906146df565b611311565b9861143a926114298c61144096946113e0989e9d8086115f1461144a57955b6040519461141186614501565b855286602086015260408501528c60608501526147b6565b526114348a8d6147b6565b506144f4565b966146df565b96905f89816113d3565b508495611404565b508015156113ce565b509491509495919261146c8261474f565b96845b83811061163d575050816115d1575b50506114b7575b506114a393506016549060405194859460808652608086019061441d565b926020850152604084015260608301520390f35b6003546040516331d98b3f60e01b81525f516020614f035f395f51905f52600482015291929190608090829060249082906001600160a01b03165afa83918161159d575b5061150e5750506114a393505b5f611485565b60079291920b94818613611529575b50506114a39350611508565b909150613a98810290808204613a981490151715611589576127109004906305f5e1008202918083046305f5e100149015171561157557506114a39361156e91614663565b5f8061151d565b634e487b7160e01b81526011600452602490fd5b634e487b7160e01b82526011600452602482fd5b6115c091925060803d6080116115ca575b6115b88183614583565b810190614698565b505050905f6114fb565b503d6115ae565b90919450829183905b8082106115ff575050906115f16115f792886144f4565b90614663565b925f8061147e565b909261163560019161162f8a604061162689602061161d82866147b6565b510151936147b6565b51015190614650565b90614608565b9301906115da565b8061164a600192846147b6565b51611655828c6147b6565b52611660818b6147b6565b500161146f565b5085151561131b565b969097919993869b959993965b611687898d6144f4565b5f1981019081116117d0578110156117ba57600460408e8c15611768578d6116b68560018060a01b03926147b6565b51168152600a602052200154600182018083116117545760408f8e6116e460049460018060a01b03926147b6565b51168152600a602052200154105b6116ff575b60010161167d565b6001600160a01b03611711828d6147b6565b511660018201808311611754579061174c8f928e60019594868060a01b0361173984846147b6565b511661174587846147b6565b52506147b6565b5290506116f7565b634e487b7160e01b8f52601160045260248ffd5b8d61177a8560018060a01b03926147b6565b51168152600a602052200154600182018083116117545760408f8e6117a860049460018060a01b03926147b6565b51168152600a602052200154116116f2565b509399919790966001909b969399959b01611305565b634e487b7160e01b8e52601160045260248efd5b6117ed816143c4565b905460039190911b1c6001600160a01b03168952600a602052604089206005015460ff168061185a575b611824575b6001016112f9565b90611852600191611834846143c4565b848060a01b0391549060031b1c1661184c828c6147b6565b526146df565b91905061181c565b50611864816143c4565b905460039190911b1c6001600160a01b03168952600a60205260408920600101541515611817565b611895816143c4565b905460039190911b1c6001600160a01b03168752600a602052604087206005015460ff16806118e0575b6118cc575b6001016112c1565b916118d86001916146df565b9290506118c4565b506118ea816143c4565b905460039190911b1c6001600160a01b03168752600a602052604087206001015415156118bf565b60405162461bcd60e51b815260206004820152602560248201527f496e73756666696369656e74206c697175696469747920666f722073696d756c60448201526430ba34b7b760d91b6064820152608490fd5b5034610313576020366003190112610313576001600160a01b03611987614372565b16808252600a6020526007604083200154156119fe5760048054918352600a6020526040808420600701549051630a75ff4f60e31b815291820152908290829060249082906001600160a01b03165afa90811561066f5782610cd49392610cd857505060405191829160208352602083019061447c565b60405162461bcd60e51b815260206004820152600e60248201526d139bc819185d18481cdd1bdc995960921b6044820152606490fd5b50346103135780600319360112610313576007546040516001600160a01b039091168152602090f35b50346103135780600319360112610313576020601554604051908152f35b50346103135760403660031901126103135780611a96614372565b60243590611aa261485d565b6001600160a01b031680611aea5750600154829182918291906001600160a01b0316828215611ae1575bf115611ad55780f35b604051903d90823e3d90fd5b506108fc611acc565b60015460405163a9059cbb60e01b81526001600160a01b03909116600482015260248101929092529091506020908290604490829086905af1801561066f57611b31575080f35b611b499060203d6020116106b5576106a88183614583565b5080f35b50346103135780600319360112610313576001546040516001600160a01b039091168152602090f35b50346103135780600319360112610313576020600854604051908152f35b50346103135780600319360112610313576002546040516001600160a01b039091168152602090f35b503461031357602036600319011261031357610140906040906001600160a01b03611be6614372565b168152600a60205220604051611bfb8161454c565b828254928383526001810154928360208201526002820154806040830152600383015480606084015260048401549081608085015260ff6005860154161515928360a0860152600686015460c08601526007860154978860e08701526008870154958661010082015260ff600a60098a0154998a61012085015201541615159889910152604051998a5260208a015260408901526060880152608087015260a086015260c085015260e0840152610100830152610120820152f35b5034610313578060031936011261031357611ccf61485d565b611cd76149d3565b6001805460ff60a01b1916600160a01b1790556040513381527f62e78cea01bee320cd4e420270b5ea74000d11b0c9f74754ebdbfc544b05a25890602090a180f35b50346103135780600319360112610313576004546040516001600160a01b039091168152602090f35b50346103135780600319360112610313576020601454604051908152f35b506020366003190112610313576004356001600160401b038111611e6257611d8c903690600401614388565b919091303303611e1d57611dcc9260209160018060a01b03600454169060405180968194829363bce2dad960e01b84528760048501526024840191614630565b039134905af1908115611ad55790611dea575b602090604051908152f35b506020813d602011611e15575b81611e0460209383614583565b81010312610a015760209051611ddf565b3d9150611df7565b60405162461bcd60e51b815260206004820152601760248201527f4f6e6c792073656c662063616c6c7320616c6c6f7765640000000000000000006044820152606490fd5b5080fd5b50346103135780600319360112610313576011546012546013546014546015549185938687958889600f54905b818110611f8f5750506010548a5b818110611efc57506101209a918391508115611ef457611ec19250614663565b925b604051988952602089015260408801526060870152608086015260a085015260c084015260e0830152610100820152f35b505092611ec3565b611f05816143f0565b905460039190911b1c6001600160a01b03168c52600b60205260408c20600401548c9060ff16611f39575b50600101611ea1565b9460076040611f4960ff936146df565b97611f53856143f0565b905460039190911b1c6001600160a01b03168152600b60205220015416611f7b575b8b611f30565b98611f876001916146df565b999050611f75565b611f98816143c4565b905460039190911b1c6001600160a01b03168c52600a60205260408c20600501548c9060ff16611fcc575b50600101611e93565b936001919360046040611fe1612009946146df565b97611feb886143c4565b878060a01b0391549060031b1c168152600a60205220015490614608565b9290508b611fc3565b503461031357806003193601126103135761202b61485d565b6003546040516331d98b3f60e01b81527feaa020c61cc479712813461ce153894a96a6c00b21ed0cfc2798d1f9a9e9c94a6004820152906001600160a01b0316608082602481845afa8392816121ba575b50612085578280f35b6080602491604051928380926331d98b3f60e01b82525f516020614f035f395f51905f5260048301525afa839181612196575b50612105575060070b6305f45a60811390816120f7575b50156120e75760646019556103e8601a555b5f808280f35b60c86019556107d0601a556120e1565b6305f767a09150125f6120cf565b9060070b906305f45a6082139182612188575b5060070b6502ba7def30008112908115612178575b508180612170575b1561214c57505060646019556103e8601a556120e1565b81612168575b50156120e75760966019556105dc601a556120e1565b90505f612152565b508015612135565b6509184e72a0009150135f61212d565b6305f767a01391505f612118565b6121b091925060803d6080116115ca576115b88183614583565b505050905f6120b8565b6121d491935060803d6080116115ca576115b88183614583565b505050915f61207c565b5034610313576020366003190112610313576001600160a01b03612200614372565b168152600c6020526040812080549061221882614681565b926122266040519485614583565b82845290815260208082209084015b8383106122525760405160208082528190610cd49082018861441d565b6004602060019260405161226581614501565b848060a01b03865416815284860154838201526002860154604082015260038601546060820152815201920192019190612235565b50346103135780600319360112610313576020601154604051908152f35b503461031357806003193601126103135760405180602060105491828152018091601085527f1b6847dc741a1b0cd08d278845f9d819d87b734759afb55fe2de5cb82a9ae67290855b8181106123615750505082612317910383614583565b604051928392602084019060208552518091526040840192915b81811061233f575050500390f35b82516001600160a01b0316845285945060209384019390920191600101612331565b82546001600160a01b0316845260209093019260019283019201612301565b503461031357806003193601126103135761239961485d565b600180546001600160a01b0319811690915581906001600160a01b03167f8be0079c531659141344cd1fd0a4f28419497f9722a3daafe3b4186f6b6457e08280a380f35b50346103135780600319360112610313576020601954604051908152f35b50346103135760203660031901126103135760043590600f54821015610313576020611258836143c4565b5034610313578060031936011261031357602060ff60015460a01c166040519015158152f35b50346103135780600319360112610313576020604051676765c793fa10079d601b1b8152f35b50346103135780600319360112610313576006546040516001600160a01b039091168152602090f35b5034610313576020366003190112610313576020906040906001600160a01b036124c3614372565b168152600d83522054604051908152f35b50346103135780600319360112610313576020601254604051908152f35b503461031357806003193601126103135761250b61485d565b60015460ff8160a01c16156125535760ff60a01b19166001556040513381527f5db9ee0a495bf2e6ff9c91a7834c1ba4fdd244a5e8aa4e537bd38aeae4b073aa90602090a180f35b60405162461bcd60e51b815260206004820152601460248201527314185d5cd8589b194e881b9bdd081c185d5cd95960621b6044820152606490fd5b506080366003190112610313576024356004356125aa6143b5565b906064356001600160401b0381116107b2576125ca903690600401614388565b9290936125d56148b5565b6125dd6149d3565b8215946125ea86156145bc565b60195482101580612b8f575b15612b4a57612603614a1a565b6040516323b872dd60e01b8152336004820152306024820152604481018590526020816064818b6001600160a01b037f0000000000000000000000000000000000000000000000000000000000000000165af18015612b2257612b2d575b50868584612951575b6126749192614b2e565b956032850290858204603214171561293d57612710900490338852600a602052828488878b60ff6005604083200154165f146128025750505050509061275691338952600a602052604089206126cb878254614608565b9055338952600a602052600160408a20016126e7878254614608565b9055338952600a60205283600460408b200155338952600a602052600960408a2001612714828254614608565b9055338952600a602052600860408a2001612730838254614608565b9055876127ec575b61274486601154614608565b601155806127d7575b50601554614608565b6015556040519283526020830152151560408201527fc1cbd57f280cec5d8cbf34eb6cf2c94f9110898989ebfcf165eb48feb5a70a1260603392a28161279f575b826001815580f35b60405191825260208201527f55d00caaa005dba173909c0d58c06eaccc1042b1acbca72b95a2fba46427406660403392a25f80612797565b6127e390601454614608565b6014555f61274d565b338952600a60205287600760408b200155612738565b86600a936128dd9695936128af89946040519889936128208561454c565b8085526020850190815260408501838152606086019184835260808701938452604060a08801956001875261014060c08a0199428b5260e081019b8c5261010081019c8d5261012081019d8e52019c15158d523381528d602052209c518d555160018d01555160028c01555160038b01555160048a0155511515600589019060ff801983541691151516179055565b51600687015551600786015551600885015551600984015551151591019060ff801983541691151516179055565b600f54600160401b8110156129295790612924612906836001612756969501600f55600f614408565b81546001600160a01b0360039290921b91821b19163390911b179055565b612738565b634e487b7160e01b89526041600452602489fd5b634e487b7160e01b88526011600452602488fd5b50506003546040516331d98b3f60e01b81525f516020614f035f395f51905f52600482015290608090829060249082906001600160a01b03165afa908115612b22578891612b00575b5060070b6129a9888213614be6565b613a988502858104613a9814881715612aec5761271090046305f5e1008102908082046305f5e1001490151715612aec57906129e491614663565b803410612aa7576005546001600160a01b031688813b15610313578083926024604051809581936304f7b68560e31b83528160048401525af1918215612a9a578892612a7d575b505061267491338a52600d60205260408a20612a48828254614608565b90556040518181527fc7c3686ffceb4f47f74b6b5907d35e0a235d925f32fcd0df55f3ab637c48abcd60203392a2915061266a565b81925090612a8a91614583565b612a965785885f612a2b565b8780fd5b50604051903d90823e3d90fd5b60405162461bcd60e51b815260206004820152601b60248201527f496e73756666696369656e742042544320636f6c6c61746572616c00000000006044820152606490fd5b634e487b7160e01b89526011600452602489fd5b612b19915060803d6080116115ca576115b88183614583565b5050505f61299a565b6040513d8a823e3d90fd5b612b459060203d6020116106b5576106a88183614583565b612661565b60405162461bcd60e51b815260206004820152601860248201527f415059206f7574206f6620616c6c6f7765642072616e676500000000000000006044820152606490fd5b50601a548211156125f6565b50608036600319011261031357600435906024356001600160401b038111611e6257612bcb903690600401614388565b9190612bd56143b5565b936064356001600160401b0381116107b657612bf5903690600401614388565b92612bfe6148b5565b612c066149d3565b821595612c1387156145bc565b6011548411613a3257338652600b60205260ff6004604088200154166139ee57612c4491612c3f614a1a565b614b2e565b948496613824575b50338452600c6020526040842092633b9aca00831161347857600f5491839086805b8581106133f25750612c7f81614681565b94612c8d6040519687614583565b818652601f19612c9c83614681565b0136602088013788895b82811061336857505050875b81811061325e575050865b8451811080613255575b15612ded57866001600160a01b03612cdf83886147b6565b5116808a52600a60205289604081209160ff60058401541680612de0575b612d14575b50505050612d0f906146df565b612cbd565b82612d0f959a92612dac6002936001612dcc98970192835490508087115f14612dd857965b600485018054604080516001600160a01b03861660208201529081018b90526060810191909152426080820152612d8690612d818160a081015b03601f198101835282614583565b614ea8565b905460405193612d9585614501565b845289602085015260408401526060830152614c26565b612db78582546144f4565b905501612dc5838254614608565b90556144f4565b959050865f8981612d02565b508596612d39565b5060018301541515612cfd565b5094919692509496925b6132115784612e0591614c9b565b9062278d00420180421161293d57612ec1886007891515809786612e9f60405195612e2f87614530565b8d8752602087018b81526040880142815260608901918b8352604060808b01946001865260a08c0197885260c08c0198895260e08c01998a52338152600b6020522099518a555160018a0155516002890155516003880155511515600487019060ff801983541691151516179055565b51600585015551600684015551151591019060ff801983541691151516179055565b601054600160401b81101561292957612906816001612ee593016010556010614408565b612ef1866011546144f4565b601155612f0086601254614608565b601255604051928684526020840152604083015260608201527f6bf587197d015e104308a9e8c9bb6d7aa5b56220889a16d07027bd4b74f2555e60803392a21561319057612f4d83614615565b612f5a6040519182614583565b83815260208101368584011161318c57848382378560208684010152612f9f6020604051809382820195518091875e810189838201520301601f198101835282614583565b5190206040516020810190663134ba31b7b4b760c91b825260078152612fc6602782614583565b519020036130eb576005546040516326afba0b60e11b81526004810184905285916020908290602490829086906001600160a01b03165af190811561066f5782916130b6575b506005546001600160a01b0316803b1561066b5760405163b4b8a65d60e01b8152600481019290925233602483015282908290604490829084905af1801561066f576130a1575b50507f08d4a4d9f1604143d3ea4fc06f73cf77ce229b35454379643efb86a475d371e7915b61309660405192839283526040602084015233956040840191614630565b0390a25b6001815580f35b816130ab91614583565b6107b657835f613053565b9150506020813d6020116130e3575b816130d260209383614583565b81010312610a01578490515f61300c565b3d91506130c5565b60405163a9059cbb60e01b81523360048201526024810183905291602083604481886001600160a01b037f0000000000000000000000000000000000000000000000000000000000000000165af19283156106bc577f08d4a4d9f1604143d3ea4fc06f73cf77ce229b35454379643efb86a475d371e79361316d575b50613078565b6131859060203d6020116106b5576106a88183614583565b505f613167565b8580fd5b5060405163a9059cbb60e01b815233600482015260248101919091529050602081604481856001600160a01b037f0000000000000000000000000000000000000000000000000000000000000000165af1801561066f576131f2575b5061309a565b61320a9060203d6020116106b5576106a88183614583565b505f6131ec565b606460405162461bcd60e51b815260206004820152602060248201527f436f756c64206e6f74206d617463682066756c6c206c6f616e20616d6f756e746044820152fd5b50851515612cc7565b9692889a9598999491999692965b613276898c6144f4565b5f1981019081116133545781101561333d576001600160a01b0361329a828c6147b6565b51168c52600a602052600460408d20015460018201908183116117d057600460408f8e6132ce8660018060a01b03926147b6565b51168152600a602052200154106132e9575b5060010161326c565b6001600160a01b036132fb838d6147b6565b5116908083116117d0576001929190613336908f8e61332e866001600160a01b0361332686856147b6565b5116926147b6565b52508d6147b6565b52906132e0565b5092966001909a98959a9991949996929601612cb2565b634e487b7160e01b8d52601160045260248dfd5b613371816143c4565b905460039190911b1c6001600160a01b03168b52600a60205260408b206005015460ff16806133c0575b6133a8575b600101612ca6565b906133b8600191611834846143c4565b9190506133a0565b506133ca816143c4565b905460039190911b1c6001600160a01b03168b52600a60205260408b2060010154151561339b565b6133fb816143c4565b905460039190911b1c6001600160a01b03168952600a602052604089206005015460ff1680613446575b613432575b600101612c6e565b9061343e6001916146df565b91905061342a565b50613450816143c4565b905460039190911b1c6001600160a01b03168952600a60205260408920600101541515613425565b600f5491839086805b85811061379e575061349281614681565b946134a06040519687614583565b818652601f196134af83614681565b0136602088013788895b82811061371457505050875b8181106135b9575050865b84518110806135b0575b156135a257866001600160a01b036134f283886147b6565b5116808a52600a60205289604081209160ff60058401541680613595575b613527575b50505050613522906146df565b6134d0565b82613522959a92612dac600293600161358998970192835490508087115f14612dd85796600485018054604080516001600160a01b03861660208201529081018b90526060810191909152426080820152612d8690612d818160a08101612d73565b959050865f8981613515565b5060018301541515613510565b509491969250949692612df7565b508515156134da565b9692889a9598999491999692965b6135d1898c6144f4565b5f198101908111613354578110156136fd578b15613691576001600160a01b036135fb828c6147b6565b51168c52600a602052600460408d200154600182018083116117d05760408e8d61362e60049460018060a01b03926147b6565b51168152600a602052200154105b613649575b6001016135c7565b6001600160a01b0361365b828c6147b6565b5116600182018083116117d0576001929190613689908f8e61332e866001600160a01b0361332686856147b6565b529050613641565b6001600160a01b036136a3828c6147b6565b51165f52600a602052600460405f200154600182018083116136e9576001600160a01b03906136d2908d6147b6565b51165f52600a602052600460405f2001541161363c565b634e487b7160e01b5f52601160045260245ffd5b5092966001909a98959a99919499969296016134c5565b61371d816143c4565b905460039190911b1c6001600160a01b03168b52600a60205260408b206005015460ff168061376c575b613754575b6001016134b9565b90613764600191611834846143c4565b91905061374c565b50613776816143c4565b905460039190911b1c6001600160a01b03168b52600a60205260408b20600101541515613747565b6137a7816143c4565b905460039190911b1c6001600160a01b03168952600a602052604089206005015460ff16806137f2575b6137de575b600101613481565b906137ea6001916146df565b9190506137d6565b506137fc816143c4565b905460039190911b1c6001600160a01b03168952600a602052604089206001015415156137d1565b6003546040516331d98b3f60e01b81525f516020614f035f395f51905f526004820152929750909190608090829060249082906001600160a01b03165afa9081156106bc5785916139cc575b5060070b90613880858313614be6565b613a98830290838204613a981417156139b85761271090046305f5e1008102908082046305f5e10014901517156139b857906138bb91614663565b803410613967576005546001600160a01b0316803b156107b2578482916024604051809481936304f7b68560e31b83528160048401525af180156106bc57908591613952575b5050338452600d6020526040842061391a828254614608565b90556040519081527fc7c3686ffceb4f47f74b6b5907d35e0a235d925f32fcd0df55f3ab637c48abcd60203392a2613a98945f612c4c565b8161395c91614583565b6107b657835f613901565b60405162461bcd60e51b8152602060048201526024808201527f496e73756666696369656e742042544320636f6c6c61746572616c20666f72206044820152633637b0b760e11b6064820152608490fd5b634e487b7160e01b85526011600452602485fd5b6139e5915060803d6080116115ca576115b88183614583565b5050505f613870565b606460405162461bcd60e51b815260206004820152602060248201527f426f72726f77657220616c72656164792068617320616374697665206c6f616e6044820152fd5b60405162461bcd60e51b815260206004820152601b60248201527f496e73756666696369656e7420706f6f6c206c697175696469747900000000006044820152606490fd5b5034610313578060031936011261031357613a906148b5565b338152600a602052613aab60ff6005604084200154166144b9565b338152600a602052600360408220015415613b8d5733808252600a60208181526040808520600390810154858752938352818620018590555163a9059cbb60e01b815260048101939093526024830182905290919081604481866001600160a01b037f0000000000000000000000000000000000000000000000000000000000000000165af18015610a0d57613b70575b506040519081527ff9984c8173c4b4ff9cc454f76ed19c053f4490ccb224fd9ddffeb4ef4bea353060203392a26001815580f35b613b889060203d6020116106b5576106a88183614583565b613b3c565b60405162461bcd60e51b81526020600482015260146024820152734e6f20696e74657265737420746f20636c61696d60601b6044820152606490fd5b5034610a01575f366003190112610a01576006546001600160a01b0316803b15610a01575f8091600460405180948193634fb3c66560e11b83525af18015613f0057613eed575b5060065460405163243df84160e11b815290602090829060049082906001600160a01b03165afa801561066f578290613eb9575b613c4e9150614d8d565b6007546040516335ea6a7560e01b81526001600160a01b037f00000000000000000000000000000000000000000000000000000000000000008116600483015292939290916101e09183916024918391165afa801561066f578290613dbc575b6001600160801b0316928291508015908115613d8e575b5015613d1d57676765c793fa10079d601b1b900490918015908115613d61575b5015613d1d57613d08613d0d91676765c793fa10079d601b1b6020940490614e4e565b614931565b8060085542600955604051908152f35b606460405162461bcd60e51b815260206004820152602060248201527f5261794d6174683a206d756c7469706c69636174696f6e206f766572666c6f776044820152fd5b6af8277896582678ac0000008082029450915081840481036136e957613d879084614663565b145f613ce5565b6b024306c4097859c43c0000008082029350915081830481036136e957613db59083614663565b145f613cc5565b506101e0813d8211613eb1575b81613dd76101e09383614583565b81010312611e6257613deb60208201614909565b50613df860408201614909565b90613e0560608201614909565b50613e1260808201614909565b50613e1f60a08201614909565b5060c081015164ffffffffff81160361066b5760e081015161ffff81160361066b5790613eab6101c083613e5e6101006001600160801b03960161491d565b50613e6c610120820161491d565b50613e7a610140820161491d565b50613e88610160820161491d565b50613e966101808201614909565b50613ea46101a08201614909565b5001614909565b50613cae565b3d9150613dc9565b506020813d602011613ee5575b81613ed360209383614583565b81010312610a0157613c4e9051613c44565b3d9150613ec6565b613ef991505f90614583565b5f5f613c10565b6040513d5f823e3d90fd5b34610a01575f366003190112610a01576020604051613a988152f35b34610a01576020366003190112610a01576001600160a01b03613f48614372565b165f52600a60205261016060405f2080549060018101549060028101546003820154600483015460ff60058501541660068501549160078601549360088701549560ff600a60098a015499015416986040519a8b5260208b015260408a015260608901526080880152151560a087015260c086015260e08501526101008401526101208301521515610140820152f35b34610a01575f366003190112610a01576020600854604051908152f35b34610a01575f366003190112610a015760606016546017546018549060405192835260208301526040820152f35b34610a01575f366003190112610a01576040517f00000000000000000000000000000000000000000000000000000000000000006001600160a01b03168152602090f35b34610a01576020366003190112610a01576004356140836148b5565b335f52600a60205261409e60ff600560405f200154166144b9565b335f52600a60205280600160405f200154106142e857335f52600a602052600160405f20016140ce8282546144f4565b9055335f52600a60205260405f206140e78282546144f4565b90556140f5816011546144f4565b601155335f52600a602052600160405f20015415806142d1575b806142ba575b6141c2575b60405163a9059cbb60e01b8152336004820152602481018290526020816044815f6001600160a01b037f0000000000000000000000000000000000000000000000000000000000000000165af18015613f00576141a5575b506040519081527fb1cce8684b4ffa8667b4577654e61ee3480d661ee9c27522ac80e211f6bd4d2560203392a260015f55005b6141bd9060203d6020116106b5576106a88183614583565b614172565b335f52600a602052600560405f200160ff1981541690555f5b600f5490818110156142b3576141f0816143c4565b905460039190911b1c6001600160a01b031633146142125760019150016141db565b5f1982019182116136e95761424461422c614268936143c4565b905460039190911b1c6001600160a01b0316916143c4565b81546001600160a01b0393841660039290921b91821b9390911b1916919091179055565b600f54801561429f575f190161429761428282600f614408565b81549060018060a01b039060031b1b19169055565b600f5561411a565b634e487b7160e01b5f52603160045260245ffd5b505061411a565b50335f52600a602052600360405f20015415614115565b50335f52600a602052600260405f2001541561410f565b606460405162461bcd60e51b815260206004820152602060248201527f496e73756666696369656e7420617661696c61626c65206c69717569646974796044820152fd5b34610a01576060366003190112610a015761434561485d565b600435601655602435601755604435601855005b34610a01575f366003190112610a015780603260209252f35b600435906001600160a01b0382168203610a0157565b9181601f84011215610a01578235916001600160401b038311610a015760208381860195010111610a0157565b604435908115158203610a0157565b600f548110156143dc57600f5f5260205f2001905f90565b634e487b7160e01b5f52603260045260245ffd5b6010548110156143dc5760105f5260205f2001905f90565b80548210156143dc575f5260205f2001905f90565b90602080835192838152019201905f5b81811061443a5750505090565b825180516001600160a01b031685526020818101518187015260408083015190870152606091820151918601919091526080909401939092019160010161442d565b805180835260209291819084018484015e5f828201840152601f01601f1916010190565b80548210156143dc575f5260205f209060021b01905f90565b156144c057565b60405162461bcd60e51b815260206004820152600c60248201526b2737ba1030903632b73232b960a11b6044820152606490fd5b919082039182116136e957565b608081019081106001600160401b0382111761451c57604052565b634e487b7160e01b5f52604160045260245ffd5b61010081019081106001600160401b0382111761451c57604052565b61016081019081106001600160401b0382111761451c57604052565b606081019081106001600160401b0382111761451c57604052565b90601f801991011681019081106001600160401b0382111761451c57604052565b90816020910312610a0157518015158103610a015790565b156145c357565b60405162461bcd60e51b815260206004820152601d60248201527f416d6f756e74206d7573742062652067726561746572207468616e20300000006044820152606490fd5b919082018092116136e957565b6001600160401b03811161451c57601f01601f191660200190565b908060209392818452848401375f828201840152601f01601f1916010190565b818102929181159184041417156136e957565b811561466d570490565b634e487b7160e01b5f52601260045260245ffd5b6001600160401b03811161451c5760051b60200190565b9190826080910312610a015781518060070b8103610a01579160208101516001600160401b0381168103610a01579160408201518060030b8103610a015760609092015190565b5f1981146136e95760010190565b602081830312610a01578051906001600160401b038211610a01570181601f82011215610a015780519061472082614615565b9261472e6040519485614583565b82845260208383010111610a0157815f9260208093018386015e8301015290565b9061475982614681565b6147666040519182614583565b8281528092614777601f1991614681565b01905f5b82811061478757505050565b60209060405161479681614501565b5f81525f838201525f60408201525f60608201528282850101520161477b565b80518210156143dc5760209160051b010190565b156147d157565b60405162461bcd60e51b815260206004820152600e60248201526d27379030b1ba34bb32903637b0b760911b6044820152606490fd5b8054905f815581614816575050565b6001600160fe1b03821682036136e9575f5260205f209060021b8101905b81811061483f575050565b805f600492555f60018201555f60028201555f600382015501614834565b6001546001600160a01b0316330361487157565b606460405162461bcd60e51b815260206004820152602060248201527f4f776e61626c653a2063616c6c6572206973206e6f7420746865206f776e65726044820152fd5b60025f54146148c45760025f55565b60405162461bcd60e51b815260206004820152601f60248201527f5265656e7472616e637947756172643a207265656e7472616e742063616c6c006044820152606490fd5b51906001600160801b0382168203610a0157565b51906001600160a01b0382168203610a0157565b6008549081156149ce576b033b2e3c9e6d3ac48a760000905f9080159081156149a4575b5015613d1d57676765c793fa10079d601b1b900490828102928184048114821517156136e9576149859084614663565b03613d1d57676765c793fa10079d601b1b6149a1920490614e4e565b90565b67016345785d8a00008082029350915081830481036136e9576149c79083614663565b145f614955565b905090565b60ff60015460a01c166149e257565b60405162461bcd60e51b815260206004820152601060248201526f14185d5cd8589b194e881c185d5cd95960821b6044820152606490fd5b6003546018546040516020926001600160a01b03169190614a3b8482614583565b5f8152823b15610a01579290604051938492631df3cbc560e31b845260248401816004860152825180915260448501918060448360051b8801019401925f905b838210614aa45750505050505f939183809203925af1614a985750565b5f614aa291614583565b565b91808095979850614ac360019395976043198d8203018652895161447c565b9701920192018896959492939193614a7b565b15614add57565b60405162461bcd60e51b815260206004820152602360248201527f496e73756666696369656e742066656520666f722057616c7275732073746f7260448201526261676560e81b6064820152608490fd5b908015614be057614b7c916020914790614b4d60165480931015614ad6565b60018060a01b03600454169160405180968195829463bce2dad960e01b84528860048501526024840191614630565b03925af15f9181614bac575b50614b9257505f90565b805f52600e60205260405f20600160ff1982541617905590565b9091506020813d602011614bd8575b81614bc860209383614583565b81010312610a015751905f614b88565b3d9150614bbb565b50505f90565b15614bed57565b60405162461bcd60e51b8152602060048201526011602482015270496e76616c69642042544320707269636560781b6044820152606490fd5b8054600160401b81101561451c57614c43916001820181556144a0565b919091614c8857805182546001600160a01b0319166001600160a01b039190911617825560208101516001830155604081015160028301556060015160039190910155565b634e487b7160e01b5f525f60045260245ffd5b919082548015614cf4575f905f905b808210614cbe5750506149a1929350614663565b9091614cec60019161162f83614cd4878b6144a0565b5001546002614ce3888c6144a0565b50015490614650565b920190614caa565b505f925050565b5f5b60105480821015614d8857614d11826143f0565b905460039190911b1c6001600160a01b0390811690841614614d365750600101614cfd565b5f198101925082116136e957614244614d51614d69936143f0565b905460039190911b1c6001600160a01b0316916143f0565b601054801561429f575f1901614d83614282826010614408565b601055565b505050565b5f908015614be057676765c793fa10079d601b1b811115614e47576b033b2e3c9fd0803ce7ffffff198101818111614e3357676765c793fa10079d601b1b810290808204676765c793fa10079d601b1b1490151715614e335790614df091614663565b6301e1338081810291908204036136e957676765c793fa10079d601b1b9004676765c793fa10079d601b1b019081676765c793fa10079d601b1b11611575575090565b634e487b7160e01b83526011600452602483fd5b5080614df0565b9190614e5a9083614608565b918210614e6357565b60405162461bcd60e51b815260206004820152601a60248201527f5261794d6174683a206164646974696f6e206f766572666c6f770000000000006044820152606490fd5b805115614efd576020614ee79147614ec560165480921015614ad6565b60405180809581946381457f0f60e01b8352866004840152602483019061447c565b0391305af15f9181614bac5750614b9257505f90565b505f9056fee62df6c8b4a85fe1a67db44dc12de5db330f7ac66b72dc658afedf0f4a415b43a2646970667358221220792003f3b0119468423f23d3fb093532fa29f38d0802db4527474e21560225b064736f6c634300081e0033","linkReferences":{}},"methodIdentifiers":{"BASIS_POINTS()":"e1f1c4a7","BTC_COLLATERAL_RATIO()":"2ddb0c4f","BTC_PRICE_ID()":"f3ca6450","EWMA_ALPHA()":"c152b97a","LOAN_DURATION()":"e02a4dfd","RAY()":"552033c4","SECONDS_PER_YEAR()":"e6a69ab8","USDC_PRICE_ID()":"fb071758","WALRUS_REWARD_RATE()":"074d34fd","WHALE_THRESHOLD()":"f47790d6","aavePool()":"a03e4bc3","addLiquidity(uint256,uint256,bool,bytes)":"3ce74f5f","borrowerList(uint256)":"b3a66524","borrowerLoans(address,uint256)":"e3ed1902","borrowers(address)":"bf5d50c4","btcCollaterals(address)":"49e71742","claimInterest()":"35981fd8","claimWalrusRewards()":"cca5e1b0","emergencyWithdraw(address,uint256)":"95ccea67","getBorrowerDetails(address)":"e52bdbe2","getBorrowerList()":"72f6b20b","getBorrowerLoanChunks(address)":"79deeceb","getLenderDetails(address)":"89ff2029","getPoolStatus()":"7f79496c","getProtocolMetrics()":"eb1d13b0","getStableAPY()":"8d0904c3","lastUpdateTime()":"c8f33c91","lenderList(uint256)":"6085c7df","lenders(address)":"28fd10d7","liquidateLoan(address)":"bbdfa00e","maxAPY()":"e49eaee0","minAPY()":"6a31db18","owner()":"8da5cb5b","pause()":"8456cb59","paused()":"5c975abb","pot()":"4ba2363a","protocolFees()":"1ad8b03b","pythOracle()":"f5d6ac90","renounceOwnership()":"715018a6","repayLoan()":"f966ade7","requestLoan(uint256,bytes,bool,string)":"36e27116","retrieveLenderData(address)":"ade9f5ab","retrieveLoanDocument(address)":"dd647594","rootstockBridge()":"db78bf32","simulateLoan(uint256,bool)":"b383bde7","smoothedAPY()":"1e141011","storeDataWrapper(bytes)":"81457f0f","storedBlobs(bytes32)":"c715ad45","totalAvailableLiquidity()":"735d80e3","totalBTCCollateral()":"826755d2","totalInterestEarned()":"b7d93f34","totalLentAmount()":"43f7f740","totalWalrusRewards()":"9f9fa715","transferOwnership(address)":"f2fde38b","unpause()":"3f4ba83a","updateAPYRange()":"7c1578d8","updateProtocolContracts(address,address,address,address)":"f6cb5bef","updateProtocolFees(uint256,uint256,uint256)":"08319b92","updateStableAPY()":"2f7fe904","usdcToken()":"11eac855","walrusStorage()":"839ddb8b","walrusToken()":"8b03a160","withdrawLiquidity(uint256)":"0a861f2a"},"id":0}