{"abi":[{"type":"constructor","inputs":[{"name":"_usdcToken","type":"address","internalType":"address"},{"name":"_pythOracle","type":"address","internalType":"address"}],"stateMutability":"nonpayable"},{"type":"function","name":"BASIS_POINTS","inputs":[],"outputs":[{"name":"","type":"uint256","internalType":"uint256"}],"stateMutability":"view"},{"type":"function","name":"USDC_PRICE_ID","inputs":[],"outputs":[{"name":"","type":"bytes32","internalType":"bytes32"}],"stateMutability":"view"},{"type":"function","name":"WHALE_THRESHOLD","inputs":[],"outputs":[{"name":"","type":"uint256","internalType":"uint256"}],"stateMutability":"view"},{"type":"function","name":"addLiquidity","inputs":[{"name":"amount","type":"uint256","internalType":"uint256"},{"name":"fixedAPY","type":"uint256","internalType":"uint256"}],"outputs":[],"stateMutability":"nonpayable"},{"type":"function","name":"borrowerList","inputs":[{"name":"","type":"uint256","internalType":"uint256"}],"outputs":[{"name":"","type":"address","internalType":"address"}],"stateMutability":"view"},{"type":"function","name":"borrowerLoans","inputs":[{"name":"","type":"address","internalType":"address"},{"name":"","type":"uint256","internalType":"uint256"}],"outputs":[{"name":"lender","type":"address","internalType":"address"},{"name":"amount","type":"uint256","internalType":"uint256"},{"name":"apy","type":"uint256","internalType":"uint256"}],"stateMutability":"view"},{"type":"function","name":"borrowers","inputs":[{"name":"","type":"address","internalType":"address"}],"outputs":[{"name":"amount","type":"uint256","internalType":"uint256"},{"name":"weightedAPY","type":"uint256","internalType":"uint256"},{"name":"timestamp","type":"uint256","internalType":"uint256"},{"name":"active","type":"bool","internalType":"bool"}],"stateMutability":"view"},{"type":"function","name":"getPoolStatus","inputs":[],"outputs":[{"name":"totalLiquidity","type":"uint256","internalType":"uint256"},{"name":"activeLenders","type":"uint256","internalType":"uint256"},{"name":"activeBorrowers","type":"uint256","internalType":"uint256"},{"name":"averageAPY","type":"uint256","internalType":"uint256"}],"stateMutability":"view"},{"type":"function","name":"getPythAPY","inputs":[],"outputs":[{"name":"","type":"uint256","internalType":"uint256"}],"stateMutability":"view"},{"type":"function","name":"lenderList","inputs":[{"name":"","type":"uint256","internalType":"uint256"}],"outputs":[{"name":"","type":"address","internalType":"address"}],"stateMutability":"view"},{"type":"function","name":"lenders","inputs":[{"name":"","type":"address","internalType":"address"}],"outputs":[{"name":"amount","type":"uint256","internalType":"uint256"},{"name":"fixedAPY","type":"uint256","internalType":"uint256"},{"name":"active","type":"bool","internalType":"bool"},{"name":"timestamp","type":"uint256","internalType":"uint256"}],"stateMutability":"view"},{"type":"function","name":"owner","inputs":[],"outputs":[{"name":"","type":"address","internalType":"address"}],"stateMutability":"view"},{"type":"function","name":"pythOracle","inputs":[],"outputs":[{"name":"","type":"address","internalType":"contract IPythOracle"}],"stateMutability":"view"},{"type":"function","name":"renounceOwnership","inputs":[],"outputs":[],"stateMutability":"nonpayable"},{"type":"function","name":"repayLoan","inputs":[],"outputs":[],"stateMutability":"nonpayable"},{"type":"function","name":"requestLoan","inputs":[{"name":"amount","type":"uint256","internalType":"uint256"}],"outputs":[],"stateMutability":"nonpayable"},{"type":"function","name":"totalPoolLiquidity","inputs":[],"outputs":[{"name":"","type":"uint256","internalType":"uint256"}],"stateMutability":"view"},{"type":"function","name":"transferOwnership","inputs":[{"name":"newOwner","type":"address","internalType":"address"}],"outputs":[],"stateMutability":"nonpayable"},{"type":"function","name":"usdcToken","inputs":[],"outputs":[{"name":"","type":"address","internalType":"contract IERC20"}],"stateMutability":"view"},{"type":"function","name":"withdrawLiquidity","inputs":[{"name":"amount","type":"uint256","internalType":"uint256"}],"outputs":[],"stateMutability":"nonpayable"},{"type":"event","name":"BorrowerMatched","inputs":[{"name":"borrower","type":"address","indexed":true,"internalType":"address"},{"name":"amount","type":"uint256","indexed":false,"internalType":"uint256"},{"name":"weightedAPY","type":"uint256","indexed":false,"internalType":"uint256"}],"anonymous":false},{"type":"event","name":"LenderAdded","inputs":[{"name":"lender","type":"address","indexed":true,"internalType":"address"},{"name":"amount","type":"uint256","indexed":false,"internalType":"uint256"},{"name":"apy","type":"uint256","indexed":false,"internalType":"uint256"}],"anonymous":false},{"type":"event","name":"LiquidityWithdrawn","inputs":[{"name":"lender","type":"address","indexed":true,"internalType":"address"},{"name":"amount","type":"uint256","indexed":false,"internalType":"uint256"}],"anonymous":false},{"type":"event","name":"LoanRepaid","inputs":[{"name":"borrower","type":"address","indexed":true,"internalType":"address"},{"name":"amount","type":"uint256","indexed":false,"internalType":"uint256"}],"anonymous":false},{"type":"event","name":"OwnershipTransferred","inputs":[{"name":"previousOwner","type":"address","indexed":true,"internalType":"address"},{"name":"newOwner","type":"address","indexed":true,"internalType":"address"}],"anonymous":false}],"bytecode":{"object":"0x60a060405234801561000f575f5ffd5b50604051613106380380613106833981810160405281019061003191906101f7565b60015f819055506100546100496100cf60201b60201c565b6100d660201b60201c565b8173ffffffffffffffffffffffffffffffffffffffff1660808173ffffffffffffffffffffffffffffffffffffffff16815250508060025f6101000a81548173ffffffffffffffffffffffffffffffffffffffff021916908373ffffffffffffffffffffffffffffffffffffffff1602179055505050610235565b5f33905090565b5f60015f9054906101000a900473ffffffffffffffffffffffffffffffffffffffff1690508160015f6101000a81548173ffffffffffffffffffffffffffffffffffffffff021916908373ffffffffffffffffffffffffffffffffffffffff1602179055508173ffffffffffffffffffffffffffffffffffffffff168173ffffffffffffffffffffffffffffffffffffffff167f8be0079c531659141344cd1fd0a4f28419497f9722a3daafe3b4186f6b6457e060405160405180910390a35050565b5f5ffd5b5f73ffffffffffffffffffffffffffffffffffffffff82169050919050565b5f6101c68261019d565b9050919050565b6101d6816101bc565b81146101e0575f5ffd5b50565b5f815190506101f1816101cd565b92915050565b5f5f6040838503121561020d5761020c610199565b5b5f61021a858286016101e3565b925050602061022b858286016101e3565b9150509250929050565b608051612e9d6102695f395f81816105400152818161063501528181610b3201528181610cee015261138a0152612e9d5ff3fe608060405234801561000f575f5ffd5b506004361061012a575f3560e01c8063bef64bd5116100ab578063f2fde38b1161006f578063f2fde38b1461033b578063f47790d614610357578063f5d6ac9014610375578063f966ade714610393578063fb0717581461039d5761012a565b8063bef64bd51461027c578063bf5d50c41461029a578063e1f1c4a7146102cd578063e3ed1902146102eb578063e8f003311461031d5761012a565b80637f79496c116100f25780637f79496c146101d55780638d5d3429146101f65780638da5cb5b146102125780639cd441da14610230578063b3a665241461024c5761012a565b80630a861f2a1461012e57806311eac8551461014a57806328fd10d7146101685780636085c7df1461019b578063715018a6146101cb575b5f5ffd5b61014860048036038101906101439190612256565b6103bb565b005b610152610633565b60405161015f91906122fb565b60405180910390f35b610182600480360381019061017d919061234f565b610657565b60405161019294939291906123a3565b60405180910390f35b6101b560048036038101906101b09190612256565b61068f565b6040516101c291906123f5565b60405180910390f35b6101d36106ca565b005b6101dd6106dd565b6040516101ed949392919061240e565b60405180910390f35b610210600480360381019061020b9190612256565b610859565b005b61021a610c2a565b60405161022791906123f5565b60405180910390f35b61024a60048036038101906102459190612451565b610c52565b005b61026660048036038101906102619190612256565b610fef565b60405161027391906123f5565b60405180910390f35b61028461102a565b604051610291919061248f565b60405180910390f35b6102b460048036038101906102af919061234f565b611109565b6040516102c494939291906124a8565b60405180910390f35b6102d5611141565b6040516102e2919061248f565b60405180910390f35b610305600480360381019061030091906124eb565b611147565b60405161031493929190612529565b60405180910390f35b6103256111a6565b604051610332919061248f565b60405180910390f35b6103556004803603810190610350919061234f565b6111ac565b005b61035f61122e565b60405161036c919061248f565b60405180910390f35b61037d611236565b60405161038a919061257e565b60405180910390f35b61039b61125b565b005b6103a5611609565b6040516103b291906125af565b60405180910390f35b6103c361162f565b60035f3373ffffffffffffffffffffffffffffffffffffffff1673ffffffffffffffffffffffffffffffffffffffff1681526020019081526020015f206002015f9054906101000a900460ff1661044f576040517f08c379a000000000000000000000000000000000000000000000000000000000815260040161044690612622565b60405180910390fd5b8060035f3373ffffffffffffffffffffffffffffffffffffffff1673ffffffffffffffffffffffffffffffffffffffff1681526020019081526020015f205f015410156104d1576040517f08c379a00000000000000000000000000000000000000000000000000000000081526004016104c89061268a565b60405180910390fd5b8060035f3373ffffffffffffffffffffffffffffffffffffffff1673ffffffffffffffffffffffffffffffffffffffff1681526020019081526020015f205f015f82825461051f91906126d5565b925050819055508060085f82825461053791906126d5565b925050819055507f000000000000000000000000000000000000000000000000000000000000000073ffffffffffffffffffffffffffffffffffffffff1663a9059cbb33836040518363ffffffff1660e01b8152600401610599929190612708565b6020604051808303815f875af11580156105b5573d5f5f3e3d5ffd5b505050506040513d601f19601f820116820180604052508101906105d99190612759565b503373ffffffffffffffffffffffffffffffffffffffff167fb1cce8684b4ffa8667b4577654e61ee3480d661ee9c27522ac80e211f6bd4d2582604051610620919061248f565b60405180910390a261063061167c565b50565b7f000000000000000000000000000000000000000000000000000000000000000081565b6003602052805f5260405f205f91509050805f015490806001015490806002015f9054906101000a900460ff16908060030154905084565b6006818154811061069e575f80fd5b905f5260205f20015f915054906101000a900473ffffffffffffffffffffffffffffffffffffffff1681565b6106d2611685565b6106db5f611703565b565b5f5f5f5f6008549350600680549050925060078054905091505f6006805490501115610853575f5f90505f5f90505b60068054905081101561083d5760035f600683815481106107305761072f612784565b5b905f5260205f20015f9054906101000a900473ffffffffffffffffffffffffffffffffffffffff1673ffffffffffffffffffffffffffffffffffffffff1673ffffffffffffffffffffffffffffffffffffffff1681526020019081526020015f206002015f9054906101000a900460ff16156108305760035f600683815481106107bd576107bc612784565b5b905f5260205f20015f9054906101000a900473ffffffffffffffffffffffffffffffffffffffff1673ffffffffffffffffffffffffffffffffffffffff1673ffffffffffffffffffffffffffffffffffffffff1681526020019081526020015f20600101548261082d91906127b1565b91505b808060010191505061070c565b506006805490508161084f9190612811565b9150505b90919293565b61086161162f565b5f81116108a3576040517f08c379a000000000000000000000000000000000000000000000000000000000815260040161089a9061288b565b60405180910390fd5b6008548111156108e8576040517f08c379a00000000000000000000000000000000000000000000000000000000081526004016108df906128f3565b60405180910390fd5b60045f3373ffffffffffffffffffffffffffffffffffffffff1673ffffffffffffffffffffffffffffffffffffffff1681526020019081526020015f206003015f9054906101000a900460ff1615610975576040517f08c379a000000000000000000000000000000000000000000000000000000000815260040161096c9061295b565b60405180910390fd5b5f60055f3373ffffffffffffffffffffffffffffffffffffffff1673ffffffffffffffffffffffffffffffffffffffff1681526020019081526020015f2090505f829050633b9aca0083116109d5576109ce83836117c6565b90506109e2565b6109df83836119a3565b90505b5f8114610a24576040517f08c379a0000000000000000000000000000000000000000000000000000000008152600401610a1b906129c3565b60405180910390fd5b5f610a2f8385611b7f565b905060405180608001604052808581526020018281526020014281526020016001151581525060045f3373ffffffffffffffffffffffffffffffffffffffff1673ffffffffffffffffffffffffffffffffffffffff1681526020019081526020015f205f820151815f015560208201518160010155604082015181600201556060820151816003015f6101000a81548160ff021916908315150217905550905050600733908060018154018082558091505060019003905f5260205f20015f9091909190916101000a81548173ffffffffffffffffffffffffffffffffffffffff021916908373ffffffffffffffffffffffffffffffffffffffff1602179055507f000000000000000000000000000000000000000000000000000000000000000073ffffffffffffffffffffffffffffffffffffffff1663a9059cbb33866040518363ffffffff1660e01b8152600401610b8b929190612708565b6020604051808303815f875af1158015610ba7573d5f5f3e3d5ffd5b505050506040513d601f19601f82011682018060405250810190610bcb9190612759565b503373ffffffffffffffffffffffffffffffffffffffff167f2744c7d0011d10a47f3395229a288281d90dc40f2788b2012fa97586f3305a4b8583604051610c149291906129e1565b60405180910390a2505050610c2761167c565b50565b5f60015f9054906101000a900473ffffffffffffffffffffffffffffffffffffffff16905090565b610c5a61162f565b5f8211610c9c576040517f08c379a0000000000000000000000000000000000000000000000000000000008152600401610c939061288b565b60405180910390fd5b5f81118015610cad57506113888111155b610cec576040517f08c379a0000000000000000000000000000000000000000000000000000000008152600401610ce390612a78565b60405180910390fd5b7f000000000000000000000000000000000000000000000000000000000000000073ffffffffffffffffffffffffffffffffffffffff166323b872dd3330856040518463ffffffff1660e01b8152600401610d4993929190612a96565b6020604051808303815f875af1158015610d65573d5f5f3e3d5ffd5b505050506040513d601f19601f82011682018060405250810190610d899190612759565b5060035f3373ffffffffffffffffffffffffffffffffffffffff1673ffffffffffffffffffffffffffffffffffffffff1681526020019081526020015f206002015f9054906101000a900460ff1615610e7b578160035f3373ffffffffffffffffffffffffffffffffffffffff1673ffffffffffffffffffffffffffffffffffffffff1681526020019081526020015f205f015f828254610e2a91906127b1565b925050819055508060035f3373ffffffffffffffffffffffffffffffffffffffff1673ffffffffffffffffffffffffffffffffffffffff1681526020019081526020015f2060010181905550610f7b565b60405180608001604052808381526020018281526020016001151581526020014281525060035f3373ffffffffffffffffffffffffffffffffffffffff1673ffffffffffffffffffffffffffffffffffffffff1681526020019081526020015f205f820151815f0155602082015181600101556040820151816002015f6101000a81548160ff02191690831515021790555060608201518160030155905050600633908060018154018082558091505060019003905f5260205f20015f9091909190916101000a81548173ffffffffffffffffffffffffffffffffffffffff021916908373ffffffffffffffffffffffffffffffffffffffff1602179055505b8160085f828254610f8c91906127b1565b925050819055503373ffffffffffffffffffffffffffffffffffffffff167f285470c6b5545d27592cf5d76ca5e9218adb42b2ee2f0a6019212a6eb93ba9888383604051610fdb9291906129e1565b60405180910390a2610feb61167c565b5050565b60078181548110610ffe575f80fd5b905f5260205f20015f915054906101000a900473ffffffffffffffffffffffffffffffffffffffff1681565b5f5f60025f9054906101000a900473ffffffffffffffffffffffffffffffffffffffff1673ffffffffffffffffffffffffffffffffffffffff166331d98b3f7feaa020c61cc479712813461ce153894a96a6c00b21ed0cfc2798d1f9a9e9c94a5f1b6040518263ffffffff1660e01b81526004016110a891906125af565b608060405180830381865afa1580156110c3573d5f5f3e3d5ffd5b505050506040513d601f19601f820116820180604052508101906110e79190612b88565b505050905060648167ffffffffffffffff166111039190612811565b91505090565b6004602052805f5260405f205f91509050805f015490806001015490806002015490806003015f9054906101000a900460ff16905084565b61271081565b6005602052815f5260405f208181548110611160575f80fd5b905f5260205f2090600302015f9150915050805f015f9054906101000a900473ffffffffffffffffffffffffffffffffffffffff16908060010154908060020154905083565b60085481565b6111b4611685565b5f73ffffffffffffffffffffffffffffffffffffffff168173ffffffffffffffffffffffffffffffffffffffff1603611222576040517f08c379a000000000000000000000000000000000000000000000000000000000815260040161121990612c5c565b60405180910390fd5b61122b81611703565b50565b633b9aca0081565b60025f9054906101000a900473ffffffffffffffffffffffffffffffffffffffff1681565b61126361162f565b60045f3373ffffffffffffffffffffffffffffffffffffffff1673ffffffffffffffffffffffffffffffffffffffff1681526020019081526020015f206003015f9054906101000a900460ff166112ef576040517f08c379a00000000000000000000000000000000000000000000000000000000081526004016112e690612cc4565b60405180910390fd5b5f60045f3373ffffffffffffffffffffffffffffffffffffffff1673ffffffffffffffffffffffffffffffffffffffff1681526020019081526020015f2090505f60055f3373ffffffffffffffffffffffffffffffffffffffff1673ffffffffffffffffffffffffffffffffffffffff1681526020019081526020015f2090505f611386835f015484600101548560020154611c43565b90507f000000000000000000000000000000000000000000000000000000000000000073ffffffffffffffffffffffffffffffffffffffff166323b872dd3330846040518463ffffffff1660e01b81526004016113e593929190612a96565b6020604051808303815f875af1158015611401573d5f5f3e3d5ffd5b505050506040513d601f19601f820116820180604052508101906114259190612759565b505f5f90505b82805490508110156114fe575f83828154811061144b5761144a612784565b5b905f5260205f2090600302019050806001015460035f835f015f9054906101000a900473ffffffffffffffffffffffffffffffffffffffff1673ffffffffffffffffffffffffffffffffffffffff1673ffffffffffffffffffffffffffffffffffffffff1681526020019081526020015f205f015f8282546114cd91906127b1565b92505081905550806001015460085f8282546114e991906127b1565b9250508190555050808060010191505061142b565b5060045f3373ffffffffffffffffffffffffffffffffffffffff1673ffffffffffffffffffffffffffffffffffffffff1681526020019081526020015f205f5f82015f9055600182015f9055600282015f9055600382015f6101000a81549060ff0219169055505060055f3373ffffffffffffffffffffffffffffffffffffffff1673ffffffffffffffffffffffffffffffffffffffff1681526020019081526020015f205f6115ae91906121b4565b3373ffffffffffffffffffffffffffffffffffffffff167fc200a1f31dd659e356e0f112c82558e25f49f7b0f84438691cd96f5cb3558823826040516115f4919061248f565b60405180910390a250505061160761167c565b565b7feaa020c61cc479712813461ce153894a96a6c00b21ed0cfc2798d1f9a9e9c94a5f1b81565b60025f5403611673576040517f08c379a000000000000000000000000000000000000000000000000000000000815260040161166a90612d2c565b60405180910390fd5b60025f81905550565b60015f81905550565b61168d611ca0565b73ffffffffffffffffffffffffffffffffffffffff166116ab610c2a565b73ffffffffffffffffffffffffffffffffffffffff1614611701576040517f08c379a00000000000000000000000000000000000000000000000000000000081526004016116f890612d94565b60405180910390fd5b565b5f60015f9054906101000a900473ffffffffffffffffffffffffffffffffffffffff1690508160015f6101000a81548173ffffffffffffffffffffffffffffffffffffffff021916908373ffffffffffffffffffffffffffffffffffffffff1602179055508173ffffffffffffffffffffffffffffffffffffffff168173ffffffffffffffffffffffffffffffffffffffff167f8be0079c531659141344cd1fd0a4f28419497f9722a3daafe3b4186f6b6457e060405160405180910390a35050565b5f5f8390505f6117d66001611ca7565b90505f5f90505b8151811080156117ec57505f83115b15611997575f82828151811061180557611804612784565b5b602002602001015190505f60035f8373ffffffffffffffffffffffffffffffffffffffff1673ffffffffffffffffffffffffffffffffffffffff1681526020019081526020015f209050806002015f9054906101000a900460ff16801561186e57505f815f0154115b15611982575f815f015486116118845785611889565b815f01545b90508760405180606001604052808573ffffffffffffffffffffffffffffffffffffffff1681526020018381526020018460010154815250908060018154018082558091505060019003905f5260205f2090600302015f909190919091505f820151815f015f6101000a81548173ffffffffffffffffffffffffffffffffffffffff021916908373ffffffffffffffffffffffffffffffffffffffff1602179055506020820151816001015560408201518160020155505080825f015f82825461195391906126d5565b925050819055508060085f82825461196b91906126d5565b92505081905550808661197e91906126d5565b9550505b5050808061198f90612db2565b9150506117dd565b50819250505092915050565b5f5f8390505f6119b25f611ca7565b90505f5f90505b8151811080156119c857505f83115b15611b73575f8282815181106119e1576119e0612784565b5b602002602001015190505f60035f8373ffffffffffffffffffffffffffffffffffffffff1673ffffffffffffffffffffffffffffffffffffffff1681526020019081526020015f209050806002015f9054906101000a900460ff168015611a4a57505f815f0154115b15611b5e575f815f01548611611a605785611a65565b815f01545b90508760405180606001604052808573ffffffffffffffffffffffffffffffffffffffff1681526020018381526020018460010154815250908060018154018082558091505060019003905f5260205f2090600302015f909190919091505f820151815f015f6101000a81548173ffffffffffffffffffffffffffffffffffffffff021916908373ffffffffffffffffffffffffffffffffffffffff1602179055506020820151816001015560408201518160020155505080825f015f828254611b2f91906126d5565b925050819055508060085f828254611b4791906126d5565b925050819055508086611b5a91906126d5565b9550505b50508080611b6b90612db2565b9150506119b9565b50819250505092915050565b5f5f838054905003611b93575f9050611c3d565b5f5f90505f5f90505b8480549050811015611c1f57612710858281548110611bbe57611bbd612784565b5b905f5260205f20906003020160020154868381548110611be157611be0612784565b5b905f5260205f20906003020160010154611bfb9190612df9565b611c059190612811565b82611c1091906127b1565b91508080600101915050611b9c565b508261271082611c2f9190612df9565b611c399190612811565b9150505b92915050565b5f5f8242611c5191906126d5565b90505f6127106301e13380611c669190612df9565b828688611c739190612df9565b611c7d9190612df9565b611c879190612811565b90508086611c9591906127b1565b925050509392505050565b5f33905090565b60605f60068054905067ffffffffffffffff811115611cc957611cc8612e3a565b5b604051908082528060200260200182016040528015611cf75781602001602082028036833780820191505090505b5090505f5f90505f5f90505b600680549050811015611ec75760035f60068381548110611d2757611d26612784565b5b905f5260205f20015f9054906101000a900473ffffffffffffffffffffffffffffffffffffffff1673ffffffffffffffffffffffffffffffffffffffff1673ffffffffffffffffffffffffffffffffffffffff1681526020019081526020015f206002015f9054906101000a900460ff168015611e1d57505f60035f60068481548110611db757611db6612784565b5b905f5260205f20015f9054906101000a900473ffffffffffffffffffffffffffffffffffffffff1673ffffffffffffffffffffffffffffffffffffffff1673ffffffffffffffffffffffffffffffffffffffff1681526020019081526020015f205f0154115b15611eba5760068181548110611e3657611e35612784565b5b905f5260205f20015f9054906101000a900473ffffffffffffffffffffffffffffffffffffffff16838381518110611e7157611e70612784565b5b602002602001019073ffffffffffffffffffffffffffffffffffffffff16908173ffffffffffffffffffffffffffffffffffffffff16815250508180611eb690612db2565b9250505b8080600101915050611d03565b505f5f90505b600182611eda91906126d5565b8110156121a9575f5f90505b60018284611ef491906126d5565b611efe91906126d5565b81101561219b575f86611fd35760035f86600185611f1c91906127b1565b81518110611f2d57611f2c612784565b5b602002602001015173ffffffffffffffffffffffffffffffffffffffff1673ffffffffffffffffffffffffffffffffffffffff1681526020019081526020015f206001015460035f878581518110611f8857611f87612784565b5b602002602001015173ffffffffffffffffffffffffffffffffffffffff1673ffffffffffffffffffffffffffffffffffffffff1681526020019081526020015f206001015410612097565b60035f86600185611fe491906127b1565b81518110611ff557611ff4612784565b5b602002602001015173ffffffffffffffffffffffffffffffffffffffff1673ffffffffffffffffffffffffffffffffffffffff1681526020019081526020015f206001015460035f8785815181106120505761204f612784565b5b602002602001015173ffffffffffffffffffffffffffffffffffffffff1673ffffffffffffffffffffffffffffffffffffffff1681526020019081526020015f2060010154115b9050801561218d575f8583815181106120b3576120b2612784565b5b60200260200101519050856001846120cb91906127b1565b815181106120dc576120db612784565b5b60200260200101518684815181106120f7576120f6612784565b5b602002602001019073ffffffffffffffffffffffffffffffffffffffff16908173ffffffffffffffffffffffffffffffffffffffff1681525050808660018561214091906127b1565b8151811061215157612150612784565b5b602002602001019073ffffffffffffffffffffffffffffffffffffffff16908173ffffffffffffffffffffffffffffffffffffffff1681525050505b508080600101915050611ee6565b508080600101915050611ecd565b508192505050919050565b5080545f8255600302905f5260205f20908101906121d291906121d5565b50565b5b8082111561221b575f5f82015f6101000a81549073ffffffffffffffffffffffffffffffffffffffff0219169055600182015f9055600282015f9055506003016121d6565b5090565b5f5ffd5b5f819050919050565b61223581612223565b811461223f575f5ffd5b50565b5f813590506122508161222c565b92915050565b5f6020828403121561226b5761226a61221f565b5b5f61227884828501612242565b91505092915050565b5f73ffffffffffffffffffffffffffffffffffffffff82169050919050565b5f819050919050565b5f6122c36122be6122b984612281565b6122a0565b612281565b9050919050565b5f6122d4826122a9565b9050919050565b5f6122e5826122ca565b9050919050565b6122f5816122db565b82525050565b5f60208201905061230e5f8301846122ec565b92915050565b5f61231e82612281565b9050919050565b61232e81612314565b8114612338575f5ffd5b50565b5f8135905061234981612325565b92915050565b5f602082840312156123645761236361221f565b5b5f6123718482850161233b565b91505092915050565b61238381612223565b82525050565b5f8115159050919050565b61239d81612389565b82525050565b5f6080820190506123b65f83018761237a565b6123c3602083018661237a565b6123d06040830185612394565b6123dd606083018461237a565b95945050505050565b6123ef81612314565b82525050565b5f6020820190506124085f8301846123e6565b92915050565b5f6080820190506124215f83018761237a565b61242e602083018661237a565b61243b604083018561237a565b612448606083018461237a565b95945050505050565b5f5f604083850312156124675761246661221f565b5b5f61247485828601612242565b925050602061248585828601612242565b9150509250929050565b5f6020820190506124a25f83018461237a565b92915050565b5f6080820190506124bb5f83018761237a565b6124c8602083018661237a565b6124d5604083018561237a565b6124e26060830184612394565b95945050505050565b5f5f604083850312156125015761250061221f565b5b5f61250e8582860161233b565b925050602061251f85828601612242565b9150509250929050565b5f60608201905061253c5f8301866123e6565b612549602083018561237a565b612556604083018461237a565b949350505050565b5f612568826122ca565b9050919050565b6125788161255e565b82525050565b5f6020820190506125915f83018461256f565b92915050565b5f819050919050565b6125a981612597565b82525050565b5f6020820190506125c25f8301846125a0565b92915050565b5f82825260208201905092915050565b7f4e6f742061206c656e64657200000000000000000000000000000000000000005f82015250565b5f61260c600c836125c8565b9150612617826125d8565b602082019050919050565b5f6020820190508181035f83015261263981612600565b9050919050565b7f496e73756666696369656e74206c6971756964697479000000000000000000005f82015250565b5f6126746016836125c8565b915061267f82612640565b602082019050919050565b5f6020820190508181035f8301526126a181612668565b9050919050565b7f4e487b71000000000000000000000000000000000000000000000000000000005f52601160045260245ffd5b5f6126df82612223565b91506126ea83612223565b9250828203905081811115612702576127016126a8565b5b92915050565b5f60408201905061271b5f8301856123e6565b612728602083018461237a565b9392505050565b61273881612389565b8114612742575f5ffd5b50565b5f815190506127538161272f565b92915050565b5f6020828403121561276e5761276d61221f565b5b5f61277b84828501612745565b91505092915050565b7f4e487b71000000000000000000000000000000000000000000000000000000005f52603260045260245ffd5b5f6127bb82612223565b91506127c683612223565b92508282019050808211156127de576127dd6126a8565b5b92915050565b7f4e487b71000000000000000000000000000000000000000000000000000000005f52601260045260245ffd5b5f61281b82612223565b915061282683612223565b925082612836576128356127e4565b5b828204905092915050565b7f416d6f756e74206d7573742062652067726561746572207468616e20300000005f82015250565b5f612875601d836125c8565b915061288082612841565b602082019050919050565b5f6020820190508181035f8301526128a281612869565b9050919050565b7f496e73756666696369656e7420706f6f6c206c697175696469747900000000005f82015250565b5f6128dd601b836125c8565b91506128e8826128a9565b602082019050919050565b5f6020820190508181035f83015261290a816128d1565b9050919050565b7f426f72726f77657220616c72656164792068617320616374697665206c6f616e5f82015250565b5f6129456020836125c8565b915061295082612911565b602082019050919050565b5f6020820190508181035f83015261297281612939565b9050919050565b7f436f756c64206e6f74206d617463682066756c6c206c6f616e20616d6f756e745f82015250565b5f6129ad6020836125c8565b91506129b882612979565b602082019050919050565b5f6020820190508181035f8301526129da816129a1565b9050919050565b5f6040820190506129f45f83018561237a565b612a01602083018461237a565b9392505050565b7f415059206d757374206265206265747765656e20302e30312520616e642035305f8201527f2500000000000000000000000000000000000000000000000000000000000000602082015250565b5f612a626021836125c8565b9150612a6d82612a08565b604082019050919050565b5f6020820190508181035f830152612a8f81612a56565b9050919050565b5f606082019050612aa95f8301866123e6565b612ab660208301856123e6565b612ac3604083018461237a565b949350505050565b5f8160070b9050919050565b612ae081612acb565b8114612aea575f5ffd5b50565b5f81519050612afb81612ad7565b92915050565b5f67ffffffffffffffff82169050919050565b612b1d81612b01565b8114612b27575f5ffd5b50565b5f81519050612b3881612b14565b92915050565b5f8160030b9050919050565b612b5381612b3e565b8114612b5d575f5ffd5b50565b5f81519050612b6e81612b4a565b92915050565b5f81519050612b828161222c565b92915050565b5f5f5f5f60808587031215612ba057612b9f61221f565b5b5f612bad87828801612aed565b9450506020612bbe87828801612b2a565b9350506040612bcf87828801612b60565b9250506060612be087828801612b74565b91505092959194509250565b7f4f776e61626c653a206e6577206f776e657220697320746865207a65726f20615f8201527f6464726573730000000000000000000000000000000000000000000000000000602082015250565b5f612c466026836125c8565b9150612c5182612bec565b604082019050919050565b5f6020820190508181035f830152612c7381612c3a565b9050919050565b7f4e6f20616374697665206c6f616e0000000000000000000000000000000000005f82015250565b5f612cae600e836125c8565b9150612cb982612c7a565b602082019050919050565b5f6020820190508181035f830152612cdb81612ca2565b9050919050565b7f5265656e7472616e637947756172643a207265656e7472616e742063616c6c005f82015250565b5f612d16601f836125c8565b9150612d2182612ce2565b602082019050919050565b5f6020820190508181035f830152612d4381612d0a565b9050919050565b7f4f776e61626c653a2063616c6c6572206973206e6f7420746865206f776e65725f82015250565b5f612d7e6020836125c8565b9150612d8982612d4a565b602082019050919050565b5f6020820190508181035f830152612dab81612d72565b9050919050565b5f612dbc82612223565b91507fffffffffffffffffffffffffffffffffffffffffffffffffffffffffffffffff8203612dee57612ded6126a8565b5b600182019050919050565b5f612e0382612223565b9150612e0e83612223565b9250828202612e1c81612223565b91508282048414831517612e3357612e326126a8565b5b5092915050565b7f4e487b71000000000000000000000000000000000000000000000000000000005f52604160045260245ffdfea2646970667358221220e0f05902798bacd33f47e7b79e3f8e37ff161f3000d653ffd8c534a75cbe9bdb64736f6c634300081e0033","linkReferences":{}},"methodIdentifiers":{"BASIS_POINTS()":"e1f1c4a7","USDC_PRICE_ID()":"fb071758","WHALE_THRESHOLD()":"f47790d6","addLiquidity(uint256,uint256)":"9cd441da","borrowerList(uint256)":"b3a66524","borrowerLoans(address,uint256)":"e3ed1902","borrowers(address)":"bf5d50c4","getPoolStatus()":"7f79496c","getPythAPY()":"bef64bd5","lenderList(uint256)":"6085c7df","lenders(address)":"28fd10d7","owner()":"8da5cb5b","pythOracle()":"f5d6ac90","renounceOwnership()":"715018a6","repayLoan()":"f966ade7","requestLoan(uint256)":"8d5d3429","totalPoolLiquidity()":"e8f00331","transferOwnership(address)":"f2fde38b","usdcToken()":"11eac855","withdrawLiquidity(uint256)":"0a861f2a"},"id":0}