{"abi":[{"type":"constructor","inputs":[{"name":"_usdcToken","type":"address","internalType":"address"},{"name":"_pythOracle","type":"address","internalType":"address"}],"stateMutability":"nonpayable"},{"type":"function","name":"BASIS_POINTS","inputs":[],"outputs":[{"name":"","type":"uint256","internalType":"uint256"}],"stateMutability":"view"},{"type":"function","name":"LOAN_DURATION","inputs":[],"outputs":[{"name":"","type":"uint256","internalType":"uint256"}],"stateMutability":"view"},{"type":"function","name":"USDC_PRICE_ID","inputs":[],"outputs":[{"name":"","type":"bytes32","internalType":"bytes32"}],"stateMutability":"view"},{"type":"function","name":"WHALE_THRESHOLD","inputs":[],"outputs":[{"name":"","type":"uint256","internalType":"uint256"}],"stateMutability":"view"},{"type":"function","name":"addLiquidity","inputs":[{"name":"amount","type":"uint256","internalType":"uint256"},{"name":"fixedAPY","type":"uint256","internalType":"uint256"}],"outputs":[],"stateMutability":"nonpayable"},{"type":"function","name":"borrowerList","inputs":[{"name":"","type":"uint256","internalType":"uint256"}],"outputs":[{"name":"","type":"address","internalType":"address"}],"stateMutability":"view"},{"type":"function","name":"borrowerLoans","inputs":[{"name":"","type":"address","internalType":"address"},{"name":"","type":"uint256","internalType":"uint256"}],"outputs":[{"name":"lender","type":"address","internalType":"address"},{"name":"amount","type":"uint256","internalType":"uint256"},{"name":"apy","type":"uint256","internalType":"uint256"}],"stateMutability":"view"},{"type":"function","name":"borrowers","inputs":[{"name":"","type":"address","internalType":"address"}],"outputs":[{"name":"amount","type":"uint256","internalType":"uint256"},{"name":"weightedAPY","type":"uint256","internalType":"uint256"},{"name":"timestamp","type":"uint256","internalType":"uint256"},{"name":"dueDate","type":"uint256","internalType":"uint256"},{"name":"active","type":"bool","internalType":"bool"}],"stateMutability":"view"},{"type":"function","name":"claimInterest","inputs":[],"outputs":[],"stateMutability":"nonpayable"},{"type":"function","name":"getContractBalance","inputs":[],"outputs":[{"name":"","type":"uint256","internalType":"uint256"}],"stateMutability":"view"},{"type":"function","name":"getLenderDetails","inputs":[{"name":"lender","type":"address","internalType":"address"}],"outputs":[{"name":"totalDeposited","type":"uint256","internalType":"uint256"},{"name":"availableAmount","type":"uint256","internalType":"uint256"},{"name":"lentAmount","type":"uint256","internalType":"uint256"},{"name":"earnedInterest","type":"uint256","internalType":"uint256"},{"name":"fixedAPY","type":"uint256","internalType":"uint256"},{"name":"active","type":"bool","internalType":"bool"}],"stateMutability":"view"},{"type":"function","name":"getPoolStatus","inputs":[],"outputs":[{"name":"totalAvailable","type":"uint256","internalType":"uint256"},{"name":"totalLent","type":"uint256","internalType":"uint256"},{"name":"activeLenders","type":"uint256","internalType":"uint256"},{"name":"activeBorrowers","type":"uint256","internalType":"uint256"},{"name":"averageAPY","type":"uint256","internalType":"uint256"},{"name":"totalInterest","type":"uint256","internalType":"uint256"}],"stateMutability":"view"},{"type":"function","name":"lenderList","inputs":[{"name":"","type":"uint256","internalType":"uint256"}],"outputs":[{"name":"","type":"address","internalType":"address"}],"stateMutability":"view"},{"type":"function","name":"lenders","inputs":[{"name":"","type":"address","internalType":"address"}],"outputs":[{"name":"totalDeposited","type":"uint256","internalType":"uint256"},{"name":"availableAmount","type":"uint256","internalType":"uint256"},{"name":"lentAmount","type":"uint256","internalType":"uint256"},{"name":"earnedInterest","type":"uint256","internalType":"uint256"},{"name":"fixedAPY","type":"uint256","internalType":"uint256"},{"name":"active","type":"bool","internalType":"bool"},{"name":"timestamp","type":"uint256","internalType":"uint256"}],"stateMutability":"view"},{"type":"function","name":"liquidateLoan","inputs":[{"name":"borrowerAddr","type":"address","internalType":"address"}],"outputs":[],"stateMutability":"nonpayable"},{"type":"function","name":"maxAPY","inputs":[],"outputs":[{"name":"","type":"uint256","internalType":"uint256"}],"stateMutability":"view"},{"type":"function","name":"minAPY","inputs":[],"outputs":[{"name":"","type":"uint256","internalType":"uint256"}],"stateMutability":"view"},{"type":"function","name":"owner","inputs":[],"outputs":[{"name":"","type":"address","internalType":"address"}],"stateMutability":"view"},{"type":"function","name":"pause","inputs":[],"outputs":[],"stateMutability":"nonpayable"},{"type":"function","name":"paused","inputs":[],"outputs":[{"name":"","type":"bool","internalType":"bool"}],"stateMutability":"view"},{"type":"function","name":"pythOracle","inputs":[],"outputs":[{"name":"","type":"address","internalType":"contract IPythOracle"}],"stateMutability":"view"},{"type":"function","name":"renounceOwnership","inputs":[],"outputs":[],"stateMutability":"nonpayable"},{"type":"function","name":"repayLoan","inputs":[],"outputs":[],"stateMutability":"nonpayable"},{"type":"function","name":"requestLoan","inputs":[{"name":"amount","type":"uint256","internalType":"uint256"}],"outputs":[],"stateMutability":"nonpayable"},{"type":"function","name":"simulateLoan","inputs":[{"name":"amount","type":"uint256","internalType":"uint256"}],"outputs":[{"name":"chunks","type":"tuple[]","internalType":"struct LendingPoolFixed.LoanChunk[]","components":[{"name":"lender","type":"address","internalType":"address"},{"name":"amount","type":"uint256","internalType":"uint256"},{"name":"apy","type":"uint256","internalType":"uint256"}]},{"name":"weightedAPY","type":"uint256","internalType":"uint256"}],"stateMutability":"view"},{"type":"function","name":"totalAvailableLiquidity","inputs":[],"outputs":[{"name":"","type":"uint256","internalType":"uint256"}],"stateMutability":"view"},{"type":"function","name":"totalInterestEarned","inputs":[],"outputs":[{"name":"","type":"uint256","internalType":"uint256"}],"stateMutability":"view"},{"type":"function","name":"totalLentAmount","inputs":[],"outputs":[{"name":"","type":"uint256","internalType":"uint256"}],"stateMutability":"view"},{"type":"function","name":"transferOwnership","inputs":[{"name":"newOwner","type":"address","internalType":"address"}],"outputs":[],"stateMutability":"nonpayable"},{"type":"function","name":"unpause","inputs":[],"outputs":[],"stateMutability":"nonpayable"},{"type":"function","name":"updateAPYRange","inputs":[],"outputs":[],"stateMutability":"nonpayable"},{"type":"function","name":"usdcToken","inputs":[],"outputs":[{"name":"","type":"address","internalType":"contract IERC20"}],"stateMutability":"view"},{"type":"function","name":"withdrawLiquidity","inputs":[{"name":"amount","type":"uint256","internalType":"uint256"}],"outputs":[],"stateMutability":"nonpayable"},{"type":"event","name":"BorrowerMatched","inputs":[{"name":"borrower","type":"address","indexed":true,"internalType":"address"},{"name":"amount","type":"uint256","indexed":false,"internalType":"uint256"},{"name":"weightedAPY","type":"uint256","indexed":false,"internalType":"uint256"},{"name":"dueDate","type":"uint256","indexed":false,"internalType":"uint256"}],"anonymous":false},{"type":"event","name":"InterestClaimed","inputs":[{"name":"lender","type":"address","indexed":true,"internalType":"address"},{"name":"interest","type":"uint256","indexed":false,"internalType":"uint256"}],"anonymous":false},{"type":"event","name":"LenderAdded","inputs":[{"name":"lender","type":"address","indexed":true,"internalType":"address"},{"name":"amount","type":"uint256","indexed":false,"internalType":"uint256"},{"name":"apy","type":"uint256","indexed":false,"internalType":"uint256"}],"anonymous":false},{"type":"event","name":"LiquidityWithdrawn","inputs":[{"name":"lender","type":"address","indexed":true,"internalType":"address"},{"name":"amount","type":"uint256","indexed":false,"internalType":"uint256"}],"anonymous":false},{"type":"event","name":"LoanLiquidated","inputs":[{"name":"borrower","type":"address","indexed":true,"internalType":"address"},{"name":"amount","type":"uint256","indexed":false,"internalType":"uint256"}],"anonymous":false},{"type":"event","name":"LoanRepaid","inputs":[{"name":"borrower","type":"address","indexed":true,"internalType":"address"},{"name":"principal","type":"uint256","indexed":false,"internalType":"uint256"},{"name":"interest","type":"uint256","indexed":false,"internalType":"uint256"}],"anonymous":false},{"type":"event","name":"OwnershipTransferred","inputs":[{"name":"previousOwner","type":"address","indexed":true,"internalType":"address"},{"name":"newOwner","type":"address","indexed":true,"internalType":"address"}],"anonymous":false},{"type":"event","name":"Paused","inputs":[{"name":"account","type":"address","indexed":false,"internalType":"address"}],"anonymous":false},{"type":"event","name":"Unpaused","inputs":[{"name":"account","type":"address","indexed":false,"internalType":"address"}],"anonymous":false}],"bytecode":{"object":"0x60a06040526064600b556107d0600c5534801561001a575f5ffd5b50604051614e72380380614e72833981810160405281019061003c919061021c565b60015f8190555061005f6100546100f460201b60201c565b6100fb60201b60201c565b5f600160146101000a81548160ff0219169083151502179055508173ffffffffffffffffffffffffffffffffffffffff1660808173ffffffffffffffffffffffffffffffffffffffff16815250508060025f6101000a81548173ffffffffffffffffffffffffffffffffffffffff021916908373ffffffffffffffffffffffffffffffffffffffff160217905550505061025a565b5f33905090565b5f60015f9054906101000a900473ffffffffffffffffffffffffffffffffffffffff1690508160015f6101000a81548173ffffffffffffffffffffffffffffffffffffffff021916908373ffffffffffffffffffffffffffffffffffffffff1602179055508173ffffffffffffffffffffffffffffffffffffffff168173ffffffffffffffffffffffffffffffffffffffff167f8be0079c531659141344cd1fd0a4f28419497f9722a3daafe3b4186f6b6457e060405160405180910390a35050565b5f5ffd5b5f73ffffffffffffffffffffffffffffffffffffffff82169050919050565b5f6101eb826101c2565b9050919050565b6101fb816101e1565b8114610205575f5ffd5b50565b5f81519050610216816101f2565b92915050565b5f5f60408385031215610232576102316101be565b5b5f61023f85828601610208565b925050602061025085828601610208565b9150509250929050565b608051614bd661029c5f395f8181610909015281816109fe01528181610c0b0152818161110a0152818161199001528181611b08015261255a0152614bd65ff3fe608060405234801561000f575f5ffd5b50600436106101f9575f3560e01c806389ff202911610118578063e02a4dfd116100ab578063f2fde38b1161007a578063f2fde38b1461056e578063f47790d61461058a578063f5d6ac90146105a8578063f966ade7146105c6578063fb071758146105d0576101f9565b8063e02a4dfd146104e2578063e1f1c4a714610500578063e3ed19021461051e578063e49eaee014610550576101f9565b8063b3a66524116100e7578063b3a6652414610444578063b7d93f3414610474578063bbdfa00e14610492578063bf5d50c4146104ae576101f9565b806389ff2029146103b95780638d5d3429146103ee5780638da5cb5b1461040a5780639cd441da14610428576101f9565b80636085c7df11610190578063735d80e31161015f578063735d80e3146103645780637c1578d8146103825780637f79496c1461038c5780638456cb59146103af576101f9565b80636085c7df146102ee5780636a31db181461031e5780636f9fb98a1461033c578063715018a61461035a576101f9565b80633f4ba83a116101cc5780633f4ba83a1461027757806343f7f740146102815780635c975abb1461029f5780635ee7146c146102bd576101f9565b80630a861f2a146101fd57806311eac8551461021957806328fd10d71461023757806335981fd81461026d575b5f5ffd5b61021760048036038101906102129190613afa565b6105ee565b005b6102216109fc565b60405161022e9190613b9f565b60405180910390f35b610251600480360381019061024c9190613bf3565b610a20565b6040516102649796959493929190613c47565b60405180910390f35b610275610a6a565b005b61027f610cfe565b005b610289610d10565b6040516102969190613cb4565b60405180910390f35b6102a7610d16565b6040516102b49190613ccd565b60405180910390f35b6102d760048036038101906102d29190613afa565b610d2c565b6040516102e5929190613dec565b60405180910390f35b61030860048036038101906103039190613afa565b6110c6565b6040516103159190613e29565b60405180910390f35b610326611101565b6040516103339190613cb4565b60405180910390f35b610344611107565b6040516103519190613cb4565b60405180910390f35b6103626111a5565b005b61036c6111b8565b6040516103799190613cb4565b60405180910390f35b61038a6111be565b005b6103946112d1565b6040516103a696959493929190613e42565b60405180910390f35b6103b7611520565b005b6103d360048036038101906103ce9190613bf3565b611532565b6040516103e596959493929190613ea1565b60405180910390f35b61040860048036038101906104039190613afa565b61160b565b005b610412611a39565b60405161041f9190613e29565b60405180910390f35b610442600480360381019061043d9190613f00565b611a61565b005b61045e60048036038101906104599190613afa565b611e8f565b60405161046b9190613e29565b60405180910390f35b61047c611eca565b6040516104899190613cb4565b60405180910390f35b6104ac60048036038101906104a79190613bf3565b611ed0565b005b6104c860048036038101906104c39190613bf3565b6122ba565b6040516104d9959493929190613f3e565b60405180910390f35b6104ea6122f8565b6040516104f79190613cb4565b60405180910390f35b6105086122ff565b6040516105159190613cb4565b60405180910390f35b61053860048036038101906105339190613f8f565b612305565b60405161054793929190613fcd565b60405180910390f35b610558612364565b6040516105659190613cb4565b60405180910390f35b61058860048036038101906105839190613bf3565b61236a565b005b6105926123ec565b60405161059f9190613cb4565b60405180910390f35b6105b06123f4565b6040516105bd9190614022565b60405180910390f35b6105ce612419565b005b6105d86128f9565b6040516105e59190614053565b60405180910390f35b6105f661291f565b60035f3373ffffffffffffffffffffffffffffffffffffffff1673ffffffffffffffffffffffffffffffffffffffff1681526020019081526020015f206005015f9054906101000a900460ff16610682576040517f08c379a0000000000000000000000000000000000000000000000000000000008152600401610679906140c6565b60405180910390fd5b8060035f3373ffffffffffffffffffffffffffffffffffffffff1673ffffffffffffffffffffffffffffffffffffffff1681526020019081526020015f20600101541015610705576040517f08c379a00000000000000000000000000000000000000000000000000000000081526004016106fc9061412e565b60405180910390fd5b8060035f3373ffffffffffffffffffffffffffffffffffffffff1673ffffffffffffffffffffffffffffffffffffffff1681526020019081526020015f206001015f8282546107549190614179565b925050819055508060035f3373ffffffffffffffffffffffffffffffffffffffff1673ffffffffffffffffffffffffffffffffffffffff1681526020019081526020015f205f015f8282546107a99190614179565b925050819055508060085f8282546107c19190614179565b925050819055505f60035f3373ffffffffffffffffffffffffffffffffffffffff1673ffffffffffffffffffffffffffffffffffffffff1681526020019081526020015f206001015414801561085657505f60035f3373ffffffffffffffffffffffffffffffffffffffff1673ffffffffffffffffffffffffffffffffffffffff1681526020019081526020015f2060020154145b80156108a157505f60035f3373ffffffffffffffffffffffffffffffffffffffff1673ffffffffffffffffffffffffffffffffffffffff1681526020019081526020015f2060030154145b15610907575f60035f3373ffffffffffffffffffffffffffffffffffffffff1673ffffffffffffffffffffffffffffffffffffffff1681526020019081526020015f206005015f6101000a81548160ff0219169083151502179055506109063361296c565b5b7f000000000000000000000000000000000000000000000000000000000000000073ffffffffffffffffffffffffffffffffffffffff1663a9059cbb33836040518363ffffffff1660e01b81526004016109629291906141ac565b6020604051808303815f875af115801561097e573d5f5f3e3d5ffd5b505050506040513d601f19601f820116820180604052508101906109a291906141fd565b503373ffffffffffffffffffffffffffffffffffffffff167fb1cce8684b4ffa8667b4577654e61ee3480d661ee9c27522ac80e211f6bd4d25826040516109e99190613cb4565b60405180910390a26109f9612aec565b50565b7f000000000000000000000000000000000000000000000000000000000000000081565b6003602052805f5260405f205f91509050805f015490806001015490806002015490806003015490806004015490806005015f9054906101000a900460ff16908060060154905087565b610a7261291f565b60035f3373ffffffffffffffffffffffffffffffffffffffff1673ffffffffffffffffffffffffffffffffffffffff1681526020019081526020015f206005015f9054906101000a900460ff16610afe576040517f08c379a0000000000000000000000000000000000000000000000000000000008152600401610af5906140c6565b60405180910390fd5b5f60035f3373ffffffffffffffffffffffffffffffffffffffff1673ffffffffffffffffffffffffffffffffffffffff1681526020019081526020015f206003015411610b80576040517f08c379a0000000000000000000000000000000000000000000000000000000008152600401610b7790614272565b60405180910390fd5b5f60035f3373ffffffffffffffffffffffffffffffffffffffff1673ffffffffffffffffffffffffffffffffffffffff1681526020019081526020015f206003015490505f60035f3373ffffffffffffffffffffffffffffffffffffffff1673ffffffffffffffffffffffffffffffffffffffff1681526020019081526020015f20600301819055507f000000000000000000000000000000000000000000000000000000000000000073ffffffffffffffffffffffffffffffffffffffff1663a9059cbb33836040518363ffffffff1660e01b8152600401610c649291906141ac565b6020604051808303815f875af1158015610c80573d5f5f3e3d5ffd5b505050506040513d601f19601f82011682018060405250810190610ca491906141fd565b503373ffffffffffffffffffffffffffffffffffffffff167ff9984c8173c4b4ff9cc454f76ed19c053f4490ccb224fd9ddffeb4ef4bea353082604051610ceb9190613cb4565b60405180910390a250610cfc612aec565b565b610d06612af5565b610d0e612b73565b565b60095481565b5f600160149054906101000a900460ff16905090565b60605f600854831115610d74576040517f08c379a0000000000000000000000000000000000000000000000000000000008152600401610d6b90614300565b60405180910390fd5b5f60068054905067ffffffffffffffff811115610d9457610d9361431e565b5b604051908082528060200260200182016040528015610dcd57816020015b610dba613a24565b815260200190600190039081610db25790505b5090505f5f90505f8590505f610de9633b9aca00881115612bd5565b90505f5f90505b815181108015610dff57505f83115b15610f7b575f828281518110610e1857610e1761434b565b5b602002602001015190505f60035f8373ffffffffffffffffffffffffffffffffffffffff1673ffffffffffffffffffffffffffffffffffffffff1681526020019081526020015f206040518060e00160405290815f820154815260200160018201548152602001600282015481526020016003820154815260200160048201548152602001600582015f9054906101000a900460ff1615151515815260200160068201548152505090508060a001518015610ed657505f8160200151115b15610f66575f81602001518611610eed5785610ef3565b81602001515b905060405180606001604052808473ffffffffffffffffffffffffffffffffffffffff1681526020018281526020018360800151815250888881518110610f3d57610f3c61434b565b5b60200260200101819052508086610f549190614179565b95508680610f6190614378565b975050505b50508080610f7390614378565b915050610df0565b508267ffffffffffffffff811115610f9657610f9561431e565b5b604051908082528060200260200182016040528015610fcf57816020015b610fbc613a24565b815260200190600190039081610fb45790505b5095505f5f90505b8381101561102557848181518110610ff257610ff161434b565b5b602002602001015187828151811061100d5761100c61434b565b5b60200260200101819052508080600101915050610fd7565b505f8311156110bd575f5f90505f5f90505b848110156110a1578781815181106110525761105161434b565b5b6020026020010151604001518882815181106110715761107061434b565b5b60200260200101516020015161108791906143bf565b826110929190614400565b91508080600101915050611037565b5082886110ae9190614179565b816110b99190614460565b9550505b50505050915091565b600681815481106110d5575f80fd5b905f5260205f20015f915054906101000a900473ffffffffffffffffffffffffffffffffffffffff1681565b600b5481565b5f7f000000000000000000000000000000000000000000000000000000000000000073ffffffffffffffffffffffffffffffffffffffff166370a08231306040518263ffffffff1660e01b81526004016111619190613e29565b602060405180830381865afa15801561117c573d5f5f3e3d5ffd5b505050506040513d601f19601f820116820180604052508101906111a091906144a4565b905090565b6111ad612af5565b6111b65f613219565b565b60085481565b6111c6612af5565b60025f9054906101000a900473ffffffffffffffffffffffffffffffffffffffff1673ffffffffffffffffffffffffffffffffffffffff166331d98b3f7feaa020c61cc479712813461ce153894a96a6c00b21ed0cfc2798d1f9a9e9c94a5f1b6040518263ffffffff1660e01b81526004016112429190614053565b608060405180830381865afa92505050801561127c57506040513d601f19601f820116820180604052508101906112799190614578565b60015b156112cf576305f45a608460070b13801561129d57506305f767a08460070b125b156112b8576064600b819055506103e8600c819055506112ca565b60c8600b819055506107d0600c819055505b505050505b565b5f5f5f5f5f5f60085495506009549450600a5490505f5f90505f5f90505f5f90505f5f90505b6006805490508110156114365760035f6006838154811061131b5761131a61434b565b5b905f5260205f20015f9054906101000a900473ffffffffffffffffffffffffffffffffffffffff1673ffffffffffffffffffffffffffffffffffffffff1673ffffffffffffffffffffffffffffffffffffffff1681526020019081526020015f206005015f9054906101000a900460ff161561142957838061139c90614378565b94505060035f600683815481106113b6576113b561434b565b5b905f5260205f20015f9054906101000a900473ffffffffffffffffffffffffffffffffffffffff1673ffffffffffffffffffffffffffffffffffffffff1673ffffffffffffffffffffffffffffffffffffffff1681526020019081526020015f2060040154826114269190614400565b91505b80806001019150506112f7565b505f5f90505b6007805490508110156114f25760045f600783815481106114605761145f61434b565b5b905f5260205f20015f9054906101000a900473ffffffffffffffffffffffffffffffffffffffff1673ffffffffffffffffffffffffffffffffffffffff1673ffffffffffffffffffffffffffffffffffffffff1681526020019081526020015f206004015f9054906101000a900460ff16156114e55782806114e190614378565b9350505b808060010191505061143c565b508296508195505f8311611506575f611513565b82816115129190614460565b5b9450505050909192939495565b611528612af5565b6115306132dc565b565b5f5f5f5f5f5f5f60035f8973ffffffffffffffffffffffffffffffffffffffff1673ffffffffffffffffffffffffffffffffffffffff1681526020019081526020015f206040518060e00160405290815f820154815260200160018201548152602001600282015481526020016003820154815260200160048201548152602001600582015f9054906101000a900460ff161515151581526020016006820154815250509050805f015181602001518260400151836060015184608001518560a001519650965096509650965096505091939550919395565b61161361291f565b61161b61333e565b5f811161165d576040517f08c379a000000000000000000000000000000000000000000000000000000000815260040161165490614626565b60405180910390fd5b6008548111156116a2576040517f08c379a00000000000000000000000000000000000000000000000000000000081526004016116999061468e565b60405180910390fd5b60045f3373ffffffffffffffffffffffffffffffffffffffff1673ffffffffffffffffffffffffffffffffffffffff1681526020019081526020015f206004015f9054906101000a900460ff161561172f576040517f08c379a0000000000000000000000000000000000000000000000000000000008152600401611726906146f6565b60405180910390fd5b5f60055f3373ffffffffffffffffffffffffffffffffffffffff1673ffffffffffffffffffffffffffffffffffffffff1681526020019081526020015f2090505f829050633b9aca00831161178f576117888383613388565b905061179c565b611799838361356b565b90505b5f81146117de576040517f08c379a00000000000000000000000000000000000000000000000000000000081526004016117d59061475e565b60405180910390fd5b5f6117e9838561374d565b90505f62278d00426117fb9190614400565b90506040518060a001604052808681526020018381526020014281526020018281526020016001151581525060045f3373ffffffffffffffffffffffffffffffffffffffff1673ffffffffffffffffffffffffffffffffffffffff1681526020019081526020015f205f820151815f01556020820151816001015560408201518160020155606082015181600301556080820151816004015f6101000a81548160ff021916908315150217905550905050600733908060018154018082558091505060019003905f5260205f20015f9091909190916101000a81548173ffffffffffffffffffffffffffffffffffffffff021916908373ffffffffffffffffffffffffffffffffffffffff1602179055508460085f82825461191d9190614179565b925050819055508460095f8282546119359190614400565b925050819055503373ffffffffffffffffffffffffffffffffffffffff167fe44a53e2c170d3cef28db81cb8a03df2a604e4b2754041290e420c63c94609938684846040516119869392919061477c565b60405180910390a27f000000000000000000000000000000000000000000000000000000000000000073ffffffffffffffffffffffffffffffffffffffff1663a9059cbb33876040518363ffffffff1660e01b81526004016119e99291906141ac565b6020604051808303815f875af1158015611a05573d5f5f3e3d5ffd5b505050506040513d601f19601f82011682018060405250810190611a2991906141fd565b5050505050611a36612aec565b50565b5f60015f9054906101000a900473ffffffffffffffffffffffffffffffffffffffff16905090565b611a6961291f565b611a7161333e565b5f8211611ab3576040517f08c379a0000000000000000000000000000000000000000000000000000000008152600401611aaa90614626565b60405180910390fd5b600b548110158015611ac75750600c548111155b611b06576040517f08c379a0000000000000000000000000000000000000000000000000000000008152600401611afd906147fb565b60405180910390fd5b7f000000000000000000000000000000000000000000000000000000000000000073ffffffffffffffffffffffffffffffffffffffff166323b872dd3330856040518463ffffffff1660e01b8152600401611b6393929190614819565b6020604051808303815f875af1158015611b7f573d5f5f3e3d5ffd5b505050506040513d601f19601f82011682018060405250810190611ba391906141fd565b5060035f3373ffffffffffffffffffffffffffffffffffffffff1673ffffffffffffffffffffffffffffffffffffffff1681526020019081526020015f206005015f9054906101000a900460ff1615611ceb578160035f3373ffffffffffffffffffffffffffffffffffffffff1673ffffffffffffffffffffffffffffffffffffffff1681526020019081526020015f205f015f828254611c449190614400565b925050819055508160035f3373ffffffffffffffffffffffffffffffffffffffff1673ffffffffffffffffffffffffffffffffffffffff1681526020019081526020015f206001015f828254611c9a9190614400565b925050819055508060035f3373ffffffffffffffffffffffffffffffffffffffff1673ffffffffffffffffffffffffffffffffffffffff1681526020019081526020015f2060040181905550611e1b565b6040518060e001604052808381526020018381526020015f81526020015f81526020018281526020016001151581526020014281525060035f3373ffffffffffffffffffffffffffffffffffffffff1673ffffffffffffffffffffffffffffffffffffffff1681526020019081526020015f205f820151815f01556020820151816001015560408201518160020155606082015181600301556080820151816004015560a0820151816005015f6101000a81548160ff02191690831515021790555060c08201518160060155905050600633908060018154018082558091505060019003905f5260205f20015f9091909190916101000a81548173ffffffffffffffffffffffffffffffffffffffff021916908373ffffffffffffffffffffffffffffffffffffffff1602179055505b8160085f828254611e2c9190614400565b925050819055503373ffffffffffffffffffffffffffffffffffffffff167f285470c6b5545d27592cf5d76ca5e9218adb42b2ee2f0a6019212a6eb93ba9888383604051611e7b92919061484e565b60405180910390a2611e8b612aec565b5050565b60078181548110611e9e575f80fd5b905f5260205f20015f915054906101000a900473ffffffffffffffffffffffffffffffffffffffff1681565b600a5481565b611ed861291f565b60045f8273ffffffffffffffffffffffffffffffffffffffff1673ffffffffffffffffffffffffffffffffffffffff1681526020019081526020015f206004015f9054906101000a900460ff16611f64576040517f08c379a0000000000000000000000000000000000000000000000000000000008152600401611f5b906148bf565b60405180910390fd5b60045f8273ffffffffffffffffffffffffffffffffffffffff1673ffffffffffffffffffffffffffffffffffffffff1681526020019081526020015f20600301544211611fe6576040517f08c379a0000000000000000000000000000000000000000000000000000000008152600401611fdd90614927565b60405180910390fd5b5f60045f8373ffffffffffffffffffffffffffffffffffffffff1673ffffffffffffffffffffffffffffffffffffffff1681526020019081526020015f2090505f60055f8473ffffffffffffffffffffffffffffffffffffffff1673ffffffffffffffffffffffffffffffffffffffff1681526020019081526020015f2090505f5f90505b8180549050811015612181575f82828154811061208b5761208a61434b565b5b905f5260205f20906003020190505f815f015f9054906101000a900473ffffffffffffffffffffffffffffffffffffffff169050816001015460035f8373ffffffffffffffffffffffffffffffffffffffff1673ffffffffffffffffffffffffffffffffffffffff1681526020019081526020015f206002015f8282546121129190614179565b92505081905550816001015460035f8373ffffffffffffffffffffffffffffffffffffffff1673ffffffffffffffffffffffffffffffffffffffff1681526020019081526020015f205f015f82825461216b9190614179565b925050819055505050808060010191505061206b565b50815f015460095f8282546121969190614179565b9250508190555060045f8473ffffffffffffffffffffffffffffffffffffffff1673ffffffffffffffffffffffffffffffffffffffff1681526020019081526020015f205f5f82015f9055600182015f9055600282015f9055600382015f9055600482015f6101000a81549060ff0219169055505060055f8473ffffffffffffffffffffffffffffffffffffffff1673ffffffffffffffffffffffffffffffffffffffff1681526020019081526020015f205f6122539190613a58565b61225c836137f7565b8273ffffffffffffffffffffffffffffffffffffffff167fd75168f1c9346a6c18eaeba0d3c95ea70b5dc2c0c280274a670c97cb8e4f415b835f01546040516122a59190613cb4565b60405180910390a250506122b7612aec565b50565b6004602052805f5260405f205f91509050805f015490806001015490806002015490806003015490806004015f9054906101000a900460ff16905085565b62278d0081565b61271081565b6005602052815f5260405f20818154811061231e575f80fd5b905f5260205f2090600302015f9150915050805f015f9054906101000a900473ffffffffffffffffffffffffffffffffffffffff16908060010154908060020154905083565b600c5481565b612372612af5565b5f73ffffffffffffffffffffffffffffffffffffffff168173ffffffffffffffffffffffffffffffffffffffff16036123e0576040517f08c379a00000000000000000000000000000000000000000000000000000000081526004016123d7906149b5565b60405180910390fd5b6123e981613219565b50565b633b9aca0081565b60025f9054906101000a900473ffffffffffffffffffffffffffffffffffffffff1681565b61242161291f565b60045f3373ffffffffffffffffffffffffffffffffffffffff1673ffffffffffffffffffffffffffffffffffffffff1681526020019081526020015f206004015f9054906101000a900460ff166124ad576040517f08c379a00000000000000000000000000000000000000000000000000000000081526004016124a4906148bf565b60405180910390fd5b5f60045f3373ffffffffffffffffffffffffffffffffffffffff1673ffffffffffffffffffffffffffffffffffffffff1681526020019081526020015f2090505f60055f3373ffffffffffffffffffffffffffffffffffffffff1673ffffffffffffffffffffffffffffffffffffffff1681526020019081526020015f2090505f612544835f015484600101548560020154613977565b90505f835f0154826125569190614179565b90507f000000000000000000000000000000000000000000000000000000000000000073ffffffffffffffffffffffffffffffffffffffff166323b872dd3330856040518463ffffffff1660e01b81526004016125b593929190614819565b6020604051808303815f875af11580156125d1573d5f5f3e3d5ffd5b505050506040513d601f19601f820116820180604052508101906125f591906141fd565b505f5f90505b838054905081101561278a575f84828154811061261b5761261a61434b565b5b905f5260205f20906003020190505f815f015f9054906101000a900473ffffffffffffffffffffffffffffffffffffffff1690505f875f015483600101548661266491906143bf565b61266e9190614460565b9050826001015460035f8473ffffffffffffffffffffffffffffffffffffffff1673ffffffffffffffffffffffffffffffffffffffff1681526020019081526020015f206001015f8282546126c39190614400565b92505081905550826001015460035f8473ffffffffffffffffffffffffffffffffffffffff1673ffffffffffffffffffffffffffffffffffffffff1681526020019081526020015f206002015f82825461271d9190614179565b925050819055508060035f8473ffffffffffffffffffffffffffffffffffffffff1673ffffffffffffffffffffffffffffffffffffffff1681526020019081526020015f206003015f8282546127739190614400565b9250508190555050505080806001019150506125fb565b50835f015460085f82825461279f9190614400565b92505081905550835f015460095f8282546127ba9190614179565b9250508190555080600a5f8282546127d29190614400565b9250508190555060045f3373ffffffffffffffffffffffffffffffffffffffff1673ffffffffffffffffffffffffffffffffffffffff1681526020019081526020015f205f5f82015f9055600182015f9055600282015f9055600382015f9055600482015f6101000a81549060ff0219169055505060055f3373ffffffffffffffffffffffffffffffffffffffff1673ffffffffffffffffffffffffffffffffffffffff1681526020019081526020015f205f61288f9190613a58565b612898336137f7565b3373ffffffffffffffffffffffffffffffffffffffff167fc7ce0a35f17b490de2a317e7fecb2cae86b1abffb03800b2f492823521382698855f0154836040516128e392919061484e565b60405180910390a2505050506128f7612aec565b565b7feaa020c61cc479712813461ce153894a96a6c00b21ed0cfc2798d1f9a9e9c94a5f1b81565b60025f5403612963576040517f08c379a000000000000000000000000000000000000000000000000000000000815260040161295a90614a1d565b60405180910390fd5b60025f81905550565b5f5f90505b600680549050811015612ae8578173ffffffffffffffffffffffffffffffffffffffff16600682815481106129a9576129a861434b565b5b905f5260205f20015f9054906101000a900473ffffffffffffffffffffffffffffffffffffffff1673ffffffffffffffffffffffffffffffffffffffff1603612adb5760066001600680549050612a009190614179565b81548110612a1157612a1061434b565b5b905f5260205f20015f9054906101000a900473ffffffffffffffffffffffffffffffffffffffff1660068281548110612a4d57612a4c61434b565b5b905f5260205f20015f6101000a81548173ffffffffffffffffffffffffffffffffffffffff021916908373ffffffffffffffffffffffffffffffffffffffff1602179055506006805480612aa457612aa3614a3b565b5b600190038181905f5260205f20015f6101000a81549073ffffffffffffffffffffffffffffffffffffffff02191690559055612ae8565b8080600101915050612971565b5050565b60015f81905550565b612afd6139d4565b73ffffffffffffffffffffffffffffffffffffffff16612b1b611a39565b73ffffffffffffffffffffffffffffffffffffffff1614612b71576040517f08c379a0000000000000000000000000000000000000000000000000000000008152600401612b6890614ab2565b60405180910390fd5b565b612b7b6139db565b5f600160146101000a81548160ff0219169083151502179055507f5db9ee0a495bf2e6ff9c91a7834c1ba4fdd244a5e8aa4e537bd38aeae4b073aa612bbe6139d4565b604051612bcb9190613e29565b60405180910390a1565b60605f5f90505f5f90505b600680549050811015612d1c5760035f60068381548110612c0457612c0361434b565b5b905f5260205f20015f9054906101000a900473ffffffffffffffffffffffffffffffffffffffff1673ffffffffffffffffffffffffffffffffffffffff1673ffffffffffffffffffffffffffffffffffffffff1681526020019081526020015f206005015f9054906101000a900460ff168015612cfb57505f60035f60068481548110612c9457612c9361434b565b5b905f5260205f20015f9054906101000a900473ffffffffffffffffffffffffffffffffffffffff1673ffffffffffffffffffffffffffffffffffffffff1673ffffffffffffffffffffffffffffffffffffffff1681526020019081526020015f2060010154115b15612d0f578180612d0b90614378565b9250505b8080600101915050612be0565b505f8167ffffffffffffffff811115612d3857612d3761431e565b5b604051908082528060200260200182016040528015612d665781602001602082028036833780820191505090505b5090505f5f90505f5f90505b600680549050811015612f375760035f60068381548110612d9657612d9561434b565b5b905f5260205f20015f9054906101000a900473ffffffffffffffffffffffffffffffffffffffff1673ffffffffffffffffffffffffffffffffffffffff1673ffffffffffffffffffffffffffffffffffffffff1681526020019081526020015f206005015f9054906101000a900460ff168015612e8d57505f60035f60068481548110612e2657612e2561434b565b5b905f5260205f20015f9054906101000a900473ffffffffffffffffffffffffffffffffffffffff1673ffffffffffffffffffffffffffffffffffffffff1673ffffffffffffffffffffffffffffffffffffffff1681526020019081526020015f2060010154115b15612f2a5760068181548110612ea657612ea561434b565b5b905f5260205f20015f9054906101000a900473ffffffffffffffffffffffffffffffffffffffff16838381518110612ee157612ee061434b565b5b602002602001019073ffffffffffffffffffffffffffffffffffffffff16908173ffffffffffffffffffffffffffffffffffffffff16815250508180612f2690614378565b9250505b8080600101915050612d72565b505f5f90505b8381101561320d575f5f90505b60018286612f589190614179565b612f629190614179565b8110156131ff575f876130375760035f86600185612f809190614400565b81518110612f9157612f9061434b565b5b602002602001015173ffffffffffffffffffffffffffffffffffffffff1673ffffffffffffffffffffffffffffffffffffffff1681526020019081526020015f206004015460035f878581518110612fec57612feb61434b565b5b602002602001015173ffffffffffffffffffffffffffffffffffffffff1673ffffffffffffffffffffffffffffffffffffffff1681526020019081526020015f2060040154106130fb565b60035f866001856130489190614400565b815181106130595761305861434b565b5b602002602001015173ffffffffffffffffffffffffffffffffffffffff1673ffffffffffffffffffffffffffffffffffffffff1681526020019081526020015f206004015460035f8785815181106130b4576130b361434b565b5b602002602001015173ffffffffffffffffffffffffffffffffffffffff1673ffffffffffffffffffffffffffffffffffffffff1681526020019081526020015f2060040154115b905080156131f1575f8583815181106131175761311661434b565b5b602002602001015190508560018461312f9190614400565b815181106131405761313f61434b565b5b602002602001015186848151811061315b5761315a61434b565b5b602002602001019073ffffffffffffffffffffffffffffffffffffffff16908173ffffffffffffffffffffffffffffffffffffffff168152505080866001856131a49190614400565b815181106131b5576131b461434b565b5b602002602001019073ffffffffffffffffffffffffffffffffffffffff16908173ffffffffffffffffffffffffffffffffffffffff1681525050505b508080600101915050612f4a565b508080600101915050612f3d565b50819350505050919050565b5f60015f9054906101000a900473ffffffffffffffffffffffffffffffffffffffff1690508160015f6101000a81548173ffffffffffffffffffffffffffffffffffffffff021916908373ffffffffffffffffffffffffffffffffffffffff1602179055508173ffffffffffffffffffffffffffffffffffffffff168173ffffffffffffffffffffffffffffffffffffffff167f8be0079c531659141344cd1fd0a4f28419497f9722a3daafe3b4186f6b6457e060405160405180910390a35050565b6132e461333e565b60018060146101000a81548160ff0219169083151502179055507f62e78cea01bee320cd4e420270b5ea74000d11b0c9f74754ebdbfc544b05a2586133276139d4565b6040516133349190613e29565b60405180910390a1565b613346610d16565b15613386576040517f08c379a000000000000000000000000000000000000000000000000000000000815260040161337d90614b1a565b60405180910390fd5b565b5f5f8390505f6133986001612bd5565b90505f5f90505b8151811080156133ae57505f83115b1561355f575f8282815181106133c7576133c661434b565b5b602002602001015190505f60035f8373ffffffffffffffffffffffffffffffffffffffff1673ffffffffffffffffffffffffffffffffffffffff1681526020019081526020015f209050806005015f9054906101000a900460ff16801561343157505f8160010154115b1561354a575f81600101548611613448578561344e565b81600101545b90508760405180606001604052808573ffffffffffffffffffffffffffffffffffffffff1681526020018381526020018460040154815250908060018154018082558091505060019003905f5260205f2090600302015f909190919091505f820151815f015f6101000a81548173ffffffffffffffffffffffffffffffffffffffff021916908373ffffffffffffffffffffffffffffffffffffffff1602179055506020820151816001015560408201518160020155505080826001015f8282546135199190614179565b9250508190555080826002015f8282546135339190614400565b9250508190555080866135469190614179565b9550505b5050808061355790614378565b91505061339f565b50819250505092915050565b5f5f8390505f61357a5f612bd5565b90505f5f90505b81518110801561359057505f83115b15613741575f8282815181106135a9576135a861434b565b5b602002602001015190505f60035f8373ffffffffffffffffffffffffffffffffffffffff1673ffffffffffffffffffffffffffffffffffffffff1681526020019081526020015f209050806005015f9054906101000a900460ff16801561361357505f8160010154115b1561372c575f8160010154861161362a5785613630565b81600101545b90508760405180606001604052808573ffffffffffffffffffffffffffffffffffffffff1681526020018381526020018460040154815250908060018154018082558091505060019003905f5260205f2090600302015f909190919091505f820151815f015f6101000a81548173ffffffffffffffffffffffffffffffffffffffff021916908373ffffffffffffffffffffffffffffffffffffffff1602179055506020820151816001015560408201518160020155505080826001015f8282546136fb9190614179565b9250508190555080826002015f8282546137159190614400565b9250508190555080866137289190614179565b9550505b5050808061373990614378565b915050613581565b50819250505092915050565b5f5f838054905003613761575f90506137f1565b5f5f90505f5f90505b84805490508110156137e0578481815481106137895761378861434b565b5b905f5260205f209060030201600201548582815481106137ac576137ab61434b565b5b905f5260205f209060030201600101546137c691906143bf565b826137d19190614400565b9150808060010191505061376a565b5082816137ed9190614460565b9150505b92915050565b5f5f90505b600780549050811015613973578173ffffffffffffffffffffffffffffffffffffffff16600782815481106138345761383361434b565b5b905f5260205f20015f9054906101000a900473ffffffffffffffffffffffffffffffffffffffff1673ffffffffffffffffffffffffffffffffffffffff1603613966576007600160078054905061388b9190614179565b8154811061389c5761389b61434b565b5b905f5260205f20015f9054906101000a900473ffffffffffffffffffffffffffffffffffffffff16600782815481106138d8576138d761434b565b5b905f5260205f20015f6101000a81548173ffffffffffffffffffffffffffffffffffffffff021916908373ffffffffffffffffffffffffffffffffffffffff160217905550600780548061392f5761392e614a3b565b5b600190038181905f5260205f20015f6101000a81549073ffffffffffffffffffffffffffffffffffffffff02191690559055613973565b80806001019150506137fc565b5050565b5f5f82426139859190614179565b90505f6127106301e1338061399a91906143bf565b8286886139a791906143bf565b6139b191906143bf565b6139bb9190614460565b905080866139c99190614400565b925050509392505050565b5f33905090565b6139e3610d16565b613a22576040517f08c379a0000000000000000000000000000000000000000000000000000000008152600401613a1990614b82565b60405180910390fd5b565b60405180606001604052805f73ffffffffffffffffffffffffffffffffffffffff1681526020015f81526020015f81525090565b5080545f8255600302905f5260205f2090810190613a769190613a79565b50565b5b80821115613abf575f5f82015f6101000a81549073ffffffffffffffffffffffffffffffffffffffff0219169055600182015f9055600282015f905550600301613a7a565b5090565b5f5ffd5b5f819050919050565b613ad981613ac7565b8114613ae3575f5ffd5b50565b5f81359050613af481613ad0565b92915050565b5f60208284031215613b0f57613b0e613ac3565b5b5f613b1c84828501613ae6565b91505092915050565b5f73ffffffffffffffffffffffffffffffffffffffff82169050919050565b5f819050919050565b5f613b67613b62613b5d84613b25565b613b44565b613b25565b9050919050565b5f613b7882613b4d565b9050919050565b5f613b8982613b6e565b9050919050565b613b9981613b7f565b82525050565b5f602082019050613bb25f830184613b90565b92915050565b5f613bc282613b25565b9050919050565b613bd281613bb8565b8114613bdc575f5ffd5b50565b5f81359050613bed81613bc9565b92915050565b5f60208284031215613c0857613c07613ac3565b5b5f613c1584828501613bdf565b91505092915050565b613c2781613ac7565b82525050565b5f8115159050919050565b613c4181613c2d565b82525050565b5f60e082019050613c5a5f83018a613c1e565b613c676020830189613c1e565b613c746040830188613c1e565b613c816060830187613c1e565b613c8e6080830186613c1e565b613c9b60a0830185613c38565b613ca860c0830184613c1e565b98975050505050505050565b5f602082019050613cc75f830184613c1e565b92915050565b5f602082019050613ce05f830184613c38565b92915050565b5f81519050919050565b5f82825260208201905092915050565b5f819050602082019050919050565b613d1881613bb8565b82525050565b613d2781613ac7565b82525050565b606082015f820151613d415f850182613d0f565b506020820151613d546020850182613d1e565b506040820151613d676040850182613d1e565b50505050565b5f613d788383613d2d565b60608301905092915050565b5f602082019050919050565b5f613d9a82613ce6565b613da48185613cf0565b9350613daf83613d00565b805f5b83811015613ddf578151613dc68882613d6d565b9750613dd183613d84565b925050600181019050613db2565b5085935050505092915050565b5f6040820190508181035f830152613e048185613d90565b9050613e136020830184613c1e565b9392505050565b613e2381613bb8565b82525050565b5f602082019050613e3c5f830184613e1a565b92915050565b5f60c082019050613e555f830189613c1e565b613e626020830188613c1e565b613e6f6040830187613c1e565b613e7c6060830186613c1e565b613e896080830185613c1e565b613e9660a0830184613c1e565b979650505050505050565b5f60c082019050613eb45f830189613c1e565b613ec16020830188613c1e565b613ece6040830187613c1e565b613edb6060830186613c1e565b613ee86080830185613c1e565b613ef560a0830184613c38565b979650505050505050565b5f5f60408385031215613f1657613f15613ac3565b5b5f613f2385828601613ae6565b9250506020613f3485828601613ae6565b9150509250929050565b5f60a082019050613f515f830188613c1e565b613f5e6020830187613c1e565b613f6b6040830186613c1e565b613f786060830185613c1e565b613f856080830184613c38565b9695505050505050565b5f5f60408385031215613fa557613fa4613ac3565b5b5f613fb285828601613bdf565b9250506020613fc385828601613ae6565b9150509250929050565b5f606082019050613fe05f830186613e1a565b613fed6020830185613c1e565b613ffa6040830184613c1e565b949350505050565b5f61400c82613b6e565b9050919050565b61401c81614002565b82525050565b5f6020820190506140355f830184614013565b92915050565b5f819050919050565b61404d8161403b565b82525050565b5f6020820190506140665f830184614044565b92915050565b5f82825260208201905092915050565b7f4e6f742061206c656e64657200000000000000000000000000000000000000005f82015250565b5f6140b0600c8361406c565b91506140bb8261407c565b602082019050919050565b5f6020820190508181035f8301526140dd816140a4565b9050919050565b7f496e73756666696369656e7420617661696c61626c65206c69717569646974795f82015250565b5f61411860208361406c565b9150614123826140e4565b602082019050919050565b5f6020820190508181035f8301526141458161410c565b9050919050565b7f4e487b71000000000000000000000000000000000000000000000000000000005f52601160045260245ffd5b5f61418382613ac7565b915061418e83613ac7565b92508282039050818111156141a6576141a561414c565b5b92915050565b5f6040820190506141bf5f830185613e1a565b6141cc6020830184613c1e565b9392505050565b6141dc81613c2d565b81146141e6575f5ffd5b50565b5f815190506141f7816141d3565b92915050565b5f6020828403121561421257614211613ac3565b5b5f61421f848285016141e9565b91505092915050565b7f4e6f20696e74657265737420746f20636c61696d0000000000000000000000005f82015250565b5f61425c60148361406c565b915061426782614228565b602082019050919050565b5f6020820190508181035f83015261428981614250565b9050919050565b7f496e73756666696369656e74206c697175696469747920666f722073696d756c5f8201527f6174696f6e000000000000000000000000000000000000000000000000000000602082015250565b5f6142ea60258361406c565b91506142f582614290565b604082019050919050565b5f6020820190508181035f830152614317816142de565b9050919050565b7f4e487b71000000000000000000000000000000000000000000000000000000005f52604160045260245ffd5b7f4e487b71000000000000000000000000000000000000000000000000000000005f52603260045260245ffd5b5f61438282613ac7565b91507fffffffffffffffffffffffffffffffffffffffffffffffffffffffffffffffff82036143b4576143b361414c565b5b600182019050919050565b5f6143c982613ac7565b91506143d483613ac7565b92508282026143e281613ac7565b915082820484148315176143f9576143f861414c565b5b5092915050565b5f61440a82613ac7565b915061441583613ac7565b925082820190508082111561442d5761442c61414c565b5b92915050565b7f4e487b71000000000000000000000000000000000000000000000000000000005f52601260045260245ffd5b5f61446a82613ac7565b915061447583613ac7565b92508261448557614484614433565b5b828204905092915050565b5f8151905061449e81613ad0565b92915050565b5f602082840312156144b9576144b8613ac3565b5b5f6144c684828501614490565b91505092915050565b5f8160070b9050919050565b6144e4816144cf565b81146144ee575f5ffd5b50565b5f815190506144ff816144db565b92915050565b5f67ffffffffffffffff82169050919050565b61452181614505565b811461452b575f5ffd5b50565b5f8151905061453c81614518565b92915050565b5f8160030b9050919050565b61455781614542565b8114614561575f5ffd5b50565b5f815190506145728161454e565b92915050565b5f5f5f5f608085870312156145905761458f613ac3565b5b5f61459d878288016144f1565b94505060206145ae8782880161452e565b93505060406145bf87828801614564565b92505060606145d087828801614490565b91505092959194509250565b7f416d6f756e74206d7573742062652067726561746572207468616e20300000005f82015250565b5f614610601d8361406c565b915061461b826145dc565b602082019050919050565b5f6020820190508181035f83015261463d81614604565b9050919050565b7f496e73756666696369656e7420706f6f6c206c697175696469747900000000005f82015250565b5f614678601b8361406c565b915061468382614644565b602082019050919050565b5f6020820190508181035f8301526146a58161466c565b9050919050565b7f426f72726f77657220616c72656164792068617320616374697665206c6f616e5f82015250565b5f6146e060208361406c565b91506146eb826146ac565b602082019050919050565b5f6020820190508181035f83015261470d816146d4565b9050919050565b7f436f756c64206e6f74206d617463682066756c6c206c6f616e20616d6f756e745f82015250565b5f61474860208361406c565b915061475382614714565b602082019050919050565b5f6020820190508181035f8301526147758161473c565b9050919050565b5f60608201905061478f5f830186613c1e565b61479c6020830185613c1e565b6147a96040830184613c1e565b949350505050565b7f415059206f7574206f6620616c6c6f7765642072616e676500000000000000005f82015250565b5f6147e560188361406c565b91506147f0826147b1565b602082019050919050565b5f6020820190508181035f830152614812816147d9565b9050919050565b5f60608201905061482c5f830186613e1a565b6148396020830185613e1a565b6148466040830184613c1e565b949350505050565b5f6040820190506148615f830185613c1e565b61486e6020830184613c1e565b9392505050565b7f4e6f20616374697665206c6f616e0000000000000000000000000000000000005f82015250565b5f6148a9600e8361406c565b91506148b482614875565b602082019050919050565b5f6020820190508181035f8301526148d68161489d565b9050919050565b7f4c6f616e206e6f742065787069726564000000000000000000000000000000005f82015250565b5f61491160108361406c565b915061491c826148dd565b602082019050919050565b5f6020820190508181035f83015261493e81614905565b9050919050565b7f4f776e61626c653a206e6577206f776e657220697320746865207a65726f20615f8201527f6464726573730000000000000000000000000000000000000000000000000000602082015250565b5f61499f60268361406c565b91506149aa82614945565b604082019050919050565b5f6020820190508181035f8301526149cc81614993565b9050919050565b7f5265656e7472616e637947756172643a207265656e7472616e742063616c6c005f82015250565b5f614a07601f8361406c565b9150614a12826149d3565b602082019050919050565b5f6020820190508181035f830152614a34816149fb565b9050919050565b7f4e487b71000000000000000000000000000000000000000000000000000000005f52603160045260245ffd5b7f4f776e61626c653a2063616c6c6572206973206e6f7420746865206f776e65725f82015250565b5f614a9c60208361406c565b9150614aa782614a68565b602082019050919050565b5f6020820190508181035f830152614ac981614a90565b9050919050565b7f5061757361626c653a20706175736564000000000000000000000000000000005f82015250565b5f614b0460108361406c565b9150614b0f82614ad0565b602082019050919050565b5f6020820190508181035f830152614b3181614af8565b9050919050565b7f5061757361626c653a206e6f74207061757365640000000000000000000000005f82015250565b5f614b6c60148361406c565b9150614b7782614b38565b602082019050919050565b5f6020820190508181035f830152614b9981614b60565b905091905056fea26469706673582212207956d6e01910061cf4df8186e34666c3eec8c125e00e7beaa5356920418a2cae64736f6c634300081e0033","linkReferences":{}},"methodIdentifiers":{"BASIS_POINTS()":"e1f1c4a7","LOAN_DURATION()":"e02a4dfd","USDC_PRICE_ID()":"fb071758","WHALE_THRESHOLD()":"f47790d6","addLiquidity(uint256,uint256)":"9cd441da","borrowerList(uint256)":"b3a66524","borrowerLoans(address,uint256)":"e3ed1902","borrowers(address)":"bf5d50c4","claimInterest()":"35981fd8","getContractBalance()":"6f9fb98a","getLenderDetails(address)":"89ff2029","getPoolStatus()":"7f79496c","lenderList(uint256)":"6085c7df","lenders(address)":"28fd10d7","liquidateLoan(address)":"bbdfa00e","maxAPY()":"e49eaee0","minAPY()":"6a31db18","owner()":"8da5cb5b","pause()":"8456cb59","paused()":"5c975abb","pythOracle()":"f5d6ac90","renounceOwnership()":"715018a6","repayLoan()":"f966ade7","requestLoan(uint256)":"8d5d3429","simulateLoan(uint256)":"5ee7146c","totalAvailableLiquidity()":"735d80e3","totalInterestEarned()":"b7d93f34","totalLentAmount()":"43f7f740","transferOwnership(address)":"f2fde38b","unpause()":"3f4ba83a","updateAPYRange()":"7c1578d8","usdcToken()":"11eac855","withdrawLiquidity(uint256)":"0a861f2a"},"id":0}