{"abi":[{"type":"function","name":"USDC_LIQUIDITY_RATE","inputs":[],"outputs":[{"name":"","type":"uint256","internalType":"uint256"}],"stateMutability":"view"},{"type":"function","name":"getReserveData","inputs":[{"name":"asset","type":"address","internalType":"address"}],"outputs":[{"name":"configuration","type":"uint256","internalType":"uint256"},{"name":"liquidityIndex","type":"uint128","internalType":"uint128"},{"name":"currentLiquidityRate","type":"uint128","internalType":"uint128"},{"name":"variableBorrowIndex","type":"uint128","internalType":"uint128"},{"name":"currentVariableBorrowRate","type":"uint128","internalType":"uint128"},{"name":"currentStableBorrowRate","type":"uint128","internalType":"uint128"},{"name":"lastUpdateTimestamp","type":"uint40","internalType":"uint40"},{"name":"id","type":"uint16","internalType":"uint16"},{"name":"aTokenAddress","type":"address","internalType":"address"},{"name":"stableDebtTokenAddress","type":"address","internalType":"address"},{"name":"variableDebtTokenAddress","type":"address","internalType":"address"},{"name":"interestRateStrategyAddress","type":"address","internalType":"address"},{"name":"accruedToTreasury","type":"uint128","internalType":"uint128"},{"name":"unbacked","type":"uint128","internalType":"uint128"},{"name":"isolationModeTotalDebt","type":"uint128","internalType":"uint128"}],"stateMutability":"view"},{"type":"function","name":"setLiquidityRate","inputs":[{"name":"_rate","type":"uint256","internalType":"uint256"}],"outputs":[],"stateMutability":"nonpayable"}],"bytecode":{"object":"0x60808060405234601557610177908161001a8239f35b5f80fdfe6080806040526004361015610012575f80fd5b5f3560e01c9081632d2124791461011e5750806335ea6a751461005457633a244adf1461003d575f80fd5b3461005057602036600319011261005057005b5f80fd5b34610050576020366003190112610050576004356001600160a01b03811603610050576101e06040515f81526b033b2e3c9fd0803ce800000060208201526a1cf389cd46047d0300000060408201526b033b2e3c9fd0803ce800000060608201526a211654585005212800000060808201526a211654585005212800000060a082015264ffffffffff421660c0820152600160e08201525f6101008201525f6101208201525f6101408201525f6101608201525f6101808201525f6101a08201525f6101c0820152f35b34610050575f36600319011261005057806a1cf389cd46047d0300000060209252f3fea2646970667358221220b13d9aae34729e78ce0add2884a3f33f0f6cbb5d3774587caa259ebbed878f2864736f6c634300081e0033","linkReferences":{}},"methodIdentifiers":{"USDC_LIQUIDITY_RATE()":"2d212479","getReserveData(address)":"35ea6a75","setLiquidityRate(uint256)":"3a244adf"},"id":1}