{"abi":[{"type":"function","name":"chi","inputs":[],"outputs":[{"name":"","type":"uint256","internalType":"uint256"}],"stateMutability":"view"},{"type":"function","name":"drip","inputs":[],"outputs":[],"stateMutability":"nonpayable"},{"type":"function","name":"dsr","inputs":[],"outputs":[{"name":"","type":"uint256","internalType":"uint256"}],"stateMutability":"view"},{"type":"function","name":"rho","inputs":[],"outputs":[{"name":"","type":"uint256","internalType":"uint256"}],"stateMutability":"view"},{"type":"function","name":"setDSR","inputs":[{"name":"_dsr","type":"uint256","internalType":"uint256"}],"outputs":[],"stateMutability":"nonpayable"}],"bytecode":{"object":"0x608080604052346038576b033b2e3cc9c1bf225873dc825f556b033b2e3c9fd0803ce800000060015542600255610167908161003d8239f35b5f80fdfe6080806040526004361015610012575f80fd5b5f3560e01c90816320aba08b1461011757508063487bf082146100fb57806365c0ac4b146100e35780639f678cca146100745763c92aecc414610053575f80fd5b34610070575f366003190112610070576020600154604051908152f35b5f80fd5b34610070575f36600319011261007057600254804203904282116100cf57420361009f575b42600255005b600154908082029082820414821517156100cf576301e13380606491040481018091116100cf5760015580610099565b634e487b7160e01b5f52601160045260245ffd5b34610070576020366003190112610070576004355f55005b34610070575f3660031901126100705760205f54604051908152f35b34610070575f366003190112610070576020906002548152f3fea2646970667358221220548d67bf31f500bc8bc35f726b30584b848b27c979349c50e9f8588c3218a1d464736f6c634300081e0033","linkReferences":{}},"methodIdentifiers":{"chi()":"c92aecc4","drip()":"9f678cca","dsr()":"487bf082","rho()":"20aba08b","setDSR(uint256)":"65c0ac4b"},"id":2}